:020000040800F2
:1000000000500020652E0008B52C0008BB2C00080D
:10001000C12C0008C72C0008CD2C000800000000EF
:10002000000000000000000000000000D32C0008C9
:10003000DF2C000800000000EB2C0008F72C000863
:10004000AD2E0008AD2E0008AD2E0008AD2E000824
:10005000AD2E0008AD2E0008AD2E0008AD2E000814
:10006000AD2E0008AD2E0008AD2E0008AD2E000804
:10007000AD2E0008AD2E0008AD2E0008AD2E0008F4
:10008000AD2E0008AD2E0008AD2E0008AD2E0008E4
:10009000AD2E0008AD2E0008AD2E0008AD2E0008D4
:1000A000AD2E0008AD2E0008AD2E0008AD2E0008C4
:1000B000AD2E0008AD2E0008AD2E0008AD2E0008B4
:1000C000AD2E0008AD2E0008AD2E0008AD2E0008A4
:1000D000AD2E0008AD2E0008052D0008AD2E00083D
:1000E000AD2E0008AD2E0008AD2E00080000000067
:1000F0000000000000000000000000000000000000
:0C01000000000000000000005FF808F1A3
:1001100010B5054C237833B9044B13B10448AFF341
:1001200000800123237010BDB800002000000000F3
:100130002CA0000808B5034B1BB103490348AFF3DB
:10014000008008BD00000000BC0000202CA00008BA
:1001500081F0004102E000BF83F0004330B54FEA78
:1001600041044FEA430594EA050F08BF90EA020FE5
:100170001FBF54EA000C55EA020C7FEA645C7FEA78
:10018000655C00F0E2804FEA5454D4EB5555B8BF9B
:100190006D420CDD2C4480EA020281EA030382EA0C
:1001A000000083EA010180EA020281EA0303362D9E
:1001B00088BF30BD11F0004F4FEA01314FF4801C71
:1001C0004CEA113102D0404261EB410113F0004F83
:1001D0004FEA03334CEA133302D0524263EB43033A
:1001E00094EA050F00F0A780A4F10104D5F1200ED8
:1001F0000DDB02FA0EFC22FA05F2801841F1000133
:1002000003FA0EF2801843FA05F359410EE0A5F106
:1002100020050EF1200E012A03FA0EFC28BF4CF037
:10022000020C43FA05F3C01851EBE37101F00045ED
:1002300007D54FF0000EDCF1000C7EEB00006EEBFA
:100240000101B1F5801F1BD3B1F5001F0CD3490884
:100250005FEA30004FEA3C0C04F101044FEA4452DB
:1002600012F5800F80F09A80BCF1004F08BF5FEA62
:10027000500C50F1000041EB045141EA050130BD42
:100280005FEA4C0C404141EB0101013C28BFB1F554
:10029000801FE9D291F0000F04BF01460020B1FA9F
:1002A00081F308BF2033A3F10B03B3F120020CDA72
:1002B0000C3208DD02F1140CC2F10C0201FA0CF050
:1002C00021FA02F10CE002F11402D8BFC2F1200CB5
:1002D00001FA02F120FA0CFCDCBF41EA0C0190406B
:1002E000E41AA2BF01EB0451294330BD6FEA0404B4
:1002F0001F3C1CDA0C340EDC04F11404C4F120029F
:1003000020FA04F001FA02F340EA030021FA04F3B0
:1003100045EA030130BDC4F10C04C4F1200220FA07
:1003200002F001FA04F340EA0300294630BD21FA45
:1003300004F0294630BD94F0000F83F4801306BF0B
:1003400081F480110134013D4EE77FEA645C18BFFF
:100350007FEA655C29D094EA050F08BF90EA020F96
:1003600005D054EA000C04BF1946104630BD91EA8E
:10037000030F1EBF0021002030BD5FEA545C05D191
:100380004000494128BF41F0004130BD14F58004D0
:100390003CBF01F5801130BD01F0004545F0FE4144
:1003A00041F470014FF0000030BD7FEA645C1ABF79
:1003B000194610467FEA655C1CBF0B46024650EAB0
:1003C000013406BF52EA033591EA030F41F40021DC
:1003D00030BD00BF90F0000F04BF0021704730B562
:1003E0004FF4806404F132044FF000054FF0000137
:1003F00050E700BF90F0000F04BF0021704730B5F8
:100400004FF4806404F1320410F0004548BF4042CC
:100410004FF000013EE700BF42004FEAE2014FEA21
:1004200031014FEA02701FBF12F07F4393F07F4FFC
:1004300081F06051704732F07F4208BF704793F0FF
:100440007F4F04BF41F40021704730B54FF4607412
:1004500001F0004521F000411CE700BF50EA010215
:1004600008BF704730B54FF000050AE050EA0102BE
:1004700008BF704730B511F0004502D5404261EB2E
:1004800041014FF4806404F132045FEA915C3FF46F
:10049000D8AE4FF003025FEADC0C18BF03325FEA0C
:1004A000DC0C18BF033202EBDC02C2F1200300FABD
:1004B00003FC20FA02F001FA03FE40EA0E0021FAE2
:1004C00002F11444BDE600BF70B54FF0FF0C4CF4D0
:1004D000E06C1CEA11541DBF1CEA135594EA0C0F82
:1004E00095EA0C0F00F0DEF82C4481EA030621EABD
:1004F0004C5123EA4C5350EA013518BF52EA0335F8
:1005000041F4801143F4801338D0A0FB02CE4FF0A9
:100510000005E1FB02E506F00042E0FB03E54FF0D9
:100520000006E1FB03569CF0000F18BF4EF0010ED1
:10053000A4F1FF04B6F5007F64F5407404D25FEACD
:100540004E0E6D4146EB060642EAC62141EA555180
:100550004FEAC52040EA5E504FEACE2EB4F1FD0CC2
:1005600088BFBCF5E06F1ED8BEF1004F08BF5FEA40
:10057000500E50F1000041EB045170BD06F00046F2
:1005800046EA010140EA020081EA0301B4EB5C049F
:10059000C2BFD4EB0C0541EA045170BD41F4801197
:1005A0004FF0000E013C00F3AB8014F1360FDEBFBC
:1005B000002001F0004170BDC4F10004203C35DA98
:1005C0000C341BDC04F11404C4F1200500FA05F31B
:1005D00020FA04F001FA05F240EA020001F00042BC
:1005E00021F0004110EBD37021FA04F642EB060132
:1005F0005EEA430E08BF20EAD37070BDC4F10C045C
:10060000C4F1200500FA04F320FA05F001FA04F21F
:1006100040EA020001F0004110EBD37041F100010B
:100620005EEA430E08BF20EAD37070BDC4F1200516
:1006300000FA05F24EEA020E20FA04F301FA05F27E
:1006400043EA020321FA04F001F0004121FA04F226
:1006500020EA020000EBD3705EEA430E08BF20EAF6
:10066000D37070BD94F0000F0FD101F00046400030
:1006700041EB010111F4801F08BF013CF7D041EAB2
:10068000060195F0000F18BF704703F000465200B6
:1006900043EB030313F4801F08BF013DF7D043EA87
:1006A0000603704794EA0C0F0CEA135518BF95EA3D
:1006B0000C0F0CD050EA410618BF52EA4306D1D1C4
:1006C00081EA030101F000414FF0000070BD50EAE3
:1006D000410606BF1046194652EA430619D094EA6D
:1006E0000C0F02D150EA013613D195EA0C0F05D157
:1006F00052EA03361CBF104619460AD181EA0301AB
:1007000001F0004141F0FE4141F470014FF0000062
:1007100070BD41F0FE4141F4780170BD70B54FF0FD
:10072000FF0C4CF4E06C1CEA11541DBF1CEA13557D
:1007300094EA0C0F95EA0C0F00F0A7F8A4EB05045F
:1007400081EA030E52EA03354FEA013100F0888056
:100750004FEA03334FF0805545EA131343EA12631F
:100760004FEA022245EA111545EA10654FEA0026D4
:100770000EF000419D4208BF964244F1FD0404F58D
:10078000407402D25B084FEA3202B61A65EB0305E9
:100790005B084FEA32024FF480104FF4002CB6EBA6
:1007A000020E75EB030E22BFB61A754640EA0C0026
:1007B0005B084FEA3202B6EB020E75EB030E22BF66
:1007C000B61A754640EA5C005B084FEA3202B6EBA7
:1007D000020E75EB030E22BFB61A754640EA9C0066
:1007E0005B084FEA3202B6EB020E75EB030E22BF36
:1007F000B61A754640EADC0055EA060E18D04FEAF4
:10080000051545EA16754FEA06164FEAC30343EA93
:1008100052734FEAC2025FEA1C1CC0D111F4801F60
:100820000BD141EA00014FF000004FF0004CB6E759
:1008300011F4801F04BF01430020B4F1FD0C88BFF8
:10084000BCF5E06F3FF6AFAEB5EB030C04BFB6EB03
:10085000020C5FEA500C50F1000041EB045170BDF6
:100860000EF0004E4EEA113114EB5C04C2BFD4EB23
:100870000C0541EA045170BD41F480114FF0000EA7
:10088000013C90E645EA060E8DE60CEA135594EA23
:100890000C0F08BF95EA0C0F3FF43BAF94EA0C0F26
:1008A0000AD150EA01347FF434AF95EA0C0F7FF49B
:1008B00025AF104619462CE795EA0C0F06D152EAEF
:1008C00003353FF4FDAE1046194622E750EA4106D3
:1008D00018BF52EA43067FF4C5AE50EA41047FF4E4
:1008E0000DAF52EA43057FF4EBAE12E74FF0FF3C49
:1008F00006E000BF4FF0010C02E000BF4FF0010C1A
:100900004DF804CD4FEA410C7FEA6C5C4FEA430C92
:1009100018BF7FEA6C5C1BD001B050EA410C0CBFE1
:1009200052EA430C91EA030F02BF90EA020F002043
:10093000704710F1000F91EA030F58BF994208BFAA
:1009400090422CBFD8176FEAE37040F00100704767
:100950004FEA410C7FEA6C5C02D150EA013C07D1BE
:100960004FEA430C7FEA6C5CD6D152EA033CD3D009
:100970005DF8040B704700BF8446104662468C4603
:100980001946634600E000BF01B5FFF7B7FF002836
:1009900048BF10F1000F01BD4DF808EDFFF7F4FF5F
:1009A0000CBF012000205DF808FB00BF4DF808EDEA
:1009B000FFF7EAFF34BF012000205DF808FB00BF0D
:1009C0004DF808EDFFF7E0FF94BF012000205DF82F
:1009D00008FB00BF4DF808EDFFF7CEFF94BF0120E4
:1009E00000205DF808FB00BF4DF808EDFFF7C4FFDD
:1009F00034BF012000205DF808FB00BF4A0011D27F
:100A000012F5001211D20DD56FF47873B3EB625268
:100A10000ED44FEAC12343F0004343EA505323FA74
:100A200002F070474FF00000704750EA013002D1E9
:100A30004FF0FF3070474FF0000070474FEA41021F
:100A4000B2F1E04324BFB3F5001CDCF1FE5C0DD92C
:100A500001F0004C4FEAC0024CEA5070B2F1004F76
:100A600040EB830008BF20F00100704711F0804F79
:100A700021D113F13872BCBF01F00040704741F43E
:100A800080114FEA5252C2F11802C2F1200C10FA42
:100A90000CF320FA02F018BF40F001004FEAC12326
:100AA0004FEAD32303FA0CFC40EA0C0023FA02F3CA
:100AB0004FEA4303CCE77FEA625307D150EA0133A0
:100AC0001EBF4FF0FE4040F44000704701F0004070
:100AD00040F0FE4040F40000704700BF80F000404E
:100AE00002E000BF81F0004142001FBF5FEA410306
:100AF00092EA030F7FEA226C7FEA236C6AD04FEA06
:100B00001262D2EB1363C1BFD2184140484041404A
:100B1000B8BF5B42192B88BF704710F0004F40F4FC
:100B2000000020F07F4018BF404211F0004F41F418
:100B3000000121F07F4118BF494292EA030F3FD0E4
:100B4000A2F1010241FA03FC10EB0C00C3F12003F7
:100B500001FA03F100F0004302D5494260EB400086
:100B6000B0F5000F13D3B0F1807F06D340084FEAF1
:100B7000310102F10102FE2A51D2B1F1004F40EBE6
:100B8000C25008BF20F0010040EA0300704749004E
:100B900040EB0000013A28BFB0F5000FEDD2B0FAEB
:100BA00080FCACF1080CB2EB0C0200FA0CF0AABF0E
:100BB00000EBC25052421843BCBFD04018437047AC
:100BC00092F0000F81F4000106BF80F400000132B2
:100BD000013BB5E74FEA41037FEA226C18BF7FEA89
:100BE000236C21D092EA030F04D092F0000F08BFCB
:100BF0000846704790EA010F1CBF0020704712F0B2
:100C00007F4F04D1400028BF40F00040704712F1F0
:100C100000723CBF00F50000704700F0004343F055
:100C2000FE4040F4000070477FEA226216BF08468B
:100C30007FEA23630146420206BF5FEA412390EA4E
:100C4000010F40F4800070474FF0000304E000BF44
:100C500010F0004348BF40425FEA000C08BF7047F5
:100C600043F0964301464FF000001CE050EA0102B9
:100C700008BF70474FF000030AE000BF50EA0102CE
:100C800008BF704711F0004302D5404261EB4101BB
:100C90005FEA010C02BF84460146002043F0B643E0
:100CA00008BFA3F18053A3F50003BCFA8CF2083A05
:100CB000A3EBC25310DB01FA02FC634400FA02FC0E
:100CC000C2F12002BCF1004F20FA02F243EB020015
:100CD00008BF20F00100704702F1200201FA02FC77
:100CE000C2F1200250EA4C0021FA02F243EB02006A
:100CF00008BF20EADC7070474FF0FF0C1CEAD052AE
:100D00001EBF1CEAD15392EA0C0F93EA0C0F6FD06E
:100D10001A4480EA010C400218BF5FEA41211ED04C
:100D20004FF0006343EA501043EA5111A0FB013138
:100D30000CF00040B1F5000F3EBF490041EAD3710D
:100D40005B0040EA010062F17F02FD2A1DD8B3F189
:100D5000004F40EBC25008BF20F00100704790F0F8
:100D6000000F0CF0004C08BF49024CEA502040EA4A
:100D700051207F3AC2BFD2F1FF0340EAC250704710
:100D800040F400004FF00003013A5DDC12F1190F4E
:100D9000DCBF00F000407047C2F10002410021FAC0
:100DA00002F1C2F1200200FA02FC5FEA310040F1D8
:100DB000000053EA4C0308BF20EADC70704792F051
:100DC000000F00F0004C02BF400010F4000F013A89
:100DD000F9D040EA0C0093F0000F01F0004C02BF84
:100DE000490011F4000F013BF9D041EA0C018FE7F3
:100DF0000CEAD15392EA0C0F18BF93EA0C0F0AD0F9
:100E000030F0004C18BF31F0004CD8D180EA01001E
:100E100000F00040704790F0000F17BF90F0004FB7
:100E2000084691F0000F91F0004F14D092EA0C0F99
:100E300001D142020FD193EA0C0F03D14B0218BF2C
:100E4000084608D180EA010000F0004040F0FE4072
:100E500040F40000704740F0FE4040F4400070470E
:100E60004FF0FF0C1CEAD0521EBF1CEAD15392EA8D
:100E70000C0F93EA0C0F69D0A2EB030280EA010C7D
:100E800049024FEA402037D04FF0805343EA111116
:100E900043EA10130CF000408B4238BF5B0042F174
:100EA0007D024FF4000C8B4224BF5B1A40EA0C0019
:100EB000B3EB510F24BFA3EB510340EA5C00B3EB4B
:100EC000910F24BFA3EB910340EA9C00B3EBD10F39
:100ED00024BFA3EBD10340EADC001B0118BF5FEA8B
:100EE0001C1CE0D1FD2A3FF650AF8B4240EBC250B4
:100EF00008BF20F0010070470CF0004C4CEA502075
:100F00007F32C2BFD2F1FF0340EAC250704740F4C3
:100F100000004FF00003013A37E792F0000F00F0B5
:100F2000004C02BF400010F4000F013AF9D040EA33
:100F30000C0093F0000F01F0004C02BF490011F4C7
:100F4000000F013BF9D041EA0C0195E70CEAD153BF
:100F500092EA0C0F08D142027FF47DAF93EA0C0FA6
:100F60007FF470AF084676E793EA0C0F04D14B028A
:100F70003FF44CAF08466EE730F0004C18BF31F03C
:100F8000004CCAD130F000427FF45CAF31F0004336
:100F90007FF43CAF5FE700BF4FF0FF3C06E000BFCF
:100FA0004FF0010C02E000BF4FF0010C4DF804CDF2
:100FB0004FEA40024FEA41037FEA226C18BF7FEA02
:100FC000236C11D001B052EA530C18BF90EA010F04
:100FD00058BFB2EB030088BFC81738BF6FEAE17093
:100FE00018BF40F0010070477FEA226C02D15FEA2F
:100FF000402C05D17FEA236CE4D15FEA412CE1D09B
:101000005DF8040B704700BF844608466146FFE761
:101010000FB5FFF7C9FF002848BF10F1000F0FBD43
:101020004DF808EDFFF7F4FF0CBF012000205DF83C
:1010300008FB00BF4DF808EDFFF7EAFF34BF0120C1
:1010400000205DF808FB00BF4DF808EDFFF7E0FF5A
:1010500094BF012000205DF808FB00BF4DF808EDAB
:10106000FFF7D2FF94BF012000205DF808FB00BF0E
:101070004DF808EDFFF7C8FF34BF012000205DF8F0
:1010800008FB00BF4FEA40024FEA41037FEA226CAF
:1010900002D15FEA402C08D17FEA236C02D15FEADB
:1010A000412C02D14FF0000070474FF00100704713
:1010B0004FEA4002B2F1FE4F0FD34FF09E03B3EB65
:1010C00012620DD94FEA002343F0004310F0004FA5
:1010D00023FA02F018BF404270474FF000007047FB
:1010E00012F1610F01D1420205D110F0004008BF9A
:1010F0006FF0004070474FF00000704742000ED282
:10110000B2F1FE4F0BD34FF09E03B3EB126209D442
:101110004FEA002343F0004323FA02F070474FF0F8
:101120000000704712F1610F01D1420202D14FF06D
:10113000FF3070474FF00000704700BF4FEA410C8E
:101140007FEA6C5C02D150EA013C0AD14FEA430CC1
:101150007FEA6C5C02D152EA033C02D14FF00000FE
:1011600070474FF0010070474FEA410212F500123C
:1011700015D211D56FF47873B3EB625212D94FEADE
:10118000C12343F0004343EA505311F0004F23FAC8
:1011900002F018BF404270474FF00000704750EA1D
:1011A000013005D111F0004008BF6FF000407047DA
:1011B0004FF00000704700BF80B584B000AFF8600A
:1011C000B9607A603B60FB68BA681A60FB687A684D
:1011D0005A60FB683A689A60FB68BA69DA60FB6833
:1011E000FA691A61386AFFF717F95FA3D3E9002398
:1011F000FFF76AF902460B46104619464FF0000207
:101200005B4BFFF78BFA02460B4610461946FFF779
:1012100015FC0246FB685A61786AFFF7FDF852A395
:10122000D3E90023FFF750F902460B461046194652
:101230004FF000024E4BFFF771FA02460B46104684
:101240001946FFF7FBFB0246FB689A61B86AFFF795
:10125000E3F845A3D3E90023FFF736F902460B462E
:10126000104619464FF00002414BFFF757FA02466D
:101270000B4610461946FFF7E1FB0246FB68DA61B0
:10128000F86AFFF7C9F838A3D3E90023FFF71CF980
:1012900002460B46104619464FF00002344BFFF74A
:1012A0003DFA02460B4610461946FFF7C7FB0246B9
:1012B000FB681A62386BFFF7AFF82BA3D3E9002362
:1012C000FFF702F902460B46104619464FF000029E
:1012D000274BFFF723FA02460B4610461946FFF745
:1012E000ADFB0246FB685A62786BFFF795F81EA3C8
:1012F000D3E90023FFF7E8F802460B4610461946EB
:101300004FF000021A4BFFF709FA02460B4610464F
:101310001946FFF793FB0246FB689A62FB684FF0A1
:1013200000029A63FB684FF00002DA63FB684FF03B
:1013300000021A64FB684FF000025A64FB684FF029
:1013400000029A64FB684FF00002DA64FB68BA6B33
:10135000DA62FB68FA6B1A63FB683A6C5A6300BF87
:101360001037BD4680BD00BF1F85EB51B81E094038
:10137000008066400000000090B585B000AFF860C6
:10138000B9607A603B607868FFF762FC0246FB68F0
:10139000DA633868FFF75CFC0246FB681A64386A57
:1013A000FFF756FC0246FB685A64BB681B684FF0A7
:1013B00080411846FFF754FD03461C467868FFF746
:1013C00047FC034619462046FFF796FC03461A469B
:1013D000FB685A62BB685B684FF080411846FFF7B4
:1013E0003FFD03461C463868FFF732FC03461946AA
:1013F0002046FFF781FC03461A46FB689A62FB68A9
:101400004FF00002DA62BB681B684FF0804118465B
:10141000FFF726FD03461A46BB689B68194610462F
:10142000FFF762FB03461C467868FFF711FC034692
:1014300019462046FFF760FC03461A46FB681A630C
:10144000BB685B684FF080411846FFF709FD034613
:101450001C463868FFF7FCFB034619462046FFF799
:101460004BFC03461A46FB685A63BB68DA68BB68E4
:101470001B6919461046FFF737FB03461846FEF76F
:10148000CBFF1BA3D3E90023FFF71EF802460B4650
:1014900010461946FFF7D2FA0246FB689A63FB68CA
:1014A0004FF000029A64FB68134ADA64FB68134A3F
:1014B0001A65FB687A6A5A65FB68BA6A9A65FB68BE
:1014C000FA6ADA65FB683A6B1A66FB687A6B5A66E9
:1014D000FB68BA6B9A66FB68FA6BDA66FB683A6C73
:1014E0001A67FB687A6C5A6700BF1437BD4690BD17
:1014F000CC3B7F669EA0E6BFC3F548BFC3F5C83F9F
:1015000080B485B000AFF860384680E80E003A68D5
:10151000FB681A637A68FB685A63BA68FB689A6367
:1015200000BF1437BD4680BC70470000F0B591B0D5
:1015300000AF786039607B681A6B7B685B6A19461C
:101540001046FFF7CFFA03461A467B68DB6B194655
:101550001046FFF7D1FB0346FB637B685A6B7B6841
:101560009B6A19461046FFF7BDFA0346BB637B68CA
:101570009A6B7B68DB6A19461046FFF7B3FA03469D
:1015800083F000437B63F86BFEF746FF4FF00002E9
:101590004FF0804306F062FA04460D46786BFEF782
:1015A0003BFF4FF000024FF0804306F057FA02462F
:1015B0000B4620462946FEF7D1FD02460B46104653
:1015C0001946FFF73BFA03463B63386BFEF724FFEF
:1015D00004460D463B689B681846FEF71DFF4FF01A
:1015E00000024FF0804306F039FA02460B462046CF
:1015F0002946FEF7B1FD02460B4610461946FFF795
:101600001DFA0346FB62F86AFEF706FF4FF0000280
:10161000AF4B06F023FA02460B4610461946FFF779
:101620000DFA0346BB62F86AFEF7F6FE04460D4665
:10163000B86BFEF7F1FE4FF000024FF0804306F06A
:101640000DFA02460B4620462946FEF787FD024664
:101650000B4610461946FFF7F1F903467B62786A9C
:10166000FEF7DAFE4FF00002994B06F0F7F902465A
:101670000B4610461946FFF7E1F903463B623B680B
:10168000DB681846FEF7C8FE4FF000024FF08043BB
:1016900006F0E4F902460B4610461946FFF7CEF96C
:1016A0000346FB613B681B691846FEF7B5FE4FF029
:1016B00000024FF0804306F0D1F902460B46104677
:1016C0001946FFF7BBF90346BB61796BF86BFFF76F
:1016D000C7FB03461846FEF79FFE02460B46104620
:1016E000194606F025FA04460D463B689B68B96A20
:1016F0001846FFF7B5FB03461846FEF78DFE024677
:101700000B461046194606F013FA02460B462046D1
:101710002946FEF721FD02460B4610461946FFF703
:101720008DF9034683F000437B61B96AB86BFFF71C
:1017300097FB03461846FEF76FFE02460B4610461F
:10174000194606F0F5F904460D46F969B869FFF740
:10175000C9F90346796A1846FFF7C4F903461E46DD
:101760003B68DB684FF040411846FFF7C5FA034677
:10177000396A1846FFF7C0FA034619463046FFF7A4
:101780006FFB03461846FEF747FE02460B4610461F
:10179000194606F03BF902460B4620462946FEF75D
:1017A000DBFC02460B4610461946FFF747F9034695
:1017B0003B61F969786AFFF795F90346B9691846FC
:1017C000FFF790F903461C463B68DB684FF0404149
:1017D0001846FFF791FA03461A463B681B691946FB
:1017E0001046FFF789FA034619462046FFF738FBF3
:1017F00003461846FEF710FE02460B4610461946F1
:1018000006F004F902460B4610461946FFF716F992
:101810000346FB6079697869FFF734FC0346002BC7
:1018200052D139693869FFF72DFC0346002B4BD1A3
:10183000F968F868FFF726FC0346002B44D13B68A3
:101840005B6919467869FFF709FC0346002B00D154
:101850003AE03B681B6A19467869FFF7F5FB0346D7
:10186000002B00D130E03B689B6919463869FFF7CF
:10187000F5FB0346002B00D126E03B685B6A194666
:101880003869FFF7E1FB0346002B00D11CE03B6801
:10189000DB691946F868FFF7E1FB0346002B00D12E
:1018A00012E03B689B6A1946F868FFF7CDFB0346D8
:1018B000002B00D108E07B687A699A647B683A69FA
:1018C000DA647B68FA681A6500BF4437BD46F0BD2C
:1018D0000000E03FB0B586B000AF786039607B684B
:1018E0009B6C44491846FFF7BBFA03461A467B68CF
:1018F000DB6E19461046FFF7F7F803461846FEF769
:101900008BFD02460B461046194606F0B9FB02460F
:101910000B4610461946FFF791F803467B617B683A
:10192000DB6C34491846FFF79BFA03461A467B687E
:101930001B6F19461046FFF7D7F803461846FEF707
:101940006BFD02460B461046194606F099FB02460F
:101950000B4610461946FFF771F803463B617B685A
:101960001B6D24491846FFF77BFA03461A467B682D
:101970005B6F19461046FFF7B7F803461846FEF7A7
:101980004BFD02460B461046194606F079FB02460F
:101990000B4610461946FFF751F80346FB607B687B
:1019A0001B68DBB27969184601F0F6FF7B681B699A
:1019B000DBB23969184601F0EFFF7B681B6ADBB2C6
:1019C000F968184601F0E8FF7869FFF771FB0446F3
:1019D0003869FFF76DFB0546F868FFF769FB0346BA
:1019E0002A462146044805F0FDF800BF1837BD46D9
:1019F000B0BD00BF35FA8E3C48A000082DE9B04FBD
:101A00008EB000AFF86107F1100080E80E00BB6DEA
:101A10007B63FB6D3B633B6EFB623B691846FEF7E5
:101A2000FBFC04460D46F86AFEF7F6FC02460B4640
:101A30001046194606F006FA80468946386BFEF7CE
:101A4000EBFC02460B461046194606F0FBF902462F
:101A50000B4640464946FEF737FD02460B462046F8
:101A60002946FEF731FD02460B4692469B467B69AE
:101A70001846FEF7D1FC80468946F86AFEF7CCFC92
:101A800002460B461046194606F0DCF904460D46A0
:101A9000386BFEF7C1FC02460B461046194606F0AD
:101AA0001BFA02460B4620462946FEF70DFD02466C
:101AB0000B4614461D46786BFEF7AEFC02460B46FD
:101AC0001046194606F008FA02460B4620462946FB
:101AD000FEF7FAFC02460B46C7E90023F86AFEF758
:101AE0009BFC02460B461046194606F0F5F90446E3
:101AF0000D46786BFEF790FC02460B4610461946E1
:101B000006F0A0F902460B4620462946FEF7DCFC0B
:101B100002460B46D7E90001FEF71EFB02460B46C4
:101B200040464946FEF7D0FC02460B465046594611
:101B3000FEF714FB02460B4692469B46BB69796E44
:101B40001846FEF7D1FF03461846FEF765FC8046AF
:101B50008946F86AFEF760FC02460B4610461946B5
:101B600006F070F904460D46386BFEF755FC024648
:101B70000B461046194606F0AFF902460B462046C2
:101B80002946FEF7A1FC02460B4614461D46786B1B
:101B9000FEF742FC02460B461046194606F052F983
:101BA00002460B4620462946FEF78EFC02460B46AF
:101BB000C7E90023F86AFEF72FFC02460B461046E1
:101BC000194606F089F904460D46786BFEF724FCA9
:101BD00002460B461046194606F07EF902460B46B1
:101BE00020462946FEF770FC02460B46D7E9000165
:101BF000FEF7B4FA02460B4640464946FEF764FC3F
:101C000002460B4650465946FEF7A8FA02460B46D6
:101C100010461946FEF712FF03463B623B69184621
:101C2000FEF7FAFB04460D46F86AFEF7F5FB02469E
:101C30000B461046194606F04FF980468946386B28
:101C4000FEF7EAFB02460B461046194606F0FAF884
:101C500002460B4640464946FEF736FC02460B4616
:101C600020462946FEF730FC02460B4692469B462C
:101C70007B691846FEF7D0FB80468946F86AFEF776
:101C8000CBFB02460B461046194606F025F90446E2
:101C90000D46386BFEF7C0FB02460B461046194650
:101CA00006F01AF902460B4620462946FEF70CFCC0
:101CB00002460B4614461D46786BFEF7ADFB024606
:101CC0000B461046194606F007F902460B46204619
:101CD0002946FEF7F9FB02460B46C7E90023F86ADE
:101CE000FEF79AFB02460B461046194606F0AAF884
:101CF00004460D46786BFEF78FFB02460B461046F6
:101D0000194606F09FF802460B4620462946FEF784
:101D1000DBFB02460B46D7E90001FEF71FFA02463D
:101D20000B4640464946FEF7CFFB02460B4650465F
:101D30005946FEF713FA02460B4692469B46BB698C
:101D4000796E1846FEF7D0FE03461846FEF764FB90
:101D500080468946F86AFEF75FFB02460B4610464E
:101D6000194606F0B9F804460D46386BFEF754FBE9
:101D700002460B461046194606F0AEF802460B46E0
:101D800020462946FEF7A0FB02460B4614461D4698
:101D9000786BFEF741FB02460B461046194606F0EB
:101DA00051F802460B4620462946FEF78DFB0246B7
:101DB0000B46C7E90023F86AFEF72EFB02460B46E6
:101DC0001046194606F03EF804460D46786BFEF7BD
:101DD00023FB02460B461046194606F07DF80246E4
:101DE0000B4620462946FEF76FFB02460B46D7E915
:101DF0000001FEF7B1F902460B4640464946FEF7A0
:101E000063FB02460B4650465946FEF7A7F90246C9
:101E10000B4610461946FEF711FE03467B623B69EE
:101E20001846FEF7F9FA04460D46386BFEF7F4FA49
:101E300002460B461046194606F04EF802460B467F
:101E4000BA6083F00043FB60D7E9022320462946AD
:101E5000FEF73AFB02460B4692469B467B691846C4
:101E6000FEF7DAFA04460D46386BFEF7D5FA02465D
:101E70000B461046194605F0E5FF80468946786B0B
:101E8000FEF7CAFA02460B461046194606F024F839
:101E900002460B4640464946FEF716FB02460B46F5
:101EA00020462946FEF710FB02460B46504659468F
:101EB000FEF754F902460B4692469B46BB69796E83
:101EC0001846FEF711FE03461846FEF7A5FA04462B
:101ED0000D46386BFEF7A0FA02460B46104619462F
:101EE00005F0B0FF80468946786BFEF795FA02460A
:101EF0000B461046194605F0A5FF02460B46404624
:101F00004946FEF7E1FA02460B4620462946FEF70F
:101F1000DBFA02460B4650465946FEF71FF90246C9
:101F20000B4614461D46786EFEF776FA02460B46BF
:101F300020462946FEF710F902460B461046194680
:101F4000FEF77CFD0346BB62FB691C4607F12003DC
:101F500093E8070084E80700F8693837BD46BDE814
:101F6000B08F0000F0B58DB00CAF964B00221A6018
:101F7000944B01221A61934B02221A62924B042263
:101F80001A60914B05221A618F4B06221A628F4B01
:101F900008221A608D4B09221A618C4B0A221A62A0
:101FA0008B4B0C221A608A4B0D221A61884B0E2231
:101FB0001A62884B0A93884B0993884B0893884B85
:101FC0000793884B0693884B0593884B0493884B63
:101FD0000393884B0293884B0193874B0093874B65
:101FE000874A85498748FFF7E7F8874B1B68874A88
:101FF00012688749096887480068874C2468874DBC
:102000002D68874E3668DFF81CC2DCF800C0DFF8A8
:1020100018E2DEF800E0CDF824E0CDF820C0079605
:102020000695059404900391029201930123009375
:102030000123012273496348FFF79EF9724B1B6825
:10204000724A12687249096872480068724C2468C2
:10205000724D2D68724E3668DFF8C8C1DCF800C0DA
:10206000DFF8C4E1DEF800E0CDF824E0CDF820C0D0
:10207000079606950594049003910292019301231B
:10208000009301234FF0FF325E494F48FFF774F988
:102090005D4B1B685D4A12685D4909685D480068D0
:1020A0005D4C24685D4D2D685D4E3668DFF874C167
:1020B000DCF800C0DFF870E1DEF800E0CDF824E0E5
:1020C000CDF820C0079606950594049003910292DE
:1020D0000193012300934FF0FF334FF0FF32494942
:1020E0003A48FFF749F9484B1B68484A1268484983
:1020F000096848480068484C2468484D2D68484E97
:102100003668DFF820C1DCF800C0DFF81CE1DEF83B
:1021100000E0CDF824E0CDF820C0079606950594A0
:102120000490039102920193012300934FF0FF3337
:10213000012234492648FFF71FF93C4B1B683C4AF3
:1021400013603C4B1B683A4A53603B4B1B6883F05F
:102150000043374A9360354B1B6883F00043374A8E
:102160001360344B1B68354A5360334B1B6883F054
:102170000043324A93602D4B1B6883F00043304A82
:1021800013602C4B1B6883F000432D4A53602A4B8D
:102190001B6883F000432A4A9360244B1B68294A3A
:1021A0001360244B1B6883F00043264A5360224B84
:1021B0001B6883F00043234A936000BF0437BD4689
:1021C000F0BD00BF98020020080500207C0300201D
:1021D0001804002000000A43000048420000B442F6
:1021E00000000743000070420000F041000034424C
:1021F000000070C20000DCC10000D0409A9921406C
:1022000033334B413C0200200C000020140000201E
:102210001C000020100000201800002020000020DA
:1022200024000020280000202C00002000000020B6
:102230000C04002004000020080000208C02002074
:10224000A80400209C040020F0B591B004AF9E4B80
:10225000DB689E4A93639C4B1B699C4AD3639A4BF1
:102260005B699A4A1364994B5C6C984B9B6B984AD8
:10227000126811461846FEF73FFD034619462046F0
:10228000FEF732FC03461846FEF7C6F804460D4634
:10229000904B1B6883F000438F491846FEF7E0FD22
:1022A00003461846FEF7B8F885A3D3E90023FEF7E6
:1022B0000BF902460B4620462946FEF777FB0346FC
:1022C000002B18D0834B1B6883F0004382491846CB
:1022D000FEF7C6FD03461846FEF79EF878A3D3E93D
:1022E0000023FEF7F1F802460B4610461946FEF7AA
:1022F000A5FB034653E0754B5C6C744B9B6B744AB7
:10230000126811461846FEF7F7FC034619462046A8
:10231000FEF7EAFB03461846FEF77EF804460D4634
:102320006C4B1B686C491846FEF79AFD034618462D
:10233000FEF772F862A3D3E90023FEF7C5F8024660
:102340000B4620462946FEF74FFB0346002B16D0CE
:10235000604B1B6860491846FEF782FD034618462D
:10236000FEF75AF856A3D3E90023FEF7ADF802466C
:102370000B4610461946FEF761FB03460FE0534B30
:102380005C6C524B9B6B524A126811461846FEF722
:10239000B3FC034619462046FEF7A6FB03464B4A0C
:1023A00053644A4B9C6C494BDB6B494A126811469B
:1023B0001846FEF7A1FC034619462046FEF794FB9B
:1023C00003461846FEF728F804460D46434B1B68A3
:1023D00083F0004340491846FEF742FD0346184685
:1023E000FEF71AF836A3D3E90023FEF76DF802468C
:1023F0000B4620462946FEF7D9FA0346002B18D093
:10240000364B1B6883F0004333491846FEF728FD1E
:1024100003461846FEF700F829A3D3E90023FEF788
:1024200053F802460B4610461946FEF707FB0346D3
:1024300066E0264B9C6C254BDB6B254A12681146E7
:102440001846FEF759FC034619462046FEF74CFB9A
:1024500003461846FDF7E0FF04460D461F4B1B6878
:102460001D491846FEF7FCFC03461846FDF7D4FF4D
:1024700013A3D3E90023FEF727F802460B462046B4
:102480002946FEF7B1FA0346002B29D0134B1B68EF
:1024900011491846FEF7E4FC03461846FDF7BCFF59
:1024A00007A3D3E90023FEF70FF802460B461046B8
:1024B0001946FEF7C3FA034622E000BFAFF30080DF
:1024C0001F85EB51B81E0940F40300203C02002098
:1024D0003000002034000020000034433800002089
:1024E0009D4B9C6C9C4BDB6B9C4A126811461846BA
:1024F000FEF702FC034619462046FEF7F5FA0346AE
:10250000954A9364944BDC6C934B1B6C934A126812
:1025100011461846FEF7F0FB034619462046FEF723
:10252000E3FA03461846FDF777FF04460D468C4B49
:102530001B6883F000438B491846FEF791FC034665
:102540001846FDF769FF82A3D3E90023FDF7BCFF1E
:1025500002460B4620462946FEF728FA0346002B82
:1025600018D07F4B1B6883F000437E491846FEF766
:1025700077FC03461846FDF74FFF75A3D3E9002308
:10258000FDF7A2FF02460B4610461946FEF756FA23
:10259000034653E0704BDC6C6F4B1B6C6F4A126848
:1025A00011461846FEF7A8FB034619462046FEF7DB
:1025B0009BFA03461846FDF72FFF04460D46684B6D
:1025C0001B6868491846FEF74BFC03461846FDF7A2
:1025D00023FF5FA3D3E90023FDF776FF02460B46F6
:1025E00020462946FEF700FA0346002B16D05C4B26
:1025F0001B685C491846FEF733FC03461846FDF796
:102600000BFF53A3D3E90023FDF75EFF02460B4601
:1026100010461946FEF712FA03460FE04E4BDC6CEB
:102620004D4B1B6C4D4A126811461846FEF764FB71
:10263000034619462046FEF757FA0346464AD36436
:10264000494B1B683E46494D0393434B6C4644330C
:1026500093E8070084E8070095E80E003046FFF78E
:10266000CDF93B460ECB4248FEF74AFF3E4B1B6876
:1026700007F10C063F4D0393374B6C46443393E808
:10268000070084E8070095E80E003046FFF7B6F92A
:1026900007F10C030ECB3848FEF732FF324B1B68B4
:1026A00007F11806354D03932B4B6C46443393E8E2
:1026B000070084E8070095E80E003046FFF79EF912
:1026C00007F118030ECB2E48FEF71AFF264B1B68A6
:1026D00007F124062B4D03931F4B6C46443393E8BC
:1026E000070084E8070095E80E003046FFF786F9FA
:1026F00007F124030ECB2448FEF702FF16491C48BD
:10270000FEF714FF14491C48FEF710FF12491C483D
:10271000FEF70CFF10491C48FEF708FF0E4914484D
:10272000FFF7D8F80C491448FFF7D4F80A491448C1
:10273000FFF7D0F808491448FFF7CCF80A2004F056
:1027400063FA00BF3437BD46F0BD00BFAFF3008071
:102750001F85EB51B81E09403C02002030000020CC
:102760003C00002000003443080000200C0400203E
:10277000980200208C02002008050020A8040020F8
:102780007C0300209C0400201804002080B582B047
:1027900000AF7860391D4FF0FF330122034803F08A
:1027A00017FB7B6818460837BD4680BDC004002073
:1027B00080B582B002AF04F0CDF800F0A9F800F0C7
:1027C00045F900F0EBF800F017F9404801F03AF94C
:1027D000FFF7C8FB00224FF400513D4801F08CFC8C
:1027E0004FF47A7004F018F93A4B0ECB3A48FEF7E2
:1027F00087FE3A4B0ECB3A48FEF782FE394B0ECBA2
:102800003948FEF77DFE394B0ECB3948FEF778FE8E
:1028100038493148FEF78AFE36493148FEF786FED0
:1028200034493148FEF782FE32493148FEF77EFED8
:1028300030492948FFF74EF82E492948FFF74AF852
:102840002C492948FFF746F82A492948FFF742F85A
:102850004FF47A7004F0E0F8274B0193274B009374
:10286000012301226821194800F022FB0346012BB5
:1028700014D101224FF40051154801F03DFC2048CD
:1028800004F01EFA1F4804F01BFA40F2DC510F4816
:1028900000F0DAFC1C4804F013FA0BE01B4804F0CB
:1028A0000FFA4FF400510A4801F03EFCFA2004F000
:1028B000B3F8F6E7054800F03BFDFFF7C5FC4FF421
:1028C0000051034801F030FCF4E700BF280300206A
:1028D000001001400C040020980200208C0200200F
:1028E00008050020A80400207C0300209C04002090
:1028F000180400203C0200206F12833B48E17A3F1D
:1029000058A0000870A0000884A0000868A0000873
:1029100080B590B000AF07F11803282200211846B7
:1029200004F0AEFA3B1D00221A605A609A60DA6029
:102930001A610123BB614FF48033FB6100233B62CA
:102940000123BB6202237B634FF48033BB634FF4EC
:10295000E013FB6307F11803184602F0D9FD0346A4
:10296000002B01D000F0DEF80F237B600223BB6058
:102970000023FB604FF480633B6100237B613B1DC0
:102980000221184603F046F80346002B01D000F060
:10299000C9F800BF4037BD4680BD000080B500AF1C
:1029A000124B134A1A60114B124A5A600F4B002205
:1029B0009A600E4B0022DA600C4B4FF480421A6191
:1029C0000A4B00225A61094B00229A61074B0022F0
:1029D000DA61064B00221A62044801F0BFFB03468D
:1029E000002B01D000F09EF800BF80BD280300201E
:1029F00000540040A086010080B500AF114B124A80
:102A00001A60104B4FF4E1325A600E4B00229A606C
:102A10000C4B0022DA600B4B00221A61094B0C228E
:102A20005A61084B00229A61064B0022DA61054880
:102A300003F07EF90346002B01D000F073F800BFCD
:102A400080BD00BFC00400200044004080B588B0B5
:102A500000AF07F1100300221A605A609A60DA6032
:102A6000244B9B69234A43F010039361214B9B69DC
:102A700003F01003FB60FB681E4B9B691D4A43F08B
:102A8000200393611B4B9B6903F02003BB60BB6871
:102A9000184B9B69174A43F004039361154B9B69DC
:102AA00003F004037B607B68124B9B69114A43F07F
:102AB000080393610F4B9B6903F008033B603B687D
:102AC00000224FF400510C4801F016FB4FF4005364
:102AD0003B6101237B610023BB610223FB6107F1A2
:102AE00010031946044801F083F900BF2037BD46A2
:102AF00080BD00BF001002400010014080B483B0D0
:102B000000AF786000BF00BF0C37BD4680BC704787
:102B100080B483B000AF786000BF00BF0C37BD4603
:102B200080BC704780B400AF72B600BFFEE7000003
:102B300080B485B000AF154B9B69144A43F0010384
:102B40009361124B9B6903F00103BB60BB680F4BA1
:102B5000DB690E4A43F08053D3610C4BDB6903F011
:102B600080537B607B680A4B5B68FB60FB6823F0EB
:102B7000E063FB60FB6843F00073FB60044AFB68A2
:102B8000536000BF1437BD4680BC70470010024040
:102B90000000014080B588B000AF786007F11003F5
:102BA00000221A605A609A60DA607B681B68154AD6
:102BB000934223D1144B9B69134A43F0080393615A
:102BC000114B9B6903F00803FB60FB68C0233B616A
:102BD00012237B610323FB6107F1100319460B48A5
:102BE00001F006F9084BDB69074A43F40013D3618F
:102BF000054BDB6903F40013BB60BB6800BF2037E3
:102C0000BD4680BD0054004000100240000C014051
:102C100080B588B000AF786007F1100300221A6019
:102C20005A609A60DA607B681B681F4A934237D10A
:102C30001E4BDB691D4A43F40033D3611B4BDB6938
:102C400003F40033FB60FB68184B9B69174A43F0A1
:102C500004039361154B9B6903F00403BB60BB68DD
:102C600004233B6102237B610323FB6107F1100313
:102C700019460F4801F0BCF808233B6100237B6133
:102C80000023BB6107F110031946094801F0B0F8B1
:102C900000220021262000F0C2FF262000F0DBFFEA
:102CA00000BF2037BD4680BD0044004000100240F8
:102CB0000008014080B400AFFEE780B400AFFEE73B
:102CC00080B400AFFEE780B400AFFEE780B400AF91
:102CD000FEE780B400AF00BFBD4680BC704780B443
:102CE00000AF00BFBD4680BC704780B400AF00BFDE
:102CF000BD4680BC704780B500AF03F071FE00BFD9
:102D000080BD000080B500AF024803F0E5F800BFC9
:102D100080BD00BFC004002080B586B000AFF86061
:102D2000B9607A6000237B610AE0AFF3008001465E
:102D3000BB685A1CBA60CAB21A707B6901337B61E6
:102D40007A697B689A42F0DB7B6818461837BD4683
:102D500080BD80B586B000AFF860B9607A600023AE
:102D60007B6109E0BB685A1CBA601B781846FFF704
:102D70000DFD7B6901337B617A697B689A42F1DBE7
:102D80007B6818461837BD4680BD80B483B000AF5D
:102D900078604FF0FF3318460C37BD4680BC704753
:102DA00080B483B000AF786039603B684FF4005264
:102DB0005A60002318460C37BD4680BC704780B46B
:102DC00083B000AF7860012318460C37BD4680BC45
:102DD000704780B485B000AFF860B9607A600023B6
:102DE00018461437BD4680BC7047000080B586B0D9
:102DF00000AF7860144A154BD31A7B617B693B6145
:102E0000134B1B68002B02D1114B124A1A60104B56
:102E10001A687B6813443A699A4207D204F07EF834
:102E200003460C221A604FF0FF3309E0084B1B6881
:102E3000FB60074B1A687B681344054A1360FB6804
:102E400018461837BD4680BD005000200004000021
:102E5000D4000020A805002080B400AF00BFBD460C
:102E600080BC7047FFF7F8FF0B480C490C4A002361
:102E700002E0D458C4500433C4188C42F9D3094A30
:102E8000094C002301E013600432A242FBD304F09A
:102E90004BF8FFF78DFC704700000020B8000020C1
:102EA00050A30008B8000020A8050020FEE700009D
:102EB00080B588B004AF7860084611461A460346CC
:102EC000FB700B46BB7013467B70FB785B00DAB27D
:102ED000204B1A70204ABB691360204AFB691360BB
:102EE0001C4B1B7899B24FF47A7302930123019320
:102EF00007F10F03009301237522786801F06AFC43
:102F0000FB7B712B02D0FB7B682B1DD10023BB7395
:102F1000104B1B7899B24FF47A73029301230193FB
:102F200007F10E03009301236B22786801F058FB30
:102F3000BB781946786800F013F87B7819467868F2
:102F400000F09EF8012300E0002318461037BD462C
:102F500080BD00BF840500208C050020980500205E
:102F600080B588B004AF78600B46FB70FB78032B0C
:102F700066D801A252F823F0892F0008B72F000865
:102F8000E52F0008133000083B4B4FF08D421A60CC
:102F90000023FB73394B1B7899B24FF47A73029379
:102FA0000123019307F10F03009301231C2278688A
:102FB00001F016FB5BE0304B4FF08C421A600823A7
:102FC000FB732E4B1B7899B24FF47A730293012353
:102FD000019307F10F03009301231C22786801F08D
:102FE000FFFA44E0244B4FF08B421A601023FB732E
:102FF000224B1B7899B24FF47A7302930123019309
:1030000007F10F03009301231C22786801F0E8FA0E
:103010002DE0194B4FF08A421A601823FB73174BAF
:103020001B7899B24FF47A7302930123019307F14D
:103030000F03009301231C22786801F0D1FA16E0F7
:103040000D4B4FF08C421A600823FB730B4B1B781F
:1030500099B24FF47A7302930123019307F10F039E
:10306000009301231C22786801F0BAFA00BF00BF68
:103070001037BD4680BD00BF9405002084050020A8
:1030800080B588B004AF78600B46FB70FB78032BEB
:1030900062D801A252F823F0A9300008D530000808
:1030A000013100082D310008384B394A1A600023DD
:1030B000FB73384B1B7899B24FF47A730293012358
:1030C000019307F10F03009301231B22786801F09D
:1030D00087FA57E02D4B304A1A600823FB732D4BBB
:1030E0001B7899B24FF47A7302930123019307F18D
:1030F0000F03009301231B22786801F071FA41E06D
:10310000224B264A1A601023FB73224B1B7899B27C
:103110004FF47A7302930123019307F10F03009395
:1031200001231B22786801F05BFA2BE0174B1C4A45
:103130001A601823FB73174B1B7899B24FF47A73FC
:1031400002930123019307F10F03009301231B2234
:10315000786801F045FA15E00C4B0F4A1A60082315
:10316000FB730C4B1B7899B24FF47A7302930123D3
:10317000019307F10F03009301231B22786801F0EC
:103180002FFA00BF00BF1037BD4680BD8805002064
:1031900000000343840500200000834233330342D0
:1031A0003333834180B58AB004AF7860244B1B78F9
:1031B00099B24FF47A7302930E23019307F1080337
:1031C000009301233B22786801F004FB3B7A1B0249
:1031D0001AB27B7A1BB213431AB21A4B1A80BB7A0B
:1031E0001B021AB2FB7A1BB213431AB2154B5A8058
:1031F0003B7B1B021AB27B7B1BB213431AB2114BEF
:103200009A803B7C1B021AB27B7C1BB213431AB21E
:103210000C4BDA80BB7C1B021AB2FB7C1BB2134343
:103220001AB2084B1A813B7D1B021AB27B7D1BB27E
:1032300013431AB2034B5A8100BF1837BD4680BDF5
:10324000840500209004002090B587B000AF78601E
:103250000B467B8000237B6100233B610023FB60E6
:103260007B88002B01D101237B8000237B811DE023
:103270007868FFF797FF2B4BB3F906301A467B6946
:1032800013447B61274BB3F908301A463B6913445A
:103290003B61244BB3F90A301A46FB681344FB60C8
:1032A000032003F0B9FB7B8901337B817A897B881A
:1032B0009A42DDD37869FDF7CBFC04467B8818463B
:1032C000FDF7C2FC034619462046FDF7C9FD03463B
:1032D0001A46154B1A603869FDF7BAFC04467B881C
:1032E0001846FDF7B1FC034619462046FDF7B8FD28
:1032F00003461A460C4B5A60F868FDF7A9FC0446D1
:103300007B881846FDF7A0FC034619462046FDF7CA
:10331000A7FD03461A46044B9A6000BF1C37BD4602
:1033200090BD00BF90040020B40400200000000005
:10333000B0B586B000AF78607868FFF733FFB04B68
:10334000B3F900301846FDF783FC0246AD4B1B680D
:1033500019461046FDF784FD03461A46AA4B1A602B
:10336000A74BB3F902301846FDF772FC0246A54B95
:103370001B6819461046FDF773FD03461A46A24B1B
:103380005A609F4BB3F904301846FDF761FC0246C2
:103390009C4B1B6819461046FDF762FD03461A4612
:1033A000994B9A60994B1B681846FDF735F890A326
:1033B000D3E90023FDF788F802460B4614461D4664
:1033C0008F4BB3F906301846FDF714F88AA3D3E9FA
:1033D0000023FDF779F802460B4620462946FCF704
:1033E000BDFE02460B4614461D46894B1B68184617
:1033F000FDF712F880A3D3E90023FDF765F8024634
:103400000B4620462946FCF7A9FE02460B4610460D
:103410001946FDF713FB03467B61012003F0FCFA1C
:10342000774BB3F906301846FDF712FC0346784A8D
:103430001360764A7B691360764B1B681846FCF76D
:10344000EBFF6BA3D3E90023FDF73EF802460B46E2
:1034500014461D466A4BB3F908301846FCF7CAFFFC
:1034600065A3D3E90023FDF72FF802460B4620465B
:103470002946FCF773FE02460B4614461D46664B72
:103480001B681846FCF7C8FF5BA3D3E90023FDF7D0
:103490001BF802460B4620462946FCF75FFE024613
:1034A0000B4610461946FDF7C9FA03463B61012059
:1034B00003F0B2FA524BB3F908301846FDF7C8FBD7
:1034C0000346554A1360534A3B691360534B1B68CC
:1034D0001846FCF7A1FF46A3D3E90023FCF7F4FF4D
:1034E00002460B4614461D46454BB3F90A301846B2
:1034F000FCF780FF40A3D3E90023FCF7E5FF024679
:103500000B4620462946FCF729FE02460B46144688
:103510001D46434B1B681846FCF77EFF36A3D3E9D4
:103520000023FCF7D1FF02460B4620462946FCF754
:1035300015FE02460B4610461946FDF77FFA034674
:10354000FB60012003F068FA2D4BB3F90A301846EE
:10355000FDF77EFB0346324A1360304AFB68136076
:10356000304B1B6819467869FDF7BCFA03461A46CA
:10357000254BDA602B4B5B6819463869FDF7B2FAC8
:1035800003461A46204B1A61264B9B681946F86879
:10359000FDF7A8FA03461A461B4B5A611A4BDB6823
:1035A000214A126811461846FDF75AFC03461A468E
:1035B000154BDA60144B1B691B4A126811461846FA
:1035C000FDF74EFC03461A460F4B1A610E4B5B6922
:1035D000154A126811461846FDF742FC03461A4682
:1035E000094B5A6100BF1837BD46B0BDAFF300802C
:1035F000355EBA490C02EF3F5839B4C876BE8F3FEA
:103600009004002094050020F4030020DC0000203A
:10361000D8000020E4000020E0000020EC000020A2
:10362000E8000020B40400208805002080B588B0A0
:1036300004AF0346FB710B46BB7113467B717B796C
:10364000002B01D001237B71244B1868FB799AB2BF
:103650000A2302930123019307F10F03009301232F
:10366000802101F0B7F80346002B01D0012331E09F
:10367000BB79012202FA03F35BB263F07F035BB212
:10368000DB435AB2FB7B5BB213405BB2DBB2FB7332
:103690007B7903F00102BB7902FA03F35AB2FB7B98
:1036A0005BB213435BB2DBB2FB730C4B1868FB7964
:1036B0009AB20A2302930123019307F10F030093A7
:1036C0000123802100F08CFF0346002B01D0012351
:1036D00000E0002318461037BD4680BDA00500203D
:1036E00080B584B002AF0623FB71094B1868FA1D40
:1036F0000A2300930123002100F074FE0346002BEF
:1037000001D1002300E0012318460837BD4680BDE3
:10371000A005002080B582B000AF0346FB71FB79A5
:103720001A4604210020FFF781FF03461846083798
:10373000BD4680BD80B582B000AF0346FB71FB790A
:103740001A4607210020FFF771FF03461846083785
:10375000BD4680BD80B582B000AF0346FB71FB79EA
:103760001A4605210020FFF761FF03461846083777
:10377000BD4680BD0000000080B588B004AF0346A0
:10378000FB80FB8840F2F552934202D90323FB727F
:1037900041E0FB88182B02D8FF23FB723BE0FB883B
:1037A0001846FDF751FA03461846FCF735FE4FF070
:1037B0000002294BFCF788FE02460B4624A1D1E902
:1037C0000001FCF7ABFF02460B46104619464FF0CE
:1037D0000002224BFCF7C0FC02460B46104619467D
:1037E000FDF72CF90346FB60F868FCF715FE4FF077
:1037F00000021B4BFCF7B2FC02460B461046194672
:1038000004F0BEFB02460B4610461946FDF7F6F8DB
:103810000346DBB2FB720120FFF77CFF114B1868F7
:103820000A2302930123019307F10B030093012361
:10383000FE22802100F0D4FE0020FFF76BFF012064
:10384000FFF778FF002318461037BD4680BD00BF44
:103850000000000084D777410000B0400000F03F36
:103860000000E03FA005002080B588B004AF03460B
:10387000FB710B46BB8013467B80FB799B00DBB260
:103880000633FB73BB88DBB23B72BB881B0A9BB25F
:10389000DBB27B727B88DBB2BB727B881B0A9BB27C
:1038A000DBB2FB720C4B1868FB7B9AB20A230293C3
:1038B0000423019307F1080300930123802100F002
:1038C0008FFE0346002B01D0012300E000231846A1
:1038D0001037BD4680BD00BFA005002080B582B076
:1038E00000AF0346FB710B46BB801346BB71BB8820
:1038F000B3F5805F02D340F6FF73BB80BB79002B2A
:1039000025D0BB88002B08D1FB7900224FF48051D1
:103910001846FFF7A9FF03463AE0BB8840F6FF725E
:10392000934208D1FB794FF4805200211846FFF7EB
:103930009BFF03462CE0BB88C3F57F630F339AB22D
:10394000FB7900211846FFF78FFF034620E0BB8874
:1039500040F6FF72934208D1FB7900224FF4805168
:103960001846FFF781FF034612E0BB88002B08D101
:10397000FB794FF4805200211846FFF775FF03468C
:1039800006E0BA88FB7900211846FFF76DFF034671
:1039900018460837BD4680BD80B584B000AF0346E9
:1039A0003960FB714FF000013868FDF743FB0346B7
:1039B000002B02D04FF000033B601F493868FDF731
:1039C00057FB0346002B01D01B4B3B603868FCF7CC
:1039D00023FD17A3D3E90023FCF776FD02460B462F
:1039E000104619464FF00002144BFCF797FE0246B2
:1039F0000B46104619464FF00002114BFCF7AEFB88
:103A000002460B4610461946FDF718F80346FB60C0
:103A1000F868FDF773FB034699B2FB79002218465C
:103A2000FFF75CFF034618461037BD4680BD00BF58
:103A300000000000006078400000344300806640D1
:103A400000805B4080B582B000AF7860074A7B6839
:103A50001360FFF745FE3020FFF78EFE0120FFF7D1
:103A600079FE002318460837BD4680BDA00500201A
:103A700080B485B000AF78607B6803F00703FB601B
:103A80000C4BDB68BB60BA684FF6FF031340BB60AA
:103A9000FB681A02BB68134343F0BF6343F400336F
:103AA000BB60044ABB68D36000BF1437BD4680BC0E
:103AB000704700BF00ED00E080B400AF044BDB684E
:103AC0001B0A03F007031846BD4680BC704700BFC1
:103AD00000ED00E080B483B000AF0346FB7197F9BE
:103AE0000730002B0BDBFB7903F01F02064997F927
:103AF00007305B09012000FA02F241F8232000BFE1
:103B00000C37BD4680BC704700E100E080B483B054
:103B100000AF03463960FB7197F90730002B0ADBD1
:103B20003B68DAB20C4997F907301201D2B20B4464
:103B300083F800230AE03B68DAB20849FB7903F016
:103B40000F03043B1201D2B20B441A7600BF0C37AC
:103B5000BD4680BC704700BF00E100E000ED00E022
:103B600080B489B000AFF860B9607A60FB6803F098
:103B70000703FB61FB69C3F10703042B28BF042380
:103B8000BB61FB690433062B02D9FB69033B00E0F0
:103B900000237B614FF0FF32BB6902FA03F3DA4383
:103BA000BB681A407B699A404FF0FF317B6901FA8C
:103BB00003F3D9437B680B40134318462437BD46B3
:103BC00080BC704780B582B000AF78607B68013BF5
:103BD000B3F1807F01D301230FE00A4A7B68013BE8
:103BE00053600F214FF0FF30FFF790FF054B00228D
:103BF0009A60044B07221A60002318460837BD4616
:103C000080BD00BF10E000E080B582B000AF7860FA
:103C10007868FFF72DFF00BF0837BD4680BD80B52F
:103C200086B000AF0346B9607A60FB7300237B6106
:103C3000FFF742FF78617A68B9687869FFF790FF0B
:103C4000024697F90F3011461846FFF75FFF00BF95
:103C50001837BD4680BD80B582B000AF0346FB710A
:103C600097F907301846FFF735FF00BF0837BD4604
:103C700080BD80B582B000AF78607868FFF7A2FFA2
:103C8000034618460837BD4680BD80B485B000AFF6
:103C900078600023FB737B6893F82130DBB2022B42
:103CA00008D07B6804229A637B68002283F8202076
:103CB000012320E07B681B681A687B681B6822F080
:103CC0000E021A607B681B681A687B681B6822F00A
:103CD00001021A607B681A6C7B68DB6B012101FAB8
:103CE00002F25A607B68012283F821207B6800225F
:103CF00083F82020FB7B18461437BD4680BC7047F4
:103D000080B584B000AF78600023FB737B6893F8C4
:103D10002130DBB2022B05D07B6804229A63012399
:103D2000FB7351E07B681B681A687B681B6822F094
:103D30000E021A607B681B681A687B681B6822F099
:103D400001021A607B681B68224A934229D07B6873
:103D50001B68214A934222D07B681B681F4A93420A
:103D60001AD07B681B681E4A934212D07B681B687E
:103D70001C4A93420AD07B681B681B4A934202D1BB
:103D80004FF480130EE04FF080730BE04FF480335C
:103D900008E04FF4805305E04FF4807302E01023F5
:103DA00000E00123114A53607B68012283F821203F
:103DB0007B68002283F820207B685B6B002B03D09C
:103DC0007B685B6B78689847FB7B18461037BD466D
:103DD00080BD00BF080002401C00024030000240CD
:103DE00044000240580002406C00024000000240C3
:103DF00080B48BB000AF7860396000237B62002311
:103E00003B6269E101227B6A02FA03F3FB613B68D2
:103E10001B68FA691340BB61BA69FB699A4240F0BA
:103E200058813B685B689A4A93425ED0984A9342B5
:103E300075D8984A934258D0964A93426FD8964A7A
:103E4000934252D0944A934269D8944A93424CD0B8
:103E5000924A934263D8924A934246D0904A934200
:103E60005DD8122B2AD8122B59D801A252F823F070
:103E7000EB3E0008C53E0008D73E0008193F000889
:103E80001F3F00081F3F00081F3F00081F3F00089A
:103E90001F3F00081F3F00081F3F00081F3F00088A
:103EA0001F3F00081F3F00081F3F00081F3F00087A
:103EB0001F3F0008CD3E0008E13E0008794A9342CA
:103EC00013D02CE03B68DB683B6229E03B68DB6891
:103ED00004333B6224E03B68DB6808333B621FE04D
:103EE0003B68DB680C333B621AE03B689B68002B45
:103EF00002D104233B6213E03B689B68012B05D190
:103F000008233B627B68FA691A6109E008233B6277
:103F10007B68FA695A6103E000233B6200E000BF5E
:103F2000BB69FF2B01D87B6801E07B6804337B61B0
:103F3000BB69FF2B02D87B6A9B0002E07B6A083BCF
:103F40009B003B617B691A680F213B6901FA03F30F
:103F5000DB431A40396A3B6901FA03F31A437B6970
:103F60001A603B685B6803F08053002B00F0B1805F
:103F70004D4B9B694C4A43F0010393614A4B9B694B
:103F800003F00103BB60BB68484A7B6A9B080233AD
:103F900052F82330FB607B6A03F003039B000F227F
:103FA00002FA03F3DB43FA681340FB607B68404A84
:103FB000934213D07B683F4A93420DD07B683E4AC0
:103FC000934207D07B683D4A934201D1032306E028
:103FD000042304E0022302E0012300E000237A6AC4
:103FE00002F0030292009340FA681343FB602F49EA
:103FF0007B6A9B080233FA6841F823203B685B68C0
:1040000003F48013002B06D02D4B9A682C49BB6912
:1040100013438B6006E02A4B9A68BB69DB4328494F
:1040200013408B603B685B6803F40013002B06D0E1
:10403000234BDA682249BB691343CB6006E0204B6F
:10404000DA68BB69DB431E491340CB603B685B68A1
:1040500003F40033002B06D0194B5A681849BB698A
:1040600013434B6006E0164B5A68BB69DB431449A7
:1040700013404B603B685B6803F48033002B21D016
:104080000F4B1A680E49BB6913430B6021E000BF58
:10409000000032100000311000002210000021103A
:1040A000000012100000111000100240000001403A
:1040B00000080140000C01400010014000140140C4
:1040C000000401400B4B1A68BB69DB4309491340EC
:1040D0000B607B6A01337B623B681A687B6A22FA59
:1040E00003F3002B7FF48EAE00BF00BF2C37BD461C
:1040F00080BC70470004014080B483B000AF78609A
:104100000B467B8013467B707B78002B03D07A882C
:104110007B681A6103E07B881A047B681A6100BF20
:104120000C37BD4680BC704780B485B000AF786066
:104130000B467B807B68DB68FB607A88FB681340FA
:104140001A04FB68D9437B880B401A437B681A61C9
:1041500000BF1437BD4680BC7047000080B584B0F6
:1041600000AF78607B68002B01D101232BE17B68D5
:1041700093F83D30DBB2002B06D17B68002283F838
:104180003C207868FEF706FD7B68242283F83D20FA
:104190007B681B681A687B681B6822F001021A6042
:1041A0007B681B681A687B681B6842F400421A60CF
:1041B0007B681B681A687B681B6822F400421A60DF
:1041C00001F070FDF8607B685B68814A934207D814
:1041D000FB68804A934294BF01230023DBB206E0D0
:1041E000FB687D4A934294BF01230023DBB2002B7E
:1041F00001D00123E7E0FB68784AA2FB03239B0C74
:10420000BB607B681B685B6823F03F017B681B68B1
:10421000BA680A435A607B681B681B6A23F03F0137
:104220007B685B686A4A934202D8BB68013309E045
:10423000BB684FF4967202FB03F3694AA2FB0323A7
:104240009B0901337A6812680B4313627B681B6811
:10425000DB6923F44F4222F0FF027B685B685C4914
:104260008B4219D8FB68591E7B685B685B00B1FB09
:10427000F3F3591C40F6FC730B40002B0AD0FB688B
:10428000591E7B685B685B00B1FBF3F30133C3F33A
:104290000B0351E004234FE07B689B68002B11D196
:1042A000FB68581E7B6859680B465B000B44B0FBEB
:1042B000F3F30133C3F30B03002B0CBF01230023E3
:1042C000DBB212E0FB68581E7B6859680B469B0006
:1042D0000B4499000B44B0FBF3F30133C3F30B031E
:1042E000002B0CBF01230023DBB2002B01D00123E4
:1042F00022E07B689B68002B0ED1FB68581E7B6810
:1043000059680B465B000B44B0FBF3F30133C3F376
:104310000B0343F400430FE0FB68581E7B685968A9
:104320000B469B000B4499000B44B0FBF3F30133A5
:10433000C3F30B0343F44043796809681343CB612B
:104340007B681B681B6823F0C0017B68DA697B68A7
:104350001B6A1A437B681B680A431A607B681B68E8
:104360009B6823F4034323F0FF037A6811697A689A
:10437000D26811437A6812680B4393607B681B68AC
:10438000DB6823F0FF017B685A697B689B691A43ED
:104390007B681B680A43DA607B681B681A687B6865
:1043A0001B6842F001021A607B6800221A647B6875
:1043B000202283F83D207B6800221A637B6800225C
:1043C00083F83E20002318461037BD4680BD00BF4D
:1043D000A08601007F841E00FF083D0083DE1B4392
:1043E000D34D621080B588B002AFF8607A601A468B
:1043F0000B467B8113463B8102F004FB7861FB682E
:1044000093F83D30DBB2202B40F0E0807B690093D5
:10441000192301227049F86800F044FE0346002B7E
:1044200001D00223D3E0FB6893F83C30012B01D18B
:104430000223CCE0FB68012283F83C20FB681B6868
:104440001B6803F00103012B07D0FB681B681A6887
:10445000FB681B6842F001021A60FB681B681A685F
:10446000FB681B6822F400621A60FB68212283F853
:104470003D20FB68102283F83E20FB6800221A646E
:10448000FB687A685A62FB683A895A85FB685B8DDB
:104490009AB2FB681A85FB68504ADA6279897B69AF
:1044A0003A6AF86800F0FEFB0346002B01D00123B6
:1044B0008DE000233B61FB681B685B693B61FB6827
:1044C0001B689B693B613B6966E07A69396AF868F9
:1044D00000F002FF0346002B0DD0FB681B6C042B81
:1044E00007D1FB681B681A68FB681B6842F40072FE
:1044F0001A6001236BE0FB685B6A1A78FB681B6833
:104500001A61FB685B6A5A1CFB685A62FB685B8D28
:104510009BB2013B9AB2FB685A85FB681B8D013B3D
:104520009AB2FB681A85FB681B685B6903F0040399
:10453000042B1BD1FB681B8D002B17D0FB685B6A1B
:104540001A78FB681B681A61FB685B6A5A1CFB6877
:104550005A62FB685B8D9BB2013B9AB2FB685A853D
:10456000FB681B8D013B9AB2FB681A857A69396A30
:10457000F86800F0F9FE0346002B0DD0FB681B6CB9
:10458000042B07D1FB681B681A68FB681B6842F4A0
:1045900000721A6001231AE0FB681B8D002B94D176
:1045A000FB681B681A68FB681B6842F400721A609B
:1045B000FB68202283F83D20FB68002283F83E2020
:1045C000FB68002283F83C20002300E00223184609
:1045D0001837BD4680BD00BF020010000000FFFF7D
:1045E00080B588B002AFF860084611461A46034607
:1045F0007B810B463B811346FB8002F003FA786116
:10460000FB6893F83D30DBB2202B40F0D9807B690A
:104610000093192301226D49F86800F043FD034619
:10462000002B01D00223CCE0FB6893F83C30012B37
:1046300001D10223C5E0FB68012283F83C20FB681E
:104640001B681B6803F00103012B07D0FB681B6884
:104650001A68FB681B6842F001021A60FB681B685D
:104660001A68FB681B6822F400621A60FB6821224A
:1046700083F83D20FB68402283F83E20FB6800223F
:104680001A64FB683A6A5A62FB68BA8C5A85FB68FE
:104690005B8D9AB2FB681A85FB684D4ADA62F8882E
:1046A0003A8979897B690193BB6A00930346F8686C
:1046B00000F07AFB0346002B52D0012381E07A6997
:1046C000B96AF86800F008FE0346002B0DD0FB68BD
:1046D0001B6C042B07D1FB681B681A68FB681B68FE
:1046E00042F400721A6001236BE0FB685B6A1A787F
:1046F000FB681B681A61FB685B6A5A1CFB685A629C
:10470000FB681B8D013B9AB2FB681A85FB685B8DC9
:104710009BB2013B9AB2FB685A85FB681B685B69D8
:1047200003F00403042B1BD1FB681B8D002B17D057
:10473000FB685B6A1A78FB681B681A61FB685B6A36
:104740005A1CFB685A62FB681B8D013B9AB2FB68DE
:104750001A85FB685B8D9BB2013B9AB2FB685A8558
:10476000FB681B8D002BAAD17A69B96AF86800F042
:10477000FBFD0346002B0DD0FB681B6C042B07D1FF
:10478000FB681B681A68FB681B6842F400721A60B9
:10479000012316E0FB681B681A68FB681B6842F47B
:1047A00000721A60FB68202283F83D20FB6800221B
:1047B00083F83E20FB68002283F83C20002300E0C1
:1047C000022318461837BD4680BD00BF0200100006
:1047D0000000FFFF80B58CB002AFF86008461146BC
:1047E0001A4603467B810B463B811346FB80002320
:1047F0003B6202F007F97862FB6893F83D30DBB268
:10480000202B40F044827B6A0093192301228249C5
:10481000F86800F047FC0346002B01D0022337E282
:10482000FB6893F83C30012B01D1022330E2FB6896
:10483000012283F83C20FB681B681B6803F001031E
:10484000012B07D0FB681B681A68FB681B6842F0E5
:1048500001021A60FB681B681A68FB681B6822F477
:1048600000621A60FB68222283F83D20FB68402228
:1048700083F83E20FB6800221A64FB683A6B5A6298
:10488000FB68BA8E5A85FB685B8D9AB2FB681A8505
:10489000FB68624ADA62F8883A8979897B6A01930F
:1048A000BB6B00930346F86800F014FB0346002B33
:1048B00001D00123ECE1FB681B8D002B13D10023F9
:1048C000FB61FB681B685B69FB61FB681B689B699C
:1048D000FB61FB69FB681B681A68FB681B6842F494
:1048E00000721A60C0E1FB681B8D012B1ED1FB68B2
:1048F0001B681A68FB681B6822F480621A6072B633
:1049000000BF0023BB61FB681B685B69BB61FB6880
:104910001B689B69BB61BB69FB681B681A68FB6805
:104920001B6842F400721A6062B635E0FB681B8DAA
:10493000022B1ED1FB681B681A68FB681B6842F4D7
:1049400000621A6072B600BF00237B61FB681B68BF
:104950005B697B61FB681B689B697B617B69FB68AA
:104960001B681A68FB681B6822F480621A6062B6D2
:1049700012E0FB681B681A68FB681B6842F48062DF
:104980001A6000233B61FB681B685B693B61FB6845
:104990001B689B693B613B6966E1FB681B8D032BD0
:1049A00000F21F81FB681B8D012B23D17A6AB96B42
:1049B000F86800F021FD0346002B01D0012367E1D8
:1049C000FB681B681A69FB685B6AD2B21A70FB68E5
:1049D0005B6A5A1CFB685A62FB681B8D013B9AB2EA
:1049E000FB681A85FB685B8D9BB2013B9AB2FB6842
:1049F0005A8539E1FB681B8D022B52D17B6A0093EB
:104A0000BB6B00220649F86800F04CFB0346002B04
:104A100008D001233CE100BF020010000000FFFFAE
:104A20000400010072B600BFFB681B681A68FB68CF
:104A30001B6842F400721A60FB681B681A69FB6805
:104A40005B6AD2B21A70FB685B6A5A1CFB685A62D6
:104A5000FB681B8D013B9AB2FB681A85FB685B8D76
:104A60009BB2013B9AB2FB685A8562B600BFFB68F5
:104A70001B681A69FB685B6AD2B21A70FB685B6AD2
:104A80005A1CFB685A62FB681B8D013B9AB2FB689B
:104A90001A85FB685B8D9BB2013B9AB2FB685A8515
:104AA000E2E07B6A0093BB6B00227B49F86800F070
:104AB000F9FA0346002B01D00123E9E0FB681B68EB
:104AC0001A68FB681B6822F480621A6072B600BF25
:104AD000FB681B681A69FB685B6AD2B21A70FB68D4
:104AE0005B6A5A1CFB685A62FB681B8D013B9AB2D9
:104AF000FB681A85FB685B8D9BB2013B9AB2FB6831
:104B00005A85664B1B68DB08654AA2FB03231A0A19
:104B100013469B001344DA00D31A3B623B6A013B05
:104B20003B623B6A002B18D1FB6800221A63FB68CA
:104B3000202283F83D20FB68002283F83E20FB689A
:104B40001B6C43F02002FB681A6462B600BFFB686E
:104B5000002283F83C2001239AE0FB681B685B6914
:104B600003F00403042BD9D1FB681B681A68FB68A7
:104B70001B6842F400721A60FB681B681A69FB68C4
:104B80005B6AD2B21A70FB685B6A5A1CFB685A6295
:104B9000FB681B8D013B9AB2FB681A85FB685B8D35
:104BA0009BB2013B9AB2FB685A8562B600BFFB68B4
:104BB0001B681A69FB685B6AD2B21A70FB685B6A91
:104BC0005A1CFB685A62FB681B8D013B9AB2FB685A
:104BD0001A85FB685B8D9BB2013B9AB2FB685A85D4
:104BE00042E07A6AB96BF86800F006FC0346002BD5
:104BF00001D001234CE0FB681B681A69FB685B6A03
:104C0000D2B21A70FB685B6A5A1CFB685A62FB6876
:104C10001B8D013B9AB2FB681A85FB685B8D9BB2CA
:104C2000013B9AB2FB685A85FB681B685B6903F01D
:104C30000403042B18D1FB681B681A69FB685B6AC4
:104C4000D2B21A70FB685B6A5A1CFB685A62FB6836
:104C50001B8D013B9AB2FB681A85FB685B8D9BB28A
:104C6000013B9AB2FB685A85FB681B8D002B7FF4D1
:104C700094AEFB68202283F83D20FB68002283F875
:104C80003E20FB68002283F83C20002300E0022342
:104C900018462837BD4680BD0400010040000020B2
:104CA00089B5F81480B588B002AFF8607A603B60CF
:104CB0000B467B81FB68DB6A7B617B69082B06D036
:104CC0007B69012B03D07B6913F5803F08D1FB681A
:104CD0001B681A68FB681B6842F480721A600BE05C
:104CE000FB681B6B122B07D1FB681B681A68FB68FB
:104CF0001B6842F480721A603B6800937B68002254
:104D00004FF00111F86800F0CDF90346002B0DD0EB
:104D1000FB681B681B6803F48073B3F5807F03D1C5
:104D2000FB684FF400721A64032335E0FB681B69CB
:104D3000B3F5804F08D17B89DBB21A46FB681B684C
:104D400002F0FE021A611BE07B89DB11DBB203F08B
:104D50000603DBB263F00F03DAB2FB681B681A616B
:104D60003B687A680E49F86800F016FA0346002B93
:104D700001D0012310E07B89DAB2FB681B681A615D
:104D80003B687A680749F86800F006FA0346002B8A
:104D900001D0012300E0002318461837BD4680BD2E
:104DA000080001000200010080B588B002AFF86081
:104DB000084611461A4603467B810B463B81134643
:104DC000FB80FB681B681A68FB681B6842F48072F2
:104DD0001A607B6A00933B6A00224FF00111F86869
:104DE00000F060F90346002B0DD0FB681B681B68C0
:104DF00003F48073B3F5807F03D1FB684FF4007236
:104E00001A6403235FE07B89DBB21A46FB681B68E8
:104E100002F0FE021A617B6A3A6A2D49F86800F0D6
:104E2000BBF90346002B01D001234CE000237B613A
:104E3000FB681B685B697B61FB681B689B697B6126
:104E40007B697A6A396AF86800F046FA0346002BF3
:104E50000DD0FB681B6C042B07D1FB681B681A681C
:104E6000FB681B6842F400721A6001232BE0FB8888
:104E7000012B05D13B89DAB2FB681B681A6121E07E
:104E80003B891B0A9BB2DAB2FB681B681A617A6A1B
:104E9000396AF86800F020FA0346002B0DD0FB6851
:104EA0001B6C042B07D1FB681B681A68FB681B6826
:104EB00042F400721A60012305E03B89DAB2FB6814
:104EC0001B681A61002318461837BD4680BD00BF15
:104ED0000200010080B588B002AFF86008461146B4
:104EE0001A4603467B810B463B811346FB80FB68D9
:104EF0001B681A68FB681B6842F480621A60FB68D2
:104F00001B681A68FB681B6842F480721A607B6A2F
:104F100000933B6A00224FF00111F86800F0C2F8DC
:104F20000346002B0DD0FB681B681B6803F48073DD
:104F3000B3F5807F03D1FB684FF400721A6403233A
:104F4000AAE07B89DBB21A46FB681B6802F0FE020E
:104F50001A617B6A3A6A5249F86800F01DF9034603
:104F6000002B01D0012397E000237B61FB681B68C5
:104F70005B697B61FB681B689B697B617B697A6A03
:104F8000396AF86800F0A8F90346002B0DD0FB68D9
:104F90001B6C042B07D1FB681B681A68FB681B6835
:104FA00042F400721A60012376E0FB88012B05D1E0
:104FB0003B89DAB2FB681B681A6121E03B891B0A56
:104FC0009BB2DAB2FB681B681A617A6A396AF868C0
:104FD00000F082F90346002B0DD0FB681B6C042BFC
:104FE00007D1FB681B681A68FB681B6842F40072F3
:104FF0001A60012350E03B89DAB2FB681B681A6132
:105000007A6A396AF86800F067F90346002B0DD018
:10501000FB681B6C042B07D1FB681B681A68FB68D4
:105020001B6842F400721A60012335E0FB681B68BC
:105030001A68FB681B6842F480721A607B6A0093EE
:105040003B6A00224FF00111F86800F02BF803468C
:10505000002B0DD0FB681B681B6803F48073B3F54D
:10506000807F03D1FB684FF400721A64032313E0BE
:105070007B89DBB243F00103DAB2FB681B681A617B
:105080007B6A3A6A0649F86800F086F80346002B06
:1050900001D0012300E0002318461837BD4680BD2B
:1050A0000200010080B584B000AFF860B9603B60D9
:1050B0001346FB7148E03B68B3F1FF3F44D001F079
:1050C000A1FC0246BB69D31A3A689A4202D33B68F4
:1050D000002B39D1BB681B0CDBB2012B0DD1FB6857
:1050E0001B685B69DA43BB6813409BB2002B0CBFA3
:1050F00001230023DBB21A460CE0FB681B689B69A6
:10510000DA43BB6813409BB2002B0CBF0123002382
:10511000DBB21A46FB799A4216D1FB6800221A6369
:10512000FB68202283F83D20FB68002283F83E20A4
:10513000FB681B6C43F02002FB681A64FB680022CA
:1051400083F83C20012323E0BB681B0CDBB2012B5E
:105150000DD1FB681B685B69DA43BB6813409BB2E7
:10516000002B0CBF01230023DBB21A460CE0FB68C6
:105170001B689B69DA43BB6813409BB2002B0CBFD2
:1051800001230023DBB21A46FB799A4293D0002315
:1051900018461037BD4680BD80B584B000AFF860BA
:1051A000B9607A603B6071E0FB681B685B6903F47F
:1051B0008063B3F5806F23D1FB681B681A68FB68B6
:1051C0001B6842F400721A60FB681B686FF480620F
:1051D0005A61FB6800221A63FB68202283F83D2095
:1051E000FB68002283F83E20FB681B6C43F004023E
:1051F000FB681A64FB68002283F83C20012367E007
:105200007B68B3F1FF3F41D001F0FCFB02463B68F5
:10521000D31A7A689A4202D37B68002B36D1BB68D6
:105220001B0CDBB2012B0CD1FB681B685B69DA43FA
:10523000BB6813409BB2002B14BF01230023DBB2D9
:105240000BE0FB681B689B69DA43BB6813409BB2A9
:10525000002B14BF01230023DBB2002B16D0FB6808
:1052600000221A63FB68202283F83D20FB6800229D
:1052700083F83E20FB681B6C43F02002FB681A6435
:10528000FB68002283F83C20012321E0BB681B0C53
:10529000DBB2012B0CD1FB681B685B69DA43BB688E
:1052A00013409BB2002B14BF01230023DBB20BE0A1
:1052B000FB681B689B69DA43BB6813409BB2002BF9
:1052C00014BF01230023DBB2002B7FF46DAF00235A
:1052D00018461037BD4680BD80B584B000AFF86079
:1052E000B9607A6034E0F86800F0E3F80346002B18
:1052F00001D0012334E0BB68B3F1FF3F28D001F0B7
:1053000081FB02467B68D31ABA689A4202D3BB6813
:10531000002B1DD1FB681B685B6903F08003802BA9
:1053200016D0FB6800221A63FB68202283F83D2018
:10533000FB68002283F83E20FB681B6C43F02002D0
:10534000FB681A64FB68002283F83C20012307E015
:10535000FB681B685B6903F08003802BC3D10023CB
:1053600018461037BD4680BD80B584B000AFF860E8
:10537000B9607A6034E0F86800F09BF80346002BCF
:1053800001D0012334E0BB68B3F1FF3F28D001F026
:1053900039FB02467B68D31ABA689A4202D3BB68CB
:1053A000002B1DD1FB681B685B6903F00403042B11
:1053B00016D0FB6800221A63FB68202283F83D2088
:1053C000FB68002283F83E20FB681B6C43F0200240
:1053D000FB681A64FB68002283F83C20012307E085
:1053E000FB681B685B6903F00403042BC3D1002333
:1053F00018461037BD4680BD80B584B000AFF86058
:10540000B9607A6049E0FB681B685B6903F01003D0
:10541000102B19D1FB681B686FF010025A61FB68F2
:1054200000221A63FB68202283F83D20FB680022DB
:1054300083F83E20FB681A6CFB681A64FB68002244
:1054400083F83C20012330E001F0DCFA02467B685F
:10545000D31ABA689A4202D3BB68002B1DD1FB68ED
:105460001B685B6903F04003402B16D0FB680022E9
:105470001A63FB68202283F83D20FB68002283F832
:105480003E20FB681B6C43F02002FB681A64FB683B
:10549000002283F83C20012307E0FB681B685B695E
:1054A00003F04003402BAED1002318461037BD4611
:1054B00080BD80B483B000AF78607B681B685B6997
:1054C00003F48063B3F5806F1BD17B681B686FF4B6
:1054D00080625A617B6800221A637B68202283F80D
:1054E0003D207B68002283F83E207B681B6C43F0E4
:1054F00004027B681A647B68002283F83C20012345
:1055000000E0002318460C37BD4680BC7047000001
:1055100080B586B000AF78607B68002B01D1012395
:1055200072E27B681B6803F00103002B00F08780A8
:10553000924B5B6803F00C03042B0CD08F4B5B6821
:1055400003F00C03082B12D18C4B5B6803F48033FF
:10555000B3F5803F0BD1894B1B6803F40033002B5C
:105560006CD07B685B68002B68D101234CE27B68C0
:105570005B68B3F5803F06D1804B1B687F4A43F4DC
:10558000803313602EE07B685B68002B0CD17B4B73
:105590001B687A4A23F480331360784B1B68774A80
:1055A00023F4802313601DE07B685B68B3F5A02FB4
:1055B0000CD1724B1B68714A43F4802313606F4B0C
:1055C0001B686E4A43F4803313600BE06B4B1B681F
:1055D0006A4A23F480331360684B1B68674A23F4DC
:1055E000802313607B685B68002B13D001F00AFAFC
:1055F000386108E001F006FA02463B69D31A642BD1
:1056000001D9032300E25D4B1B6803F40033002B38
:10561000F0D014E001F0F6F9386108E001F0F2F999
:1056200002463B69D31A642B01D90323ECE1534BA7
:105630001B6803F40033002BF0D100E000BF7B684F
:105640001B6803F00203002B63D04C4B5B6803F034
:105650000C03002B0BD0494B5B6803F00C03082BA9
:105660001CD1464B5B6803F48033002B16D1434BAF
:105670001B6803F00203002B05D07B681B69012B1C
:1056800001D00123C0E13D4B1B6823F0F8027B6889
:105690005B69DB00394913430B603AE07B681B69A7
:1056A000002B20D0364B01221A6001F0ABF9386193
:1056B00008E001F0A7F902463B69D31A022B01D991
:1056C0000323A1E12D4B1B6803F00203002BF0D054
:1056D0002A4B1B6823F0F8027B685B69DB002749D3
:1056E00013430B6015E0264B00221A6001F08AF983
:1056F000386108E001F086F902463B69D31A022BB3
:1057000001D9032380E11D4B1B6803F00203002B2A
:10571000F0D17B681B6803F00803002B3AD07B684C
:105720009B69002B19D0174B01221A6001F06AF90E
:10573000386108E001F066F902463B69D31A022B92
:1057400001D9032360E10D4B5B6A03F00203002BD8
:10575000F0D0012000F0CEFA1CE00A4B00221A60C3
:1057600001F050F938610FE001F04CF902463B6955
:10577000D31A022B08D9032346E100BF00100240D0
:105780000000424280044242924B5B6A03F00203F3
:10579000002BE9D17B681B6803F00403002B00F0A9
:1057A000A6800023FB758B4BDB6903F08053002B35
:1057B0000DD1884BDB69874A43F08053D361854B19
:1057C000DB6903F08053BB60BB680123FB75824B30
:1057D0001B6803F48073002B18D17F4B1B687E4A33
:1057E00043F48073136001F00DF9386108E001F0B3
:1057F00009F902463B69D31A642B01D9032303E15B
:10580000754B1B6803F48073002BF0D07B68DB685A
:10581000012B06D16F4B1B6A6E4A43F001031362E2
:105820002DE07B68DB68002B0CD16A4B1B6A694A50
:1058300023F001031362674B1B6A664A23F00403DB
:1058400013621CE07B68DB68052B0CD1614B1B6A83
:10585000604A43F0040313625E4B1B6A5D4A43F0E7
:10586000010313620BE05B4B1B6A5A4A23F00103EE
:105870001362584B1B6A574A23F0040313627B6878
:10588000DB68002B15D001F0BDF838610AE001F0AB
:10589000B9F802463B69D31A41F28832934201D9E2
:1058A0000323B1E04B4B1B6A03F00203002BEED045
:1058B00014E001F0A7F838610AE001F0A3F802460D
:1058C0003B69D31A41F28832934201D903239BE00A
:1058D000404B1B6A03F00203002BEED1FB7D012B32
:1058E00005D13C4BDB693B4A23F08053D3617B6895
:1058F000DB69002B00F08780364B5B6803F00C03FC
:10590000082B61D07B68DB69022B46D1334B002228
:105910001A6001F077F8386108E001F073F8024688
:105920003B69D31A022B01D903236DE0294B1B6875
:1059300003F00073002BF0D17B681B6AB3F5803F46
:1059400008D1244B5B6823F400327B689B682149B3
:1059500013434B601F4B5B6823F474127B68196A16
:105960007B685B6A0B431B4913434B601B4B012253
:105970001A6001F047F8386108E001F043F8024688
:105980003B69D31A022B01D903233DE0114B1B685D
:1059900003F00073002BF0D035E0104B00221A60AA
:1059A00001F030F8386108E001F02CF802463B695C
:1059B000D31A022B01D9032326E0064B1B6803F000
:1059C0000073002BF0D11EE07B68DB69012B07D14F
:1059D000012319E0001002400070004060004242C4
:1059E0000B4B5B68FB60FB6803F480327B681B6ACF
:1059F0009A4206D1FB6803F470127B685B6A9A4294
:105A000001D0012300E0002318461837BD4680BDB1
:105A10000010024080B584B000AF786039607B68C8
:105A2000002B01D10123D0E06A4B1B6803F0070370
:105A30003A689A4210D9674B1B6823F00702654900
:105A40003B6813430B60634B1B6803F007033A6822
:105A50009A4201D00123B8E07B681B6803F002037F
:105A6000002B20D07B681B6803F00403002B05D0BB
:105A7000594B5B68584A43F4E06353607B681B688A
:105A800003F00803002B05D0534B5B68524A43F4E4
:105A900060535360504B5B6823F0F0027B689B6857
:105AA0004D4913434B607B681B6803F00103002BD7
:105AB00040D07B685B68012B07D1474B1B6803F420
:105AC0000033002B15D101237FE07B685B68022B3C
:105AD00007D1414B1B6803F00073002B09D1012350
