:020000040800F2
:10000000005000208D4100089D3F0008A33F0008DC
:10001000A93F0008AF3F0008B53F000800000000FE
:10002000000000000000000000000000BB3F0008CE
:10003000C73F000800000000D33F0008DF3F000872
:10004000D5410008D5410008D5410008D541000838
:10005000D5410008D5410008D5410008D541000828
:10006000D5410008D5410008D5410008D541000818
:10007000D5410008D5410008D5410008D541000808
:10008000D5410008D5410008D5410008D5410008F8
:10009000D5410008D5410008D5410008D5410008E8
:1000A000D5410008D5410008D5410008D5410008D8
:1000B000D5410008D5410008D5410008D5410008C8
:1000C000D5410008D5410008D5410008D5410008B8
:1000D000D5410008ED3F0008D5410008D541000892
:1000E000D5410008D5410008D541000800000000B6
:1000F0000000000000000000000000000000000000
:0C01000000000000000000005FF808F1A3
:1001100010B5054C237833B9044B13B10448AFF341
:1001200000800123237010BDC800002000000000E3
:10013000E4B9000808B5034B1BB103490348AFF30A
:10014000008008BD00000000CC000020E4B90008D9
:1001500081F0004102E000BF83F0004330B54FEA78
:1001600041044FEA430594EA050F08BF90EA020FE5
:100170001FBF54EA000C55EA020C7FEA645C7FEA78
:10018000655C00F0E2804FEA5454D4EB5555B8BF9B
:100190006D420CDD2C4480EA020281EA030382EA0C
:1001A000000083EA010180EA020281EA0303362D9E
:1001B00088BF30BD11F0004F4FEA01314FF4801C71
:1001C0004CEA113102D0404261EB410113F0004F83
:1001D0004FEA03334CEA133302D0524263EB43033A
:1001E00094EA050F00F0A780A4F10104D5F1200ED8
:1001F0000DDB02FA0EFC22FA05F2801841F1000133
:1002000003FA0EF2801843FA05F359410EE0A5F106
:1002100020050EF1200E012A03FA0EFC28BF4CF037
:10022000020C43FA05F3C01851EBE37101F00045ED
:1002300007D54FF0000EDCF1000C7EEB00006EEBFA
:100240000101B1F5801F1BD3B1F5001F0CD3490884
:100250005FEA30004FEA3C0C04F101044FEA4452DB
:1002600012F5800F80F09A80BCF1004F08BF5FEA62
:10027000500C50F1000041EB045141EA050130BD42
:100280005FEA4C0C404141EB0101013C28BFB1F554
:10029000801FE9D291F0000F04BF01460020B1FA9F
:1002A00081F308BF2033A3F10B03B3F120020CDA72
:1002B0000C3208DD02F1140CC2F10C0201FA0CF050
:1002C00021FA02F10CE002F11402D8BFC2F1200CB5
:1002D00001FA02F120FA0CFCDCBF41EA0C0190406B
:1002E000E41AA2BF01EB0451294330BD6FEA0404B4
:1002F0001F3C1CDA0C340EDC04F11404C4F120029F
:1003000020FA04F001FA02F340EA030021FA04F3B0
:1003100045EA030130BDC4F10C04C4F1200220FA07
:1003200002F001FA04F340EA0300294630BD21FA45
:1003300004F0294630BD94F0000F83F4801306BF0B
:1003400081F480110134013D4EE77FEA645C18BFFF
:100350007FEA655C29D094EA050F08BF90EA020F96
:1003600005D054EA000C04BF1946104630BD91EA8E
:10037000030F1EBF0021002030BD5FEA545C05D191
:100380004000494128BF41F0004130BD14F58004D0
:100390003CBF01F5801130BD01F0004545F0FE4144
:1003A00041F470014FF0000030BD7FEA645C1ABF79
:1003B000194610467FEA655C1CBF0B46024650EAB0
:1003C000013406BF52EA033591EA030F41F40021DC
:1003D00030BD00BF90F0000F04BF0021704730B562
:1003E0004FF4806404F132044FF000054FF0000137
:1003F00050E700BF90F0000F04BF0021704730B5F8
:100400004FF4806404F1320410F0004548BF4042CC
:100410004FF000013EE700BF42004FEAE2014FEA21
:1004200031014FEA02701FBF12F07F4393F07F4FFC
:1004300081F06051704732F07F4208BF704793F0FF
:100440007F4F04BF41F40021704730B54FF4607412
:1004500001F0004521F000411CE700BF50EA010215
:1004600008BF704730B54FF000050AE050EA0102BE
:1004700008BF704730B511F0004502D5404261EB2E
:1004800041014FF4806404F132045FEA915C3FF46F
:10049000D8AE4FF003025FEADC0C18BF03325FEA0C
:1004A000DC0C18BF033202EBDC02C2F1200300FABD
:1004B00003FC20FA02F001FA03FE40EA0E0021FAE2
:1004C00002F11444BDE600BF70B54FF0FF0C4CF4D0
:1004D000E06C1CEA11541DBF1CEA135594EA0C0F82
:1004E00095EA0C0F00F0DEF82C4481EA030621EABD
:1004F0004C5123EA4C5350EA013518BF52EA0335F8
:1005000041F4801143F4801338D0A0FB02CE4FF0A9
:100510000005E1FB02E506F00042E0FB03E54FF0D9
:100520000006E1FB03569CF0000F18BF4EF0010ED1
:10053000A4F1FF04B6F5007F64F5407404D25FEACD
:100540004E0E6D4146EB060642EAC62141EA555180
:100550004FEAC52040EA5E504FEACE2EB4F1FD0CC2
:1005600088BFBCF5E06F1ED8BEF1004F08BF5FEA40
:10057000500E50F1000041EB045170BD06F00046F2
:1005800046EA010140EA020081EA0301B4EB5C049F
:10059000C2BFD4EB0C0541EA045170BD41F4801197
:1005A0004FF0000E013C00F3AB8014F1360FDEBFBC
:1005B000002001F0004170BDC4F10004203C35DA98
:1005C0000C341BDC04F11404C4F1200500FA05F31B
:1005D00020FA04F001FA05F240EA020001F00042BC
:1005E00021F0004110EBD37021FA04F642EB060132
:1005F0005EEA430E08BF20EAD37070BDC4F10C045C
:10060000C4F1200500FA04F320FA05F001FA04F21F
:1006100040EA020001F0004110EBD37041F100010B
:100620005EEA430E08BF20EAD37070BDC4F1200516
:1006300000FA05F24EEA020E20FA04F301FA05F27E
:1006400043EA020321FA04F001F0004121FA04F226
:1006500020EA020000EBD3705EEA430E08BF20EAF6
:10066000D37070BD94F0000F0FD101F00046400030
:1006700041EB010111F4801F08BF013CF7D041EAB2
:10068000060195F0000F18BF704703F000465200B6
:1006900043EB030313F4801F08BF013DF7D043EA87
:1006A0000603704794EA0C0F0CEA135518BF95EA3D
:1006B0000C0F0CD050EA410618BF52EA4306D1D1C4
:1006C00081EA030101F000414FF0000070BD50EAE3
:1006D000410606BF1046194652EA430619D094EA6D
:1006E0000C0F02D150EA013613D195EA0C0F05D157
:1006F00052EA03361CBF104619460AD181EA0301AB
:1007000001F0004141F0FE4141F470014FF0000062
:1007100070BD41F0FE4141F4780170BD70B54FF0FD
:10072000FF0C4CF4E06C1CEA11541DBF1CEA13557D
:1007300094EA0C0F95EA0C0F00F0A7F8A4EB05045F
:1007400081EA030E52EA03354FEA013100F0888056
:100750004FEA03334FF0805545EA131343EA12631F
:100760004FEA022245EA111545EA10654FEA0026D4
:100770000EF000419D4208BF964244F1FD0404F58D
:10078000407402D25B084FEA3202B61A65EB0305E9
:100790005B084FEA32024FF480104FF4002CB6EBA6
:1007A000020E75EB030E22BFB61A754640EA0C0026
:1007B0005B084FEA3202B6EB020E75EB030E22BF66
:1007C000B61A754640EA5C005B084FEA3202B6EBA7
:1007D000020E75EB030E22BFB61A754640EA9C0066
:1007E0005B084FEA3202B6EB020E75EB030E22BF36
:1007F000B61A754640EADC0055EA060E18D04FEAF4
:10080000051545EA16754FEA06164FEAC30343EA93
:1008100052734FEAC2025FEA1C1CC0D111F4801F60
:100820000BD141EA00014FF000004FF0004CB6E759
:1008300011F4801F04BF01430020B4F1FD0C88BFF8
:10084000BCF5E06F3FF6AFAEB5EB030C04BFB6EB03
:10085000020C5FEA500C50F1000041EB045170BDF6
:100860000EF0004E4EEA113114EB5C04C2BFD4EB23
:100870000C0541EA045170BD41F480114FF0000EA7
:10088000013C90E645EA060E8DE60CEA135594EA23
:100890000C0F08BF95EA0C0F3FF43BAF94EA0C0F26
:1008A0000AD150EA01347FF434AF95EA0C0F7FF49B
:1008B00025AF104619462CE795EA0C0F06D152EAEF
:1008C00003353FF4FDAE1046194622E750EA4106D3
:1008D00018BF52EA43067FF4C5AE50EA41047FF4E4
:1008E0000DAF52EA43057FF4EBAE12E74FF0FF3C49
:1008F00006E000BF4FF0010C02E000BF4FF0010C1A
:100900004DF804CD4FEA410C7FEA6C5C4FEA430C92
:1009100018BF7FEA6C5C1BD001B050EA410C0CBFE1
:1009200052EA430C91EA030F02BF90EA020F002043
:10093000704710F1000F91EA030F58BF994208BFAA
:1009400090422CBFD8176FEAE37040F00100704767
:100950004FEA410C7FEA6C5C02D150EA013C07D1BE
:100960004FEA430C7FEA6C5CD6D152EA033CD3D009
:100970005DF8040B704700BF8446104662468C4603
:100980001946634600E000BF01B5FFF7B7FF002836
:1009900048BF10F1000F01BD4DF808EDFFF7F4FF5F
:1009A0000CBF012000205DF808FB00BF4DF808EDEA
:1009B000FFF7EAFF34BF012000205DF808FB00BF0D
:1009C0004DF808EDFFF7E0FF94BF012000205DF82F
:1009D00008FB00BF4DF808EDFFF7CEFF94BF0120E4
:1009E00000205DF808FB00BF4DF808EDFFF7C4FFDD
:1009F00034BF012000205DF808FB00BF4A0011D27F
:100A000012F5001211D20DD56FF47873B3EB625268
:100A10000ED44FEAC12343F0004343EA505323FA74
:100A200002F070474FF00000704750EA013002D1E9
:100A30004FF0FF3070474FF0000070474FEA41021F
:100A4000B2F1E04324BFB3F5001CDCF1FE5C0DD92C
:100A500001F0004C4FEAC0024CEA5070B2F1004F76
:100A600040EB830008BF20F00100704711F0804F79
:100A700021D113F13872BCBF01F00040704741F43E
:100A800080114FEA5252C2F11802C2F1200C10FA42
:100A90000CF320FA02F018BF40F001004FEAC12326
:100AA0004FEAD32303FA0CFC40EA0C0023FA02F3CA
:100AB0004FEA4303CCE77FEA625307D150EA0133A0
:100AC0001EBF4FF0FE4040F44000704701F0004070
:100AD00040F0FE4040F40000704700BF80F000404E
:100AE00002E000BF81F0004142001FBF5FEA410306
:100AF00092EA030F7FEA226C7FEA236C6AD04FEA06
:100B00001262D2EB1363C1BFD2184140484041404A
:100B1000B8BF5B42192B88BF704710F0004F40F4FC
:100B2000000020F07F4018BF404211F0004F41F418
:100B3000000121F07F4118BF494292EA030F3FD0E4
:100B4000A2F1010241FA03FC10EB0C00C3F12003F7
:100B500001FA03F100F0004302D5494260EB400086
:100B6000B0F5000F13D3B0F1807F06D340084FEAF1
:100B7000310102F10102FE2A51D2B1F1004F40EBE6
:100B8000C25008BF20F0010040EA0300704749004E
:100B900040EB0000013A28BFB0F5000FEDD2B0FAEB
:100BA00080FCACF1080CB2EB0C0200FA0CF0AABF0E
:100BB00000EBC25052421843BCBFD04018437047AC
:100BC00092F0000F81F4000106BF80F400000132B2
:100BD000013BB5E74FEA41037FEA226C18BF7FEA89
:100BE000236C21D092EA030F04D092F0000F08BFCB
:100BF0000846704790EA010F1CBF0020704712F0B2
:100C00007F4F04D1400028BF40F00040704712F1F0
:100C100000723CBF00F50000704700F0004343F055
:100C2000FE4040F4000070477FEA226216BF08468B
:100C30007FEA23630146420206BF5FEA412390EA4E
:100C4000010F40F4800070474FF0000304E000BF44
:100C500010F0004348BF40425FEA000C08BF7047F5
:100C600043F0964301464FF000001CE050EA0102B9
:100C700008BF70474FF000030AE000BF50EA0102CE
:100C800008BF704711F0004302D5404261EB4101BB
:100C90005FEA010C02BF84460146002043F0B643E0
:100CA00008BFA3F18053A3F50003BCFA8CF2083A05
:100CB000A3EBC25310DB01FA02FC634400FA02FC0E
:100CC000C2F12002BCF1004F20FA02F243EB020015
:100CD00008BF20F00100704702F1200201FA02FC77
:100CE000C2F1200250EA4C0021FA02F243EB02006A
:100CF00008BF20EADC7070474FF0FF0C1CEAD052AE
:100D00001EBF1CEAD15392EA0C0F93EA0C0F6FD06E
:100D10001A4480EA010C400218BF5FEA41211ED04C
:100D20004FF0006343EA501043EA5111A0FB013138
:100D30000CF00040B1F5000F3EBF490041EAD3710D
:100D40005B0040EA010062F17F02FD2A1DD8B3F189
:100D5000004F40EBC25008BF20F00100704790F0F8
:100D6000000F0CF0004C08BF49024CEA502040EA4A
:100D700051207F3AC2BFD2F1FF0340EAC250704710
:100D800040F400004FF00003013A5DDC12F1190F4E
:100D9000DCBF00F000407047C2F10002410021FAC0
:100DA00002F1C2F1200200FA02FC5FEA310040F1D8
:100DB000000053EA4C0308BF20EADC70704792F051
:100DC000000F00F0004C02BF400010F4000F013A89
:100DD000F9D040EA0C0093F0000F01F0004C02BF84
:100DE000490011F4000F013BF9D041EA0C018FE7F3
:100DF0000CEAD15392EA0C0F18BF93EA0C0F0AD0F9
:100E000030F0004C18BF31F0004CD8D180EA01001E
:100E100000F00040704790F0000F17BF90F0004FB7
:100E2000084691F0000F91F0004F14D092EA0C0F99
:100E300001D142020FD193EA0C0F03D14B0218BF2C
:100E4000084608D180EA010000F0004040F0FE4072
:100E500040F40000704740F0FE4040F4400070470E
:100E60004FF0FF0C1CEAD0521EBF1CEAD15392EA8D
:100E70000C0F93EA0C0F69D0A2EB030280EA010C7D
:100E800049024FEA402037D04FF0805343EA111116
:100E900043EA10130CF000408B4238BF5B0042F174
:100EA0007D024FF4000C8B4224BF5B1A40EA0C0019
:100EB000B3EB510F24BFA3EB510340EA5C00B3EB4B
:100EC000910F24BFA3EB910340EA9C00B3EBD10F39
:100ED00024BFA3EBD10340EADC001B0118BF5FEA8B
:100EE0001C1CE0D1FD2A3FF650AF8B4240EBC250B4
:100EF00008BF20F0010070470CF0004C4CEA502075
:100F00007F32C2BFD2F1FF0340EAC250704740F4C3
:100F100000004FF00003013A37E792F0000F00F0B5
:100F2000004C02BF400010F4000F013AF9D040EA33
:100F30000C0093F0000F01F0004C02BF490011F4C7
:100F4000000F013BF9D041EA0C0195E70CEAD153BF
:100F500092EA0C0F08D142027FF47DAF93EA0C0FA6
:100F60007FF470AF084676E793EA0C0F04D14B028A
:100F70003FF44CAF08466EE730F0004C18BF31F03C
:100F8000004CCAD130F000427FF45CAF31F0004336
:100F90007FF43CAF5FE700BF4FF0FF3C06E000BFCF
:100FA0004FF0010C02E000BF4FF0010C4DF804CDF2
:100FB0004FEA40024FEA41037FEA226C18BF7FEA02
:100FC000236C11D001B052EA530C18BF90EA010F04
:100FD00058BFB2EB030088BFC81738BF6FEAE17093
:100FE00018BF40F0010070477FEA226C02D15FEA2F
:100FF000402C05D17FEA236CE4D15FEA412CE1D09B
:101000005DF8040B704700BF844608466146FFE761
:101010000FB5FFF7C9FF002848BF10F1000F0FBD43
:101020004DF808EDFFF7F4FF0CBF012000205DF83C
:1010300008FB00BF4DF808EDFFF7EAFF34BF0120C1
:1010400000205DF808FB00BF4DF808EDFFF7E0FF5A
:1010500094BF012000205DF808FB00BF4DF808EDAB
:10106000FFF7D2FF94BF012000205DF808FB00BF0E
:101070004DF808EDFFF7C8FF34BF012000205DF8F0
:1010800008FB00BF4FEA40024FEA41037FEA226CAF
:1010900002D15FEA402C08D17FEA236C02D15FEADB
:1010A000412C02D14FF0000070474FF00100704713
:1010B00042000ED2B2F1FE4F0BD34FF09E03B3EBC2
:1010C000126209D44FEA002343F0004323FA02F0EE
:1010D00070474FF00000704712F1610F01D14202DA
:1010E00002D14FF0FF3070474FF00000704700BF53
:1010F0004FEA410C7FEA6C5C02D150EA013C0AD114
:101100004FEA430C7FEA6C5C02D152EA033C02D105
:101110004FF0000070474FF0010070474FEA410266
:1011200012F5001215D211D56FF47873B3EB625239
:1011300012D94FEAC12343F0004343EA505311F060
:10114000004F23FA02F018BF404270474FF00000F2
:10115000704750EA013005D111F0004008BF6FF030
:10116000004070474FF00000704700BF00000000D3
:1011700080B584B000AFF860B9607A603B60FB680E
:10118000BA681A60FB687A685A60FB683A689A60C5
:10119000FB68BA69DA60FB68FA691A61386AFFF7B6
:1011A0003BF95FA3D3E90023FFF78EF902460B4614
:1011B000104619464FF000025B4BFFF7AFFA0246AC
:1011C0000B4610461946FFF739FC0246FB685A6188
:1011D000786AFFF721F952A3D3E90023FFF774F9E6
:1011E00002460B46104619464FF000024E4BFFF7E1
:1011F00095FA02460B4610461946FFF71FFC0246B9
:10120000FB689A61B86AFFF707F945A3D3E90023A1
:10121000FFF75AF902460B46104619464FF00002F6
:10122000414BFFF77BFA02460B4610461946FFF783
:1012300005FC0246FB68DA61F86AFFF7EDF838A3AF
:10124000D3E90023FFF740F902460B461046194642
:101250004FF00002344BFFF761FA02460B4610468E
:101260001946FFF7EBFB0246FB681A62386BFFF783
:10127000D3F82BA3D3E90023FFF726F902460B4648
:10128000104619464FF00002274BFFF747FA024677
:101290000B4610461946FFF7D1FB0246FB685A621F
:1012A000786BFFF7B9F81EA3D3E90023FFF70CF919
:1012B00002460B46104619464FF000021A4BFFF744
:1012C0002DFA02460B4610461946FFF7B7FB0246B9
:1012D000FB689A62FB684FF000029A63FB684FF06C
:1012E0000002DA63FB684FF000021A64FB684FF0FB
:1012F00000025A64FB684FF000029A64FB684FF0EA
:101300000002DA64FB68BA6BDA62FB68FA6B1A6394
:10131000FB683A6C5A6300BF1037BD4680BD00BF02
:101320001F85EB51B81E0940008066400000000098
:1013300090B585B000AFF860B9607A603B607868BE
:10134000FFF786FC0246FB68DA633868FFF780FC2B
:101350000246FB681A64386AFFF77AFC0246FB68AB
:101360005A64BB681B684FF080411846FFF778FD50
:1013700003461C467868FFF76BFC03461946204677
:10138000FFF7BAFC03461A46FB685A62BB685B6803
:101390004FF080411846FFF763FD03461C4638684E
:1013A000FFF756FC034619462046FFF7A5FC034607
:1013B0001A46FB689A62FB684FF00002DA62BB686B
:1013C0001B684FF080411846FFF74AFD03461A4656
:1013D000BB689B6819461046FFF786FB03461C4610
:1013E0007868FFF735FC034619462046FFF784FC72
:1013F00003461A46FB681A63BB685B684FF080417E
:101400001846FFF72DFD03461C463868FFF720FC01
:10141000034619462046FFF76FFC03461A46FB6851
:101420005A63BB68DA68BB681B6919461046FFF748
:101430005BFB03461846FEF7EFFF1BA3D3E900232F
:10144000FFF742F802460B4610461946FFF7F6FA38
:101450000246FB689A63FB684FF000029A64FB68DF
:10146000134ADA64FB68134A1A65FB687A6A5A659C
:10147000FB68BA6A9A65FB68FA6ADA65FB683A6BD8
:101480001A66FB687A6B5A66FB68BA6B9A66FB68E9
:10149000FA6BDA66FB683A6C1A67FB687A6C5A6713
:1014A00000BF1437BD4690BDCC3B7F669EA0E6BF13
:1014B000C3F548BFC3F5C83FF0B591B000AF786041
:1014C00039607B681A6B7B685B6A19461046FFF7C8
:1014D00009FB03461A467B68DB6B19461046FFF78B
:1014E0000BFC0346FB637B685A6B7B689B6A19465F
:1014F0001046FFF7F7FA0346BB637B689A6B7B687D
:10150000DB6A19461046FFF7EDFA034683F0004305
:101510007B63F86BFEF780FF4FF000024FF08043D3
:1015200007F07EFD04460D46786BFEF775FF4FF021
:1015300000024FF0804307F073FD02460B46204641
:101540002946FEF70BFE02460B4610461946FFF7EA
:1015500075FA03463B63386BFEF75EFF04460D46A3
:101560003B689B681846FEF757FF4FF000024FF0AC
:10157000804307F055FD02460B4620462946FEF7FC
:10158000EBFD02460B4610461946FFF757FA034695
:10159000FB62F86AFEF740FF4FF00002AF4B07F026
:1015A0003FFD02460B4610461946FFF747FA034631
:1015B000BB62F86AFEF730FF04460D46B86BFEF7D3
:1015C0002BFF4FF000024FF0804307F029FD024649
:1015D0000B4620462946FEF7C1FD02460B46104643
:1015E0001946FFF72BFA03467B62786AFEF714FF71
:1015F0004FF00002994B07F013FD02460B461046D0
:101600001946FFF71BFA03463B623B68DB68184646
:10161000FEF702FF4FF000024FF0804307F000FD9D
:1016200002460B4610461946FFF708FA0346FB61CF
:101630003B681B691846FEF7EFFE4FF000024FF0C3
:10164000804307F0EDFC02460B4610461946FFF7B3
:10165000F5F90346BB61796BF86BFFF701FC0346B4
:101660001846FEF7D9FE02460B461046194607F00B
:101670003FFD04460D463B689B68B96A1846FFF774
:10168000EFFB03461846FEF7C7FE02460B46104620
:10169000194607F02DFD02460B4620462946FEF767
:1016A0005BFD02460B4610461946FFF7C7F9034695
:1016B00083F000437B61B96AB86BFFF7D1FB034647
:1016C0001846FEF7A9FE02460B461046194607F0DB
:1016D0000FFD04460D46F969B869FFF703FA0346A2
:1016E000796A1846FFF7FEF903461E463B68DB6839
:1016F0004FF040411846FFF7FFFA0346396A184693
:10170000FFF7FAFA034619463046FFF7A9FB0346EE
:101710001846FEF781FE02460B461046194607F0B2
:101720002FFC02460B4620462946FEF715FD0246D1
:101730000B4610461946FFF781F903463B61F969EC
:10174000786AFFF7CFF90346B9691846FFF7CAF977
:1017500003461C463B68DB684FF040411846FFF7E4
:10176000CBFA03461A463B681B6919461046FFF739
:10177000C3FA034619462046FFF772FB0346184694
:10178000FEF74AFE02460B461046194607F0F8FBE4
:1017900002460B4610461946FFF750F90346FB6018
:1017A00079697869FFF76EFC0346002B52D13969DD
:1017B0003869FFF767FC0346002B4BD1F968F868DE
:1017C000FFF760FC0346002B44D13B685B69194678
:1017D0007869FFF743FC0346002B00D13AE03B68F1
:1017E0001B6A19467869FFF72FFC0346002B00D1CE
:1017F00030E03B689B6919463869FFF72FFC0346C8
:10180000002B00D126E03B685B6A19463869FFF778
:101810001BFC0346002B00D11CE03B68DB6919462A
:10182000F868FFF71BFC0346002B00D112E03B6871
:101830009B6A1946F868FFF707FC0346002B00D1A6
:1018400008E07B687A699A647B683A69DA647B6845
:10185000FA681A6500BF4437BD46F0BD0000E03F9E
:1018600080B586B000AF786039607B689B6C3B497F
:101870001846FFF7F5FA03461A467B68DB6E1946F1
:101880001046FFF731F903461846FEF7C5FD02463C
:101890000B461046194607F0D3FE02460B4610468B
:1018A0001946FFF7CBF803467B617B68DB6C2B495D
:1018B0001846FFF7D5FA03461A467B681B6F194690
:1018C0001046FFF711F903461846FEF7A5FD02463C
:1018D0000B461046194607F0B3FE02460B4610466B
:1018E0001946FFF7ABF803463B617B681B6D1B494C
:1018F0001846FFF7B5FA03461A467B685B6F194630
:101900001046FFF7F1F803461846FEF785FD02463C
:101910000B461046194607F093FE02460B4610464A
:101920001946FFF78BF80346FB607B681B68DBB248
:101930007969184603F0C4F97B681B69DBB2396921
:10194000184603F0BDF97B681B6ADBB2F9681846DC
:1019500003F0B6F900BF1837BD4680BD35FA8E3C9E
:101960002DE9B04F8EB000AFF86107F1100080E8AC
:101970000E00BB6D7B63FB6D3B633B6EFB623B69A3
:101980001846FEF749FD04460D46F86AFEF744FD89
:1019900002460B461046194607F034FD804689463C
:1019A000386BFEF739FD02460B461046194607F024
:1019B00029FD02460B4640464946FEF785FD024694
:1019C0000B4620462946FEF77FFD02460B4692460F
:1019D0009B467B691846FEF71FFD80468946F86ADC
:1019E000FEF71AFD02460B461046194607F00AFD9F
:1019F00004460D46386BFEF70FFD02460B461046B7
:101A0000194607F049FD02460B4620462946FEF7D7
:101A10005BFD02460B4614461D46786BFEF7FCFC48
:101A200002460B461046194607F036FD02460B46A5
:101A300020462946FEF748FD02460B46C7E900232B
:101A4000F86AFEF7E9FC02460B461046194607F015
:101A500023FD04460D46786BFEF7DEFC02460B467E
:101A60001046194607F0CEFC02460B462046294692
:101A7000FEF72AFD02460B46D7E90001FEF76CFB94
:101A800002460B4640464946FEF71EFD02460B46FF
:101A900050465946FEF762FB02460B4692469B466D
:101AA000BB69796E1846FFF71FF803461846FEF724
:101AB000B3FC80468946F86AFEF7AEFC02460B4648
:101AC0001046194607F09EFC04460D46386BFEF79B
:101AD000A3FC02460B461046194607F0DDFC024601
:101AE0000B4620462946FEF7EFFC02460B461446FD
:101AF0001D46786BFEF790FC02460B4610461946D1
:101B000007F080FC02460B4620462946FEF7DCFC27
:101B100002460B46C7E90023F86AFEF77DFC024641
:101B20000B461046194607F0B7FC04460D46786B85
:101B3000FEF772FC02460B461046194607F0ACFC55
:101B400002460B4620462946FEF7BEFC02460B46DF
:101B5000D7E90001FEF702FB02460B464046494624
:101B6000FEF7B2FC02460B4650465946FEF7F6FA1F
:101B700002460B4610461946FEF760FF03463B62DD
:101B80003B691846FEF748FC04460D46F86AFEF726
:101B900043FC02460B461046194607F07DFC804682
:101BA0008946386BFEF738FC02460B46104619464C
:101BB00007F028FC02460B4640464946FEF784FCE7
:101BC00002460B4620462946FEF77EFC02460B469F
:101BD00092469B467B691846FEF71EFC8046894666
:101BE000F86AFEF719FC02460B461046194607F044
:101BF00053FC04460D46386BFEF70EFC02460B46BE
:101C00001046194607F048FC02460B462046294676
:101C1000FEF75AFC02460B4614461D46786BFEF74B
:101C2000FBFB02460B461046194607F035FC024600
:101C30000B4620462946FEF747FC02460B46C7E9FD
:101C40000023F86AFEF7E8FB02460B4610461946E9
:101C500007F0D8FB04460D46786BFEF7DDFB024625
:101C60000B461046194607F0CDFB02460B462046B0
:101C70002946FEF729FC02460B46D7E90001FEF78C
:101C80006DFA02460B4640464946FEF71DFC0246E9
:101C90000B4650465946FEF761FA02460B469246FD
:101CA0009B46BB69796E1846FEF71EFF0346184631
:101CB000FEF7B2FB80468946F86AFEF7ADFB0246A6
:101CC0000B461046194607F0E7FB04460D46386BF5
:101CD000FEF7A2FB02460B461046194607F0DCFB56
:101CE00002460B4620462946FEF7EEFB02460B460F
:101CF00014461D46786BFEF78FFB02460B461046D6
:101D0000194607F07FFB02460B4620462946FEF7A0
:101D1000DBFB02460B46C7E90023F86AFEF77CFBB3
:101D200002460B461046194607F06CFB04460D466A
:101D3000786BFEF771FB02460B461046194607F01A
:101D4000ABFB02460B4620462946FEF7BDFB02468A
:101D50000B46D7E90001FEF7FFF902460B46404665
:101D60004946FEF7B1FB02460B4650465946FEF780
:101D7000F5F902460B4610461946FEF75FFE03468C
:101D80007B623B691846FEF747FB04460D46386BFD
:101D9000FEF742FB02460B461046194607F07CFB55
:101DA00002460B46BA6083F00043FB60D7E902238A
:101DB00020462946FEF788FB02460B4692469B4684
:101DC0007B691846FEF728FB04460D46386BFEF784
:101DD00023FB02460B461046194607F013FB8046CC
:101DE0008946786BFEF718FB02460B4610461946EB
:101DF00007F052FB02460B4640464946FEF764FB9D
:101E000002460B4620462946FEF75EFB02460B467D
:101E100050465946FEF7A2F902460B4692469B46AB
:101E2000BB69796E1846FEF75FFE03461846FEF75B
:101E3000F3FA04460D46386BFEF7EEFA02460B46FF
:101E40001046194607F0DEFA80468946786BFEF7A1
:101E5000E3FA02460B461046194607F0D3FA02464B
:101E60000B4640464946FEF72FFB02460B462046EE
:101E70002946FEF729FB02460B4650465946FEF717
:101E80006DF902460B4614461D46786EFEF7C4FAFD
:101E900002460B4620462946FEF75EF902460B46EF
:101EA00010461946FEF7CAFD0346BB62FB691C4695
:101EB00007F1200393E8070084E80700F869383742
:101EC000BD46BDE8B08F80B485B000AFF86038463D
:101ED00080E80E003A68FB681A637A68FB685A6308
:101EE000BA68FB689A6300BF1437BD4680BC704770
:101EF000F0B58DB00CAF964B08221A60954B0922B5
:101F00001A60954B0A221A60944B0B221A60904B70
:101F100000221A618E4B01221A628E4B02221A6134
:101F20008C4B03221A628C4B04221A618A4B0522C5
:101F30001A628A4B06221A61884B07221A62884B62
:101F40000A93884B0993884B0893884B0793884BD7
:101F50000693884B0593884B0493884B0393884BD7
:101F60000293884B0193874B0093874B874A85499F
:101F70008748FFF7FDF8874B1B68874A1268874937
:101F8000096887480068874C2468874D2D68874E0C
:101F90003668DFF81CC2DCF800C0DFF818E2DEF8B3
:101FA00000E0CDF824E0CDF820C007960695059412
:101FB00004900391029201930123009301230122D3
:101FC00073496348FFF7B4F9724B1B68724A126891
:101FD0007249096872480068724C2468724D2D6815
:101FE000724E3668DFF8C8C1DCF800C0DFF8C4E123
:101FF000DEF800E0CDF824E0CDF820C00796069585
:10200000059404900391029201930123009301230C
:102010004FF0FF325E494F48FFF78AF95D4B1B686E
:102020005D4A12685D4909685D4800685D4C246836
:102030005D4D2D685D4E3668DFF874C1DCF800C078
:10204000DFF870E1DEF800E0CDF824E0CDF820C044
:10205000079606950594049003910292019301233B
:1020600000934FF0FF334FF0FF3249493A48FFF7F2
:102070005FF9484B1B68484A126848490968484854
:102080000068484C2468484D2D68484E3668DFF893
:1020900020C1DCF800C0DFF81CE1DEF800E0CDF87C
:1020A00024E0CDF820C0079606950594049003918E
:1020B00002920193012300934FF0FF330122344930
:1020C0002648FFF735F93C4B1B683C4A13603C4BF4
:1020D0001B683A4A53603B4B1B6883F00043374A06
:1020E0009360354B1B6883F00043374A1360344BD1
:1020F0001B68354A5360334B1B6883F00043324AF8
:1021000093602D4B1B6883F00043304A13602C4BC7
:102110001B6883F000432D4A53602A4B1B6883F0F1
:1021200000432A4A9360244B1B68294A1360244BBE
:102130001B6883F00043264A5360224B1B6883F0E0
:102140000043234A936000BF0437BD46F0BD00BF83
:10215000C0020020480D0020A4030020900C0020A5
:1021600000000A43000048420000B4420000074358
:10217000000070420000F04100003442000070C2D4
:102180000000DCC10000D0409A99214033334B411C
:1021900050020020140000201C0000202400002019
:1021A0001800002020000020280000202C00002023
:1021B00030000020340000200000002038080020FB
:1021C0000400002008000020B4020020300D002090
:1021D000140D002000000000F0B591B004AF9E4B3C
:1021E000DB689E4A93639C4B1B699C4AD3639A4B62
:1021F0005B699A4A1364994B5C6C984B9B6B984A49
:10220000126811461846FEF777FD03461946204628
:10221000FEF76AFC03461846FEF7FEF804460D4634
:10222000904B1B6883F000438F491846FEF718FE59
:1022300003461846FEF7F0F885A3D3E90023FEF71E
:1022400043F902460B4620462946FEF7AFFB0346FC
:10225000002B18D0834B1B6883F00043824918463B
:10226000FEF7FEFD03461846FEF7D6F878A3D3E93D
:102270000023FEF729F902460B4610461946FEF7E1
:10228000DDFB034653E0754B5C6C744B9B6B744AEF
:10229000126811461846FEF72FFD034619462046E0
:1022A000FEF722FC03461846FEF7B6F804460D4634
:1022B0006C4B1B686C491846FEF7D2FD0346184666
:1022C000FEF7AAF862A3D3E90023FEF7FDF8024661
:1022D0000B4620462946FEF787FB0346002B16D007
:1022E000604B1B6860491846FEF7BAFD0346184666
:1022F000FEF792F856A3D3E90023FEF7E5F802466D
:102300000B4610461946FEF799FB03460FE0534B68
:102310005C6C524B9B6B524A126811461846FEF792
:10232000EBFC034619462046FEF7DEFB03464B4A0C
:1023300053644A4B9C6C494BDB6B494A126811460B
:102340001846FEF7D9FC034619462046FEF7CCFB9B
:1023500003461846FEF760F804460D46434B1B68DB
:1023600083F0004340491846FEF77AFD03461846BD
:10237000FEF752F836A3D3E90023FEF7A5F802468C
:102380000B4620462946FEF711FB0346002B18D0CA
:10239000364B1B6883F0004333491846FEF760FD57
:1023A00003461846FEF738F829A3D3E90023FEF7C1
:1023B0008BF802460B4610461946FEF73FFB0346D4
:1023C00066E0264B9C6C254BDB6B254A1268114658
:1023D0001846FEF791FC034619462046FEF784FB9B
:1023E00003461846FEF718F804460D461F4B1B68B7
:1023F0001D491846FEF734FD03461846FEF70CF853
:1024000013A3D3E90023FEF75FF802460B462046EC
:102410002946FEF7E9FA0346002B29D0134B1B6827
:1024200011491846FEF71CFD03461846FDF7F4FF58
:1024300007A3D3E90023FEF747F802460B461046F0
:102440001946FEF7FBFA034622E000BFAFF3008017
:102450001F85EB51B81E09402008002050020020C3
:10246000380000203C0000200000344340000020E1
:102470009B4B9C6C9A4BDB6B9A4A12681146184630
:10248000FEF73AFC034619462046FEF72DFB0346AD
:10249000934A9364924BDC6C914B1B6C914A12688B
:1024A00011461846FEF728FC034619462046FEF75B
:1024B0001BFB03461846FDF7AFFF04460D468A4B4B
:1024C0001B6883F0004389491846FEF7C9FC0346A0
:1024D0001846FDF7A1FF80A3D3E90023FDF7F4FF21
:1024E00002460B4620462946FEF760FA0346002BBB
:1024F00018D07D4B1B6883F000437C491846FEF7DB
:10250000AFFC03461846FDF787FF73A3D3E900230A
:10251000FDF7DAFF02460B4610461946FEF78EFA23
:10252000034653E06E4BDC6C6D4B1B6C6D4A1268BE
:1025300011461846FEF7E0FB034619462046FEF713
:10254000D3FA03461846FDF767FF04460D46664B6F
:102550001B6866491846FEF783FC03461846FDF7DC
:102560005BFF5DA3D3E90023FDF7AEFF02460B46F8
:1025700020462946FEF738FA0346002B16D05A4B60
:102580001B685A491846FEF76BFC03461846FDF7D0
:1025900043FF51A3D3E90023FDF796FF02460B4604
:1025A00010461946FEF74AFA03460FE04C4BDC6C26
:1025B0004B4B1B6C4B4A126811461846FEF79CFBAE
:1025C000034619462046FEF78FFA0346444AD36471
:1025D000474B1B683E46474D0393414B6C46443383
:1025E00093E8070084E8070095E80E003046FFF7FF
:1025F000B7F93B460ECB4048FFF765FC3C4B1B68E8
:1026000007F10C063D4D0393354B6C46443393E87C
:10261000070084E8070095E80E003046FFF7A0F9B0
:1026200007F10C030ECB3648FFF74DFC304B1B680F
:1026300007F11806334D0393294B6C46443393E856
:10264000070084E8070095E80E003046FFF788F998
:1026500007F118030ECB2C48FFF735FC244B1B6801
:1026600007F12406294D03931D4B6C46443393E830
:10267000070084E8070095E80E003046FFF770F980
:1026800007F124030ECB2248FFF71DFC14491A481A
:10269000FEF712FF12491A48FEF70EFF10491A48BA
:1026A000FEF70AFF0E491A48FEF706FF0C491248CA
:1026B000FFF7D6F80A491248FFF7D2F8084912483E
:1026C000FFF7CEF806491248FFF7CAF800BF3437C3
:1026D000BD46F0BDAFF300801F85EB51B81E094029
:1026E0005002002038000020440000200000344345
:1026F0000800002038080020C0020020B40200209A
:10270000480D0020300D0020A4030020140D0020EF
:10271000900C002080B582B000AF7860391D4FF07A
:10272000FF330122034804F0E5FC7B6818460837B4
:10273000BD4680BD4408002080B582B000AFC7E927
:102740000001D7E9000106F043FC0BA3D3E9002305
:10275000FDF7E4FF02460B46104619464FF0000213
:10276000074BFDF7B1FE02460B46104619460837E7
:10277000BD4680BDAFF30080182D4454FB210940B5
:10278000008066400000000080B582B000AFC7E95D
:1027900000010FA3D3E90023D7E90001FDF794FE60
:1027A00002460B46104619464FF000020A4BFDF751
:1027B000B5FF02460B461046194606F023FE0246B8
:1027C0000B46104619460837BD4680BDAFF3008062
:1027D000182D4454FB210940008066400000000091
:1027E00080B582B000AFC7E90001D7E9000106F06B
:1027F000C7FB0BA3D3E90023FDF790FF02460B466E
:10280000104619464FF00002074BFDF75DFE0246E9
:102810000B46104619460837BD4680BDAFF3008011
:10282000182D4454FB210940008066400000000040
:1028300080B582B000AFC7E90001D7E9000106F01A
:1028400057FC0BA3D3E90023FDF768FF02460B46B4
:10285000104619464FF00002074BFDF735FE0246C1
:102860000B46104619460837BD4680BDAFF30080C1
:10287000182D4454FB2109400080664080B500AF0C
:102880000A2326221449154804F034FC0A231D2289
:102890001349124804F02EFC0A230C2211490F4858
:1028A00004F028FC0A2322220F490C4804F022FCE1
:1028B0000A2322220D49094804F01CFC0A23222283
:1028C0000B49064804F016FC0A232822094903484C
:1028D00004F010FC00BF80BD04BA000844080020CA
:1028E0002CBA00084CBA00085CBA000880BA00088C
:1028F000A4BA0008C8BA000880B584B000AF7860F8
:1029000039603968786805F03DFCB860204ABB68DA
:1029100013600123FB6031E03968002005F032FCD0
:10292000B860BB68002B2DD0FB68012B06D1B868BE
:1029300005F08EFA0346164A53601CE0FB68022B32
:1029400006D1B86805F084FA0346114A936012E094
:10295000FB68032B06D1B86805F07AFA03460C4AE7
:10296000D36008E0FB68042B05D1B86805F070FA65
:102970000346074A1361FB680133FB60FB68042BC5
:10298000CADD00E000BF00BF1037BD4680BD00BFFC
:10299000A0020020B0B588B000AFC7E90201C7E9C6
:1029A00000233B6B012B02DD7B6B002B01D100234D
:1029B00046E0D7E90223D7E90001FDF7CDFB024647
:1029C0000B4614461D463B6B013B1846FDF712FDB6
:1029D00002460B4620462946FDF7A0FE02460B465E
:1029E000C7E904230023FB6119E0F869FDF702FD44
:1029F000D7E90423FDF768FD02460B461046194649
:102A0000FB69DB007A6BD418D7E90223FDF7A6FB3C
:102A100002460B46C4E90023FB690133FB613B6BB3
:102A2000013BFA699A42E0DB3B6B03F10053013B47
:102A3000DB007A6BD118D7E90023C1E900237B6B57
:102A400018462037BD46B0BD2DE9F04FADF5277DC6
:102A500002AF05460C461046194607F52473A3F24B
:102A600089232A461A7007F52473A3F28A23224683
:102A70001A7007F52473A3F28B2302461A7007F528
:102A80002473A3F523730A461A7007F52473A3F27F
:102A90008A231A7807F52473A3F289231B78D31AA3
:102AA0001846FDF7A7FC04460D4607F52473A3F26C
:102AB0008A231A7807F52473A3F289231B78134419
:102AC0001846FDF797FC02460B4607F52471A1F561
:102AD0002371097807F5A4700190009120462946DA
:102AE000FFF758FF0023C7F88C32B4E107F52473D1
:102AF000A3F28B231B781846FDF77CFC80468946A1
:102B000007F52473A3F289231B781846FDF762FCAE
:102B10004FF000024FF0804306F082FA82468B4667
:102B200007F52473A3F5A472D7F88C32DB001344A5
:102B3000D3E9004507F52473A3F28A231B781846CE
:102B4000FDF758FC02460B4620462946FDF706FBDA
:102B500002460B46104619464FF000024FF08043E4
:102B600006F05EFA02460B4650465946FDF7F4FA67
:102B700002460B46104619464FF00002BE4B06F0C7
:102B80004FFA02460B4640464946FDF7E5FA024633
:102B90000B4607F52471A1F52270D7F88C12C900F5
:102BA0000144C1E9002307F52473A3F5A472D7F803
:102BB0008C32DB001344D3E900014FF000024FF0E8
:102BC000804306F02DFA04460D4607F52473A3F55D
:102BD0002272D7F88C32DB001344D3E900014FF0A6
:102BE00000024FF0804306F01BFA02460B462046D7
:102BF0002946FDF7B3FA02460B4614461D469F4B85
:102C00001B681846FDF708FC4FF000024FF08043A8
:102C100006F006FA02460B4620462946FDF79EFAC4
:102C200002460B4614461D46954B1B681846FDF799
:102C3000F3FB4FF000024FF0804306F0F1F902463B
:102C40000B4620462946FDF787FA02460B46924678
:102C50009B468A4B1B6819461846FDF745FF0346FD
:102C60001846FDF7D9FB04460D4607F52473A3F576
:102C7000A472D7F88C32DB001344D3E900014FF083
:102C800000024FF0804306F0CBF98046894607F5F5
:102C90002473A3F52272D7F88C32DB001344D3E9F6
:102CA00000014FF000024FF0804306F0B9F90246F0
:102CB0000B4640464946FDF751FA02460B46104680
:102CC00019464FF000026C4B06F0AAF902460B467B
:102CD00020462946FDF7F8FB02460B46504659466A
:102CE000FDF71CFD02460B4610461946FFF724FD72
:102CF00004460D4607F52473A3F5A472D7F88C3269
:102D0000DB001344D3E9000107F52473A3F5227215
:102D1000D7F88C32DB001344D3E90023FDF7FEFC27
:102D200002460B4610461946FFF782FD02460B4647
:102D3000D7F88C12C900D7F8B802461820462946A1
:102D4000FDF70AFA02460B46C6E9002307F524738D
:102D5000A3F5A472D7F88C32DB001344D3E9004505
:102D6000464B1B681846FDF757FB80468946D7F847
:102D70008C32DB00D7F8B8221344D3E90023104685
:102D80001946FFF701FD02460B4640464946FDF74E
:102D90009BFB02460B4620462946FDF7DDF902461D
:102DA0000B4614461D46364B1B681846FDF734FB90
:102DB00002460B4620462946FDF7B0FC02460B466C
:102DC00010461946FFF70CFDD7F88C32DB00D7F818
:102DD000B8221344D3E90023D7F88C42E400D7F893
:102DE000BC522C44FDF7B8F902460B46C4E9002357
:102DF000D7F88C32DB00D7F8B8221344D3E900238C
:102E0000D7F88C12C900D7F8B80244184FF0000068
:102E10001C49FDF7A1F902460B46C4E90023D7F887
:102E20008C32DB00D7F8BC221344D3E90023D7F857
:102E30008C12C900D7F8BC0244184FF000001149A9
:102E4000FDF78AF902460B46C4E90023D7F88C3215
:102E50000133C7F88C3207F52473A3F523731B786D
:102E6000D7F88C229A42FFF641AE00BF00BF07F5AB
:102E70002577BD46BDE8F08F0000E03F0C00002044
:102E80001000002000806640B0B5D8B002AF044604
:102E9000084607F5AC71A1F5A8710A6007F5AC7298
:102EA000A2F5AA72136007F5AC73A3F24913224688
:102EB0001A7007F5AC73A3F5A57302461A70A44BFC
:102EC0001B781846FDF786FA04460D4607F5AC73E5
:102ED000A3F249131B781846FDF77CFA02460B460D
:102EE00007F5AC71A1F5A571097807F11000019003
:102EF000009120462946FFF74DFD0023C7F85431C5
:102F000010E1944B1B681846FDF786FA4FF000025B
:102F10004FF0804306F084F804460D4607F5AC7385
:102F2000A3F5A472D7F85431DB001344D3E90001B0
:102F30004FF000024FF0804306F072F802460B4655
:102F400020462946FDF70AF902460B4614461D465F
:102F5000814B1B681846FDF75FFA4FF000024FF0F7
:102F6000804306F05DF802460B4620462946FDF7F1
:102F7000F3F802460B4614461D46764B1B6819466D
:102F80001846FDF7B1FD03461846FDF745FA07F56B
:102F9000AC73A3F5A472D7F85431DB001344D3E922
:102FA0000023FDF791FA02460B4620462946FDF71D
:102FB000B5FB02460B4610461946D7F85431DB00E4
:102FC00007F5AC72A2F5A8721268D418FFF708FCD6
:102FD00002460B46C4E900235E4B1B681846FDF70A
:102FE0001BFA4FF000024FF0804306F019F8044638
:102FF0000D46594B1B681846FDF70EFA4FF00002BC
:103000004FF0804306F00CF802460B462046294656
:10301000FDF7A4F802460B4614461D4607F5AC73AF
:10302000A3F5A472D7F85431DB001344D3E90001AF
:103030004FF000024FF0804305F0F2FF02460B46CE
:1030400020462946FDF788F802460B4614461D46E1
:10305000404B1B6819461846FDF746FD03461A46C5
:103060003D4B1B6819461046FDF746FE03461846C1
:10307000FDF7D2F902460B4620462946FDF74EFBE6
:1030800002460B4610461946D7F85431DB0007F5C7
:10309000AC72A2F5AA721268D418FFF7A1FB02461F
:1030A0000B46C4E90023D7F85431DB0007F5AC72B6
:1030B000A2F5A87212681344D3E90023D7F854117B
:1030C000C90007F5AC70A0F5A870006844184FF06F
:1030D00000002249FDF740F802460B46C4E90023F0
:1030E000D7F85431DB0007F5AC72A2F5AA7212686A
:1030F0001344D3E90023D7F85411C90007F5AC7085
:10310000A0F5AA70006844184FF000001349FDF7BD
:1031100023F802460B46C4E90023D7F854310133A3
:10312000C7F8543107F5AC73A3F5A5731B78D7F82E
:1031300054219A42FFF6E5AE054A07F5AC73A3F2B7
:1031400049131B78137000BF07F5AC77BD46B0BDBF
:103150004C0000200C000020100000200080664081
:1031600080B500AF0A2314220A490B4803F0C2FFBE
:103170004FF40051094802F069F940F2DC51084867
:1031800001F0F6F90A2317220649034803F0B2FFBB
:1031900000BF80BDF4BA00084408002000100140C0
:1031A000500300200CBB000880B586B000AFF8606B
:1031B000B9607A60534BDB687B619AE07B69DB0026
:1031C000FA681344D3E900234FF000004E49FCF79E
:1031D000C3FF02460B4610461946FDF72FFC034677
:1031E0001946002001F06CFD7B69DB00BA681344CE
:1031F000D3E900234FF000004349FCF7ADFF02463E
:103200000B4610461946FDF719FC034619460120E6
:1032100001F056FD7B69DB00FA681344D3E9002313
:1032200010461946FDF70AFC03461946022001F034
:1032300047FD7B69DB00BA681344D3E900231046DD
:103240001946FDF7FBFB03461946032001F038FD44
:103250007B69DB00FA681344D3E900231046194662
:10326000FDF7ECFB03461946042001F029FD7B69BC
:10327000DB00BA681344D3E9002310461946FDF772
:10328000DDFB03461946052001F01AFD7B69DB00D2
:10329000FA681344D3E900234FF000001A49FCF701
:1032A0005BFF02460B4610461946FDF7C7FB034677
:1032B0001946062001F004FD7B69DB00BA6813445F
:1032C000D3E900234FF000000F49FCF745FF024609
:1032D0000B4610461946FDF7B1FB03461946072079
:1032E00001F0EEFC7B68184604F08EFD7B69013B23
:1032F0007B617B69002BBFF661AF00BF00BF183751
:10330000BD4680BDA00200200080664080B586B02A
:1033100000AFF860B9607A600A232E2258495948F4
:1033200003F0E8FE00237B619AE07B69DB00FA682A
:103330001344D3E900234FF000005349FCF70CFF7E
:1033400002460B4610461946FDF778FB0346194620
:10335000002001F0B5FC7B69DB00BA681344D3E9B7
:1033600000234FF000004849FCF7F6FE02460B46EA
:1033700010461946FDF762FB03461946012001F08D
:103380009FFC7B69DB00FA681344D3E900231046F5
:103390001946FDF753FB03461946022001F090FC45
:1033A0007B69DB00BA681344D3E900231046194651
:1033B000FDF744FB03461946032001F081FC7B69BD
:1033C000DB00FA681344D3E9002310461946FDF7E1
:1033D00035FB03461946042001F072FC7B69DB00D3
:1033E000BA681344D3E9002310461946FDF726FBBB
:1033F00003461946052001F063FC7B69DB00FA688F
:103400001344D3E900234FF000001F49FCF7A4FE4A
:1034100002460B4610461946FDF710FB03461946B7
:10342000062001F04DFC7B69DB00BA681344D3E948
:1034300000234FF000001449FCF78EFE02460B46B5
:1034400010461946FDF7FAFA03461946072001F01F
:1034500037FC7B68184604F0D7FC7B6901337B613D
:103460000A4BDB687A699A42FFF65FAF0A232A2289
:103470000749044803F03EFE00BF1837BD4680BD33
:1034800024BB00084408002000806640A002002001
:1034900054BB000880B586B000AFF860B9607A60B0
:1034A0000A2317225849594803F024FE00237B6160
:1034B0009AE07B69DB00FA681344D3E900234FF0FC
:1034C00000005349FCF748FE02460B4610461946D9
:1034D000FDF7B4FA03461946002001F0F1FB7B69C1
:1034E000DB00BA681344D3E900234FF000004849D9
:1034F000FCF732FE02460B4610461946FDF79EFACF
:1035000003461946012001F0DBFB7B69DB00FA680A
:103510001344D3E9002310461946FDF78FFA0346FA
:103520001946022001F0CCFB7B69DB00BA6813442A
:10353000D3E9002310461946FDF780FA03461946E1
:10354000032001F0BDFB7B69DB00FA681344D3E97B
:10355000002310461946FDF771FA03461946042068
:1035600001F0AEFB7B69DB00BA681344D3E90023AA
:1035700010461946FDF762FA03461946052001F088
:103580009FFB7B69DB00FA681344D3E900234FF00B
:1035900000001F49FCF7E0FD02460B4610461946A5
:1035A000FDF74CFA03461946062001F089FB7B69BA
:1035B000DB00BA681344D3E900234FF0000014493C
:1035C000FCF7CAFD02460B4610461946FDF736FACF
:1035D00003461946072001F073FB7B68184604F088
:1035E00013FC7B6901337B610A4BDB687A699A4281
:1035F000FFF65FAF0A2322220749044803F07AFD51
:1036000000BF1837BD4680BD80BB000844080020BD
:1036100000806640A002002098BB000880B586B0FC
:1036200000AFF860B9607A600A23242258495948EB
:1036300003F060FD00237B619AE07B69DB00FA68A0
:103640001344D3E900234FF000005349FCF784FDF5
:1036500002460B4610461946FDF7F0F90346194697
:10366000002001F02DFB7B69DB00BA681344D3E92D
:1036700000234FF000004849FCF76EFD02460B4660
:1036800010461946FDF7DAF903461946012001F004
:1036900017FB7B69DB00FA681344D3E9002310466B
:1036A0001946FDF7CBF903461946022001F008FB45
:1036B0007B69DB00BA681344D3E90023104619463E
:1036C000FDF7BCF903461946032001F0F9FA7B69BE
:1036D000DB00FA681344D3E9002310461946FDF7CE
:1036E000ADF903461946042001F0EAFA7B69DB00D4
:1036F000BA681344D3E9002310461946FDF79EF932
:1037000003461946052001F0DBFA7B69DB00FA6805
:103710001344D3E900234FF000001F49FCF71CFDC0
:1037200002460B4610461946FDF788F9034619462E
:10373000062001F0C5FA7B69DB00BA681344D3E9BF
:1037400000234FF000001449FCF706FD02460B462B
:1037500010461946FDF772F903461946072001F095
:10376000AFFA7B68184604F04FFB7B6901337B613D
:103770000A4BDB687A699A42FFF65FAF0A2322227E
:103780000749044803F0B6FC00BF1837BD4680BDAA
:10379000BCBB00084408002000806640A002002056
:1037A000E4BB000880B582B002AF04F0CBFA00F0B1
:1037B00027FA00F0C3FA00F069FA00F095FA0D223A
:1037C000B149B24803F019FDFFF758F8B04801F0CD
:1037D000CBFAFEF78DFB00224FF40051AD4801F00B
:1037E0001DFE4FF47A7004F00FFB0A231822AA4939
:1037F000A64803F07FFCA94B0193A94B009301233A
:1038000001226821A24800F0E7FC0346012B16D1F3
:1038100001224FF400519F4801F000FE0A231122BB
:10382000A0499A4803F066FC0A231F229E49974844
:1038300003F060FC4FF47A7004F0E6FA0EE00A231D
:1038400021229A49914803F055FC4FF400519148C8
:1038500001F0FCFDFA2004F0D7FAF6E7944B1B7850
:10386000002B00F08D80924B00221A70914B1B6848
:1038700019468548FFF740F80D228349834803F035
:10388000BCFC8D4B1B681B78623B112B77D801A2C7
:1038900052F823F07F390008DD3800087F3900082E
:1038A0007F3900087F3900087F390008EB380008AD
:1038B0007F3900087F3900087F3900087F39000808
:1038C00055390008133900087F3900087F3900088E
:1038D0007F3900087F39000831390008774B002212
:1038E0001A70774B01221A704AE0734B9B68D8B26A
:1038F000714BDB68D9B2734B734AFFF7C5FA6F4B54
:1039000000221A70714B00221A706D4B01221A703E
:1039100036E0694BDB68D9B26A4B6B4A0F20FFF780
:10392000B3FA6A4B00221A70654B01221A7027E025
:10393000614BDB68D9B2634B634A0520FFF7A4FAF9
:103940005E4B00221A70614B00221A705C4B012200
:103950001A7015E0584B5B68D8B2574BDB68DBB286
:10396000584A0192584A009212220021FFF76CF83F
:10397000524B00221A70554B00221A7000E000BF13
:103980004B4B1B7883F00103DBB2002B00F01C8152
:10399000494B1B681B78623B112B00F20C8101A282
:1039A00052F823F0133B0008ED390008B73B00083C
:1039B000B73B0008B73B0008B73B0008093A0008CE
:1039C000B73B0008B73B0008B73B0008B73B00080F
:1039D0006F3A0008293A0008B73B0008B73B0008D7
:1039E000B73B0008B73B00084F3A0008344B1B7840
:1039F000002B00F0E280FFF7B3FB304B01221A707E
:103A00002F4B00221A70D8E02D4B1B78002B00F0B2
:103A1000D680294B1B691A462A492B48FFF776FCAA
:103A2000274B00221A70CAE0254B1B78002B00F0B0
:103A3000C880214B1B691A4622492348FFF7EEFD37
:103A4000224B01221A701E4B00221A70B9E01C4B47
:103A50001B78002B00F0B780174B1B691A461949D9
:103A60001948FFF717FD164B00221A70ABE0174BF1
:103A70001B78002B2CD0104B1B691A461149124899
:103A8000FFF792FBA0E000BF200D002044080020BB
:103A9000500300200010014008BC00086F12833B57
:103AA00048E17A3F24BC00085CBC000838BC000830
:103AB000E400002048000020A0020020E6000020D2
:103AC000E50000202004002090080020E7000020EE
:103AD0000A232A223F49404803F00CFB0A231922FB
:103AE0003E493D4803F006FB3D4B3E4A28210F204E
:103AF000FFF7CAF90A223A493A48FFF78FFD0A232D
:103B000027223949344803F0F5FA384B01221A705C
:103B10005AE0364B1B78002B21D0354B1B78002BFD
:103B200005D0344800F098FDFEF756FB4CE00A2320
:103B300021223149284803F0DDFA0A231B222749B4
:103B4000254803F0D7FAFFF70BFB0A2321222B4964
:103B5000214803F0CFFA264B01221A7034E00A23E1
:103B60002A221C491C4803F0C5FA0A231F222249B5
:103B7000194803F0BFFA0A2319221849164803F01E
:103B8000B9FA174B174A28210F20FFF77DF90A22AF
:103B900013491448FFF742FDFFF7E2FA0A232222F5
:103BA00016490D4803F0A6FA104B01221A70104B6B
:103BB00001221A7008E000BF06E000BF04E000BF69
:103BC00002E000BF00E000BF4FF4FA7004F01CF9FF
:103BD00044E600BF7CBC000844080020A8BC0008E4
:103BE0002004002090080020C4BC0008E70000204A
:103BF000E600002050030020F0BC000810BD0008C3
:103C000080B590B000AF07F11803282200211846B4
:103C100004F0AFFA3B1D00221A605A609A60DA6025
:103C20001A610123BB614FF48033FB6100233B62C7
:103C30000123BB6202237B634FF48033BB634FF4E9
:103C4000E013FB6307F11803184602F0F3FD034687
:103C5000002B01D000F0D8F80F237B600223BB605B
:103C60000023FB604FF480633B6100237B613B1DBD
:103C70000221184603F060F80346002B01D000F043
:103C8000C3F800BF4037BD4680BD000080B500AF1F
:103C9000124B134A1A60114B124A5A600F4B002202
:103CA0009A600E4B0022DA600C4B4FF480421A618E
:103CB0000A4B00225A61094B00229A61074B0022ED
:103CC000DA61064B00221A62044801F0D9FB034670
:103CD000002B01D000F098F800BF80BD50030020F9
:103CE00000540040A086010080B500AF114B124A7D
:103CF0001A60104B4FF4E1325A600E4B00229A606A
:103D00000C4B0022DA600B4B00221A61094B0C228B
:103D10005A61084B00229A61064B0022DA6105487D
:103D200003F098F90346002B01D000F06DF800BFB6
:103D300080BD00BF440800200038014080B588B035
:103D400000AF07F1100300221A605A609A60DA602F
:103D5000244B9B69234A43F010039361214B9B69D9
:103D600003F01003FB60FB681E4B9B691D4A43F088
:103D7000200393611B4B9B6903F02003BB60BB686E
:103D8000184B9B69174A43F004039361154B9B69D9
:103D900003F004037B607B68124B9B69114A43F07C
:103DA000080393610F4B9B6903F008033B603B687A
:103DB00000224FF400510C4801F030FB4FF4005347
:103DC0003B6101237B610023BB610223FB6107F19F
:103DD00010031946044801F09DF900BF2037BD4685
:103DE00080BD00BF001002400010014080B483B0CD
:103DF00000AF7860034B01221A7000BF0C37BD463C
:103E000080BC7047E400002080B400AF72B600BFF1
:103E1000FEE7000080B485B000AF154B9B69144AE3
:103E200043F001039361124B9B6903F00103BB60F4
:103E3000BB680F4BDB690E4A43F08053D3610C4BD8
:103E4000DB6903F080537B607B680A4B5B68FB6037
:103E5000FB6823F0E063FB60FB6843F00073FB60EA
:103E6000044AFB68536000BF1437BD4680BC7047EE
:103E7000001002400000014080B588B000AF7860BB
:103E800007F1100300221A605A609A60DA607B68BA
:103E90001B68154A934223D1144B9B69134A43F084
:103EA00008039361114B9B6903F00803FB60FB68F7
:103EB000C0233B6112237B610323FB6107F11003E5
:103EC00019460B4801F026F9084BDB69074A43F411
:103ED0000013D361054BDB6903F40013BB60BB68BF
:103EE00000BF2037BD4680BD005400400010024096
:103EF000000C014080B588B000AF786007F1100376
:103F000000221A605A609A60DA607B681B68204A57
:103F1000934239D11F4B9B691E4A43F480439361FE
:103F20001C4B9B6903F48043FB60FB68194B9B6946
:103F3000184A43F004039361164B9B6903F0040392
:103F4000BB60BB684FF400733B6102237B610323BA
:103F5000FB6107F1100319460F4801F0DBF84FF43D
:103F600080633B6100237B610023BB6107F1100389
:103F70001946094801F0CEF800220021252000F062
:103F8000E0FF252000F0F9FF00BF2037BD4680BDCF
:103F900000380140001002400008014080B400AF2A
:103FA000FEE780B400AFFEE780B400AFFEE780B468
:103FB00000AFFEE780B400AFFEE780B400AF00BF03
:103FC000BD4680BC704780B400AF00BFBD4680BC1A
:103FD000704780B400AF00BFBD4680BC704780B55D
:103FE00000AF03F0F5FE00BF80BD000080B500AF5C
:103FF000024803F027F900BF80BD00BF440800203D
:1040000080B400AF01231846BD4680BC704780B520
:1040100082B000AF7860396004F056F9034616228A
:104020001A604FF0FF3318460837BD4680BD80B593
:1040300082B000AF78604FF0FF317868FFF7E7FF9C
:10404000FEE780B586B000AFF860B9607A60002303
:104050007B610AE0AFF300800146BB685A1CBA607E
:10406000CAB21A707B6901337B617A697B689A42B4
:10407000F0DB7B6818461837BD4680BD80B586B03A
:1040800000AFF860B9607A6000237B6109E0BB682B
:104090005A1CBA601B781846FEF73CFB7B6901335B
:1040A0007B617A697B689A42F1DB7B681846183736
:1040B000BD4680BD80B483B000AF78604FF0FF3361
:1040C00018460C37BD4680BC704780B483B000AF43
:1040D000786039603B684FF400525A6000231846FC
:1040E0000C37BD4680BC704780B483B000AF7860A9
:1040F000012318460C37BD4680BC704780B485B09C
:1041000000AFF860B9607A60002318461437BD46E6
:1041100080BC704780B586B000AF7860144A154BFC
:10412000D31A7B617B693B61134B1B68002B02D167
:10413000114B124A1A60104B1A687B6813443A6993
:104140009A4207D204F0C0F803460C221A604FF0DE
:10415000FF3309E0084B1B68FB60074B1A687B685C
:104160001344054A1360FB6818461837BD4680BDE6
:104170000050002000040000E8000020E80D0020AE
:1041800080B400AF00BFBD4680BC7047FFF7F8FFAA
:104190000B480C490C4A002302E0D458C4500433A5
:1041A000C4188C42F9D3094A094C002301E013607A
:1041B0000432A242FBD304F08DF8FFF7F3FA704704
:1041C00000000020C800002090C10008C8000020A6
:1041D000E80D0020FEE7000080B588B004AF7860ED
:1041E000084611461A460346FB700B46BB70134641
:1041F0007B70FB785B00DAB2204B1A70204ABB69F7
:104200001360204AFB6913601C4B1B7899B24FF472
:104210007A7302930123019307F10F0300930123A3
:104220007522786801F068FCFB7B712B02D0FB7B68
:10423000682B1DD10023BB73104B1B7899B24FF430
:104240007A7302930123019307F10E030093012374
:104250006B22786801F056FBBB781946786800F04D
:1042600013F87B781946786800F09EF8012300E087
:10427000002318461037BD4680BD00BFC40D002086
:10428000CC0D0020D80D002080B588B004AF786038
:104290000B46FB70FB78032B66D801A252F823F083
:1042A000B1420008DF4200080D4300083B4300080C
:1042B0003B4B4FF08D421A600023FB73394B1B7848
:1042C00099B24FF47A7302930123019307F10F031C
:1042D000009301231C22786801F014FB5BE0304B53
:1042E0004FF08C421A600823FB732E4B1B7899B257
:1042F0004FF47A7302930123019307F10F030093A4
:1043000001231C22786801F0FDFA44E0244B4FF0B1
:104310008B421A601023FB73224B1B7899B24FF427
:104320007A7302930123019307F10F030093012392
:104330001C22786801F0E6FA2DE0194B4FF08A4212
:104340001A601823FB73174B1B7899B24FF47A73DA
:1043500002930123019307F10F03009301231C2211
:10436000786801F0CFFA16E00D4B4FF08C421A60DE
:104370000823FB730B4B1B7899B24FF47A730293AB
:104380000123019307F10F03009301231C22786896
:1043900001F0B8FA00BF00BF1037BD4680BD00BFB6
:1043A000D40D0020C40D002080B588B004AF786023
:1043B0000B46FB70FB78032B62D801A252F823F066
:1043C000D1430008FD430008294400085544000873
:1043D000384B394A1A600023FB73384B1B7899B26B
:1043E0004FF47A7302930123019307F10F030093B3
:1043F00001231B22786801F085FA57E02D4B304AE3
:104400001A600823FB732D4B1B7899B24FF47A7313
:1044100002930123019307F10F03009301231B2251
:10442000786801F06FFA41E0224B264A1A601023A7
:10443000FB73224B1B7899B24FF47A7302930123DA
:10444000019307F10F03009301231B22786801F009
:1044500059FA2BE0174B1C4A1A601823FB73174BB1
:104460001B7899B24FF47A7302930123019307F1F9
:104470000F03009301231B22786801F043FA15E033
:104480000C4B0F4A1A600823FB730C4B1B7899B234
:104490004FF47A7302930123019307F10F03009302
:1044A00001231B22786801F02DFA00BF00BF1037EE
:1044B000BD4680BDC80D002000000343C40D002090
:1044C00000008342333303423333834180B58AB0E3
:1044D00004AF7860244B1B7899B24FF47A7302933F
:1044E0000E23019307F10803009301233B22786810
:1044F00001F002FB3B7A1B021AB27B7A1BB2134318
:104500001AB21A4B1A80BB7A1B021AB2FB7A1BB280
:1045100013431AB2154B5A803B7B1B021AB27B7BAA
:104520001BB213431AB2114B9A803B7C1B021AB286
:104530007B7C1BB213431AB20C4BDA80BB7C1B0290
:104540001AB2FB7C1BB213431AB2084B1A813B7D93
:104550001B021AB27B7D1BB213431AB2034B5A8162
:1045600000BF1837BD4680BDC40D0020080D0020D7
:1045700090B587B000AF78600B467B8000237B61ED
:1045800000233B610023FB607B88002B01D10123CA
:104590007B8000237B811DE07868FFF797FF2B4B22
:1045A000B3F906301A467B6913447B61274BB3F994
:1045B00008301A463B6913443B61244BB3F90A3077
:1045C0001A46FB681344FB60032003F01DFC7B8943
:1045D00001337B817A897B889A42DDD37869FCF745
:1045E00037FB04467B881846FCF72EFB034619462A
:1045F0002046FCF735FC03461A46154B1A6038690D
:10460000FCF726FB04467B881846FCF71DFB034697
:1046100019462046FCF724FC03461A460C4B5A6008
:10462000F868FCF715FB04467B881846FCF70CFB82
:10463000034619462046FCF713FC03461A46044B72
:104640009A6000BF1C37BD4690BD00BF080D00201A
:104650003C0D002000000000B0B586B000AF7860CF
:104660007868FFF733FFB04BB3F900301846FCF71A
:10467000EFFA0246AD4B1B6819461046FCF7F0FBFB
:1046800003461A46AA4B1A60A74BB3F902301846E4
:10469000FCF7DEFA0246A54B1B6819461046FCF7EC
:1046A000DFFB03461A46A24B5A609F4BB3F9043016
:1046B0001846FCF7CDFA02469C4B1B68194610467B
:1046C000FCF7CEFB03461A46994B9A60994B1B6840
:1046D0001846FBF7A1FE90A3D3E90023FBF7F4FEF5
:1046E00002460B4614461D468F4BB3F9063018465A
:1046F000FBF780FE8AA3D3E90023FBF7E5FE024621
:104700000B4620462946FBF729FD02460B46144678
:104710001D46894B1B681846FBF77EFE80A3D3E934
:104720000023FBF7D1FE02460B4620462946FBF745
:1047300015FD02460B4610461946FCF77FF9034665
:104740007B61012003F060FB774BB3F9063018461C
:10475000FCF77EFA0346784A1360764A7B69136059
:10476000764B1B681846FBF757FE6BA3D3E9002373
:10477000FBF7AAFE02460B4614461D466A4BB3F9E8
:1047800008301846FBF736FE65A3D3E90023FBF794
:104790009BFE02460B4620462946FBF7DFFC0246FD
:1047A0000B4614461D46664B1B681846FBF734FE45
:1047B0005BA3D3E90023FBF787FE02460B462046A6
:1047C0002946FBF7CBFC02460B4610461946FCF780
:1047D00035F903463B61012003F016FB524BB3F958
:1047E00008301846FCF734FA0346554A1360534A1A
:1047F0003B691360534B1B681846FBF70DFE46A33D
:10480000D3E90023FBF760FE02460B4614461D4623
:10481000454BB3F90A301846FBF7ECFD40A3D3E94A
:104820000023FBF751FE02460B4620462946FBF7C4
:1048300095FC02460B4614461D46434B1B68184622
:10484000FBF7EAFD36A3D3E90023FBF73DFE024662
:104850000B4620462946FBF781FC02460B461046D4
:104860001946FCF7EBF80346FB60012003F0CCFA95
:104870002D4BB3F90A301846FCF7EAF90346324AE1
:104880001360304AFB681360304B1B681946786927
:10489000FCF728F903461A46254BDA602B4B5B6878
:1048A00019463869FCF71EF903461A46204B1A616F
:1048B000264B9B681946F868FCF714F903461A461C
:1048C0001B4B5A611A4BDB68214A12681146184685
:1048D000FCF7C6FA03461A46154BDA60144B1B69FF
:1048E0001B4A126811461846FCF7BAFA03461A46E4
:1048F0000F4B1A610E4B5B69154A12681146184638
:10490000FCF7AEFA03461A46094B5A6100BF183746
:10491000BD46B0BDAFF30080355EBA490C02EF3F33
:104920005839B4C876BE8F3F080D0020D40D002042
:1049300020080020F0000020EC000020F8000020FB
:10494000F400002000010020FC0000203C0D0020AD
:10495000C80D002080B588B004AF0346FB710B463C
:10496000BB7113467B717B79002B01D001237B71D6
:10497000244B1868FB799AB20A230293012301930E
:1049800007F10F0300930123802101F0B5F80346DE
:10499000002B01D0012331E0BB79012202FA03F39D
:1049A0005BB263F07F035BB2DB435AB2FB7B5BB26B
:1049B00013405BB2DBB2FB737B7903F00102BB797E
:1049C00002FA03F35AB2FB7B5BB213435BB2DBB276
:1049D000FB730C4B1868FB799AB20A2302930123EC
:1049E000019307F10F0300930123802100F08AFF58
:1049F0000346002B01D0012300E0002318461037A6
:104A0000BD4680BDE00D002080B584B002AF062316
:104A1000FB71094B1868FA1D0A230093012300213A
:104A200000F072FE0346002B01D1002300E00123B9
:104A300018460837BD4680BDE00D002080B582B025
:104A400000AF0346FB71FB791A4604210020FFF7F3
:104A500081FF034618460837BD4680BD80B582B049
:104A600000AF0346FB71FB791A4607210020FFF7D0
:104A700071FF034618460837BD4680BD80B582B039
:104A800000AF0346FB71FB791A4605210020FFF7B2
:104A900061FF034618460837BD4680BD0000000090
:104AA00080B588B004AF0346FB80FB8840F2F55226
:104AB000934202D90323FB7241E0FB88182B02D8F2
:104AC000FF23FB723BE0FB881846FCF7BDF803466A
:104AD0001846FBF7A1FC4FF00002294BFBF7F4FC52
:104AE00002460B4624A1D1E90001FBF717FE02465E
:104AF0000B46104619464FF00002224BFBF72CFBE9
:104B000002460B4610461946FBF798FF0346FB602A
:104B1000F868FBF781FC4FF000021B4BFBF71EFB14
:104B200002460B461046194604F00AFD02460B46A3
:104B300010461946FBF762FF0346DBB2FB72012009
:104B4000FFF77CFF114B18680A230293012301939E
:104B500007F10B0300930123FE22802100F0D2FE17
:104B60000020FFF76BFF0120FFF778FF00231846B6
:104B70001037BD4680BD00BF0000000084D77741DC
:104B80000000B0400000F03F0000E03FE00D0020DA
:104B900080B588B004AF0346FB710B46BB8013465B
:104BA0007B80FB799B00DBB20633FB73BB88DBB2F7
:104BB0003B72BB881B0A9BB2DBB27B727B88DBB289
:104BC000BB727B881B0A9BB2DBB2FB720C4B186872
:104BD000FB7B9AB20A2302930423019307F1080393
:104BE00000930123802100F08DFE0346002B01D0AD
:104BF000012300E0002318461037BD4680BD00BFEA
:104C0000E00D002080B582B000AF0346FB710B467B
:104C1000BB801346BB71BB88B3F5805F02D340F6FF
:104C2000FF73BB80BB79002B25D0BB88002B08D13C
:104C3000FB7900224FF480511846FFF7A9FF034685
:104C40003AE0BB8840F6FF72934208D1FB794FF4FB
:104C5000805200211846FFF79BFF03462CE0BB88DB
:104C6000C3F57F630F339AB2FB7900211846FFF733
:104C70008FFF034620E0BB8840F6FF72934208D1C5
:104C8000FB7900224FF480511846FFF781FF03465D
:104C900012E0BB88002B08D1FB794FF48052002131
:104CA0001846FFF775FF034606E0BA88FB79002136
:104CB0001846FFF76DFF034618460837BD4680BD0E
:104CC00080B584B000AF03463960FB714FF000013E
:104CD0003868FCF7AFF90346002B02D04FF0000311
:104CE0003B601D493868FCF7C3F90346002B01D02F
:104CF000194B3B603868FBF78FFB4FF00002174BF6
:104D0000FBF7E2FB02460B46104619464FF0000245
:104D1000134BFBF703FD02460B46104619464FF0B6
:104D20000002104BFBF71AFA02460B4610461946D2
:104D3000FBF784FE0346FB60F868FCF7B9F903460D
:104D400099B2FB7900221846FFF75CFF034618462C
:104D50001037BD4680BD00BF0000344300007940DD
:104D6000008066400000594080B582B000AF786096
:104D7000074A7B681360FFF747FE3020FFF790FE7D
:104D80000120FFF77BFE002318460837BD4680BD93
:104D9000E00D002080B485B000AF78607B6803F040
:104DA0000703FB600C4BDB68BB60BA684FF6FF0380
:104DB0001340BB60FB681A02BB68134343F0BF6338
:104DC00043F40033BB60044ABB68D36000BF1437B0
:104DD000BD4680BC704700BF00ED00E080B400AF6E
:104DE000044BDB681B0A03F007031846BD4680BC72
:104DF000704700BF00ED00E080B483B000AF034611
:104E0000FB7197F90730002B0BDBFB7903F01F02D6
:104E1000064997F907305B09012000FA02F241F8D0
:104E2000232000BF0C37BD4680BC704700E100E086
:104E300080B483B000AF03463960FB7197F9073047
:104E4000002B0ADB3B68DAB20C4997F907301201F4
:104E5000D2B20B4483F800230AE03B68DAB2084977
:104E6000FB7903F00F03043B1201D2B20B441A7614
:104E700000BF0C37BD4680BC704700BF00E100E0BA
:104E800000ED00E080B489B000AFF860B9607A60EE
:104E9000FB6803F00703FB61FB69C3F10703042B05
:104EA00028BF0423BB61FB690433062B02D9FB69CD
:104EB000033B00E000237B614FF0FF32BB6902FA45
:104EC00003F3DA43BB681A407B699A404FF0FF3125
:104ED0007B6901FA03F3D9437B680B4013431846FF
:104EE0002437BD4680BC704780B582B000AF786083
:104EF0007B68013BB3F1807F01D301230FE00A4AB5
:104F00007B68013B53600F214FF0FF30FFF790FFAC
:104F1000054B00229A60044B07221A6000231846B2
:104F20000837BD4680BD00BF10E000E080B582B00C
:104F300000AF78607868FFF72DFF00BF0837BD46E7
:104F400080BD80B586B000AF0346B9607A60FB7360
:104F500000237B61FFF742FF78617A68B96878695E
:104F6000FFF790FF024697F90F3011461846FFF7FA
:104F70005FFF00BF1837BD4680BD80B582B000AF6F
:104F80000346FB7197F907301846FFF735FF00BF5E
:104F90000837BD4680BD80B582B000AF78607868C4
:104FA000FFF7A2FF034618460837BD4680BD80B410
:104FB00085B000AF78600023FB737B6893F82130E5
:104FC000DBB2022B08D07B6804229A637B68002244
:104FD00083F82020012320E07B681B681A687B6827
:104FE0001B6822F00E021A607B681B681A687B68D7
:104FF0001B6822F001021A607B681A6C7B68DB6B0D
:10500000012101FA02F25A607B68012283F8212013
:105010007B68002283F82020FB7B18461437BD46AE
:1050200080BC704780B584B000AF78600023FB730C
:105030007B6893F82130DBB2022B05D07B68042219
:105040009A630123FB7351E07B681B681A687B68D5
:105050001B6822F00E021A607B681B681A687B6866
:105060001B6822F001021A607B681B68224A934287
:1050700029D07B681B68214A934222D07B681B6839
:105080001F4A93421AD07B681B681E4A934212D073
:105090007B681B681C4A93420AD07B681B681B4ACA
:1050A000934202D14FF480130EE04FF080730BE077
:1050B0004FF4803308E04FF4805305E04FF48073E1
:1050C00002E0102300E00123114A53607B680122B3
:1050D00083F821207B68002283F820207B685B6BAB
:1050E000002B03D07B685B6B78689847FB7B184686
:1050F0001037BD4680BD00BF080002401C000240C2
:105100003000024044000240580002406C0002405F
:105110000000024080B48BB000AF7860396000239B
:105120007B6200233B6269E101227B6A02FA03F39E
:10513000FB613B681B68FA691340BB61BA69FB6994
:105140009A4240F058813B685B689A4A93425ED02D
:10515000984A934275D8984A934258D0964A9342B7
:105160006FD8964A934252D0944A934269D8944A4F
:1051700093424CD0924A934263D8924A934246D08B
:10518000904A93425DD8122B2AD8122B59D801A2EB
:1051900052F823F00F520008E9510008FB510008B3
:1051A0003D52000843520008435200084352000891
:1051B000435200084352000843520008435200087B
:1051C000435200084352000843520008435200086B
:1051D0004352000843520008F151000805520008EC
:1051E000794A934213D02CE03B68DB683B6229E0AC
:1051F0003B68DB6804333B6224E03B68DB680833D0
:105200003B621FE03B68DB680C333B621AE03B68A3
:105210009B68002B02D104233B6213E03B689B6830
:10522000012B05D108233B627B68FA691A6109E00A
:1052300008233B627B68FA695A6103E000233B6202
:1052400000E000BFBB69FF2B01D87B6801E07B68F1
:1052500004337B61BB69FF2B02D87B6A9B0002E0B1
:105260007B6A083B9B003B617B691A680F213B69A5
:1052700001FA03F3DB431A40396A3B6901FA03F38D
:105280001A437B691A603B685B6803F08053002B0C
:1052900000F0B1804D4B9B694C4A43F00103936190
:1052A0004A4B9B6903F00103BB60BB68484A7B6AB9
:1052B0009B08023352F82330FB607B6A03F0030340
:1052C0009B000F2202FA03F3DB43FA681340FB60F2
:1052D0007B68404A934213D07B683F4A93420DD08B
:1052E0007B683E4A934207D07B683D4A934201D196
:1052F000032306E0042304E0022302E0012300E08C
:1053000000237A6A02F0030292009340FA68134382
:10531000FB602F497B6A9B080233FA6841F823201F
:105320003B685B6803F48013002B06D02D4B9A6812
:105330002C49BB6913438B6006E02A4B9A68BB6912
:10534000DB43284913408B603B685B6803F4001320
:10535000002B06D0234BDA682249BB691343CB608C
:1053600006E0204BDA68BB69DB431E491340CB6083
:105370003B685B6803F40033002B06D0194B5A6876
:105380001849BB6913434B6006E0164B5A68BB696A
:10539000DB43144913404B603B685B6803F4803384
:1053A000002B21D00F4B1A680E49BB6913430B60C9
:1053B00021E000BF00003210000031100000221078
:1053C0000000211000001210000011100010024017
:1053D0000000014000080140000C014000100140A5
:1053E00000140140000401400B4B1A68BB69DB4309
:1053F000094913400B607B6A01337B623B681A6882
:105400007B6A22FA03F3002B7FF48EAE00BF00BF4D
:105410002C37BD4680BC70470004014080B483B087
:1054200000AF78600B467B8013467B707B78002B47
:1054300003D07A887B681A6103E07B881A047B6852
:105440001A6100BF0C37BD4680BC704780B485B080
:1054500000AF78600B467B807B68DB68FB607A88F6
:10546000FB6813401A04FB68D9437B880B401A433E
:105470007B681A6100BF1437BD4680BC70470000CE
:1054800080B584B000AF78607B68002B01D1012328
:105490002BE17B6893F83D30DBB2002B06D17B68B3
:1054A000002283F83C207868FEF7E6FC7B68242223
:1054B00083F83D207B681B681A687B681B6822F0B4
:1054C00001021A607B681B681A687B681B6842F4DB
:1054D00000421A607B681B681A687B681B6822F4AC
:1054E00000421A6001F070FDF8607B685B68814AD9
:1054F000934207D8FB68804A934294BF012300235C
:10550000DBB206E0FB687D4A934294BF012300238F
:10551000DBB2002B01D00123E7E0FB68784AA2FB55
:1055200003239B0CBB607B681B685B6823F03F0117
:105530007B681B68BA680A435A607B681B681B6AF1
:1055400023F03F017B685B686A4A934202D8BB68DC
:10555000013309E0BB684FF4967202FB03F3694A1A
:10556000A2FB03239B0901337A6812680B43136281
:105570007B681B68DB6923F44F4222F0FF027B68E3
:105580005B685C498B4219D8FB68591E7B685B6875
:105590005B00B1FBF3F3591C40F6FC730B40002B8E
:1055A0000AD0FB68591E7B685B685B00B1FBF3F3B4
:1055B0000133C3F30B0351E004234FE07B689B6886
:1055C000002B11D1FB68581E7B6859680B465B00A5
:1055D0000B44B0FBF3F30133C3F30B03002B0CBFFD
:1055E00001230023DBB212E0FB68581E7B68596878
:1055F0000B469B000B4499000B44B0FBF3F30133C3
:10560000C3F30B03002B0CBF01230023DBB2002BE1
:1056100001D0012322E07B689B68002B0ED1FB6840
:10562000581E7B6859680B465B000B44B0FBF3F3D4
:105630000133C3F30B0343F400430FE0FB68581E30
:105640007B6859680B469B000B4499000B44B0FBE8
:10565000F3F30133C3F30B0343F440437968096860
:105660001343CB617B681B681B6823F0C0017B6818
:10567000DA697B681B6A1A437B681B680A431A60F5
:105680007B681B689B6823F4034323F0FF037A685D
:1056900011697A68D26811437A6812680B43936083
:1056A0007B681B68DB6823F0FF017B685A697B68B5
:1056B0009B691A437B681B680A43DA607B681B6836
:1056C0001A687B681B6842F001021A607B6800223E
:1056D0001A647B68202283F83D207B6800221A63CD
:1056E0007B68002283F83E20002318461037BD4611
:1056F00080BD00BFA08601007F841E00FF083D0022
:1057000083DE1B43D34D621080B588B002AFF860D2
:105710007A601A460B467B8113463B8102F06AFB96
:105720007861FB6893F83D30DBB2202B40F0E080DD
:105730007B690093192301227049F86800F044FE48
:105740000346002B01D00223D3E0FB6893F83C30E2
:10575000012B01D10223CCE0FB68012283F83C201D
:10576000FB681B681B6803F00103012B07D0FB6873
:105770001B681A68FB681B6842F001021A60FB682C
:105780001B681A68FB681B6822F400621A60FB68D9
:10579000212283F83D20FB68102283F83E20FB681D
:1057A00000221A64FB687A685A62FB683A895A8553
:1057B000FB685B8D9AB2FB681A85FB68504ADA6217
:1057C00079897B693A6AF86800F0FEFB0346002B92
:1057D00001D001238DE000233B61FB681B685B69FE
:1057E0003B61FB681B689B693B613B6966E07A69CA
:1057F000396AF86800F002FF0346002B0DD0FB6801
:105800001B6C042B07D1FB681B681A68FB681B68BC
:1058100042F400721A6001236BE0FB685B6A1A783D
:10582000FB681B681A61FB685B6A5A1CFB685A625A
:10583000FB685B8D9BB2013B9AB2FB685A85FB68A3
:105840001B8D013B9AB2FB681A85FB681B685B697C
:1058500003F00403042B1BD1FB681B8D002B17D016
:10586000FB685B6A1A78FB681B681A61FB685B6AF5
:105870005A1CFB685A62FB685B8D9BB2013B9AB273
:10588000FB685A85FB681B8D013B9AB2FB681A8541
:105890007A69396AF86800F0F9FE0346002B0DD0EA
:1058A000FB681B6C042B07D1FB681B681A68FB683C
:1058B0001B6842F400721A6001231AE0FB681B8D1A
:1058C000002B94D1FB681B681A68FB681B6842F4C4
:1058D00000721A60FB68202283F83D20FB680022DA
:1058E00083F83E20FB68002283F83C20002300E080
:1058F000022318461837BD4680BD00BF02001000C5
:105900000000FFFF80B588B002AFF860084611467E
:105910001A4603467B810B463B811346FB8002F00F
:1059200069FA7861FB6893F83D30DBB2202B40F0D8
:10593000D9807B690093192301226D49F86800F032
:1059400043FD0346002B01D00223CCE0FB6893F813
:105950003C30012B01D10223C5E0FB68012283F812
:105960003C20FB681B681B6803F00103012B07D078
:10597000FB681B681A68FB681B6842F001021A602A
:10598000FB681B681A68FB681B6822F400621A60D7
:10599000FB68212283F83D20FB68402283F83E20EB
:1059A000FB6800221A64FB683A6A5A62FB68BA8C88
:1059B0005A85FB685B8D9AB2FB681A85FB684D4A75
:1059C000DA62F8883A8979897B690193BB6A009326
:1059D0000346F86800F07AFB0346002B52D00123FF
:1059E00081E07A69B96AF86800F008FE0346002B86
:1059F0000DD0FB681B6C042B07D1FB681B681A6871
:105A0000FB681B6842F400721A6001236BE0FB68BC
:105A10005B6A1A78FB681B681A61FB685B6A5A1C30
:105A2000FB685A62FB681B8D013B9AB2FB681A85C2
:105A3000FB685B8D9BB2013B9AB2FB685A85FB68A1
:105A40001B685B6903F00403042B1BD1FB681B8DEF
:105A5000002B17D0FB685B6A1A78FB681B681A6119
:105A6000FB685B6A5A1CFB685A62FB681B8D013B32
:105A70009AB2FB681A85FB685B8D9BB2013B9AB2B8
:105A8000FB685A85FB681B8D002BAAD17A69B96A1D
:105A9000F86800F0FBFD0346002B0DD0FB681B6C83
:105AA000042B07D1FB681B681A68FB681B6842F46B
:105AB00000721A60012316E0FB681B681A68FB6815
:105AC0001B6842F400721A60FB68202283F83D20B4
:105AD000FB68002283F83E20FB68002283F83C200C
