:020000040800F2
:10000000005000205D3D00086D3B0008733B000878
:10001000793B00087F3B0008853B0008000000009A
:100020000000000000000000000000008B3B000802
:10003000973B000800000000A33B0008AF3B00080E
:10004000A53D0008A53D0008A53D0008A53D000808
:10005000A53D0008A53D0008A53D0008A53D0008F8
:10006000A53D0008A53D0008A53D0008A53D0008E8
:10007000A53D0008A53D0008A53D0008A53D0008D8
:10008000A53D0008A53D0008A53D0008A53D0008C8
:10009000A53D0008A53D0008A53D0008A53D0008B8
:1000A000A53D0008A53D0008A53D0008A53D0008A8
:1000B000A53D0008A53D0008A53D0008A53D000898
:1000C000A53D0008A53D0008A53D0008A53D000888
:1000D000A53D0008BD3B0008A53D0008A53D000862
:1000E000A53D0008A53D0008A53D00080000000052
:1000F0000000000000000000000000000000000000
:0C01000000000000000000005FF808F1A3
:1001100010B5054C237833B9044B13B10448AFF341
:1001200000800123237010BDC805002000000000DE
:100130006CB1000808B5034B1BB103490348AFF38A
:10014000008008BD00000000CC0500206CB1000854
:1001500081F0004102E000BF83F0004330B54FEA78
:1001600041044FEA430594EA050F08BF90EA020FE5
:100170001FBF54EA000C55EA020C7FEA645C7FEA78
:10018000655C00F0E2804FEA5454D4EB5555B8BF9B
:100190006D420CDD2C4480EA020281EA030382EA0C
:1001A000000083EA010180EA020281EA0303362D9E
:1001B00088BF30BD11F0004F4FEA01314FF4801C71
:1001C0004CEA113102D0404261EB410113F0004F83
:1001D0004FEA03334CEA133302D0524263EB43033A
:1001E00094EA050F00F0A780A4F10104D5F1200ED8
:1001F0000DDB02FA0EFC22FA05F2801841F1000133
:1002000003FA0EF2801843FA05F359410EE0A5F106
:1002100020050EF1200E012A03FA0EFC28BF4CF037
:10022000020C43FA05F3C01851EBE37101F00045ED
:1002300007D54FF0000EDCF1000C7EEB00006EEBFA
:100240000101B1F5801F1BD3B1F5001F0CD3490884
:100250005FEA30004FEA3C0C04F101044FEA4452DB
:1002600012F5800F80F09A80BCF1004F08BF5FEA62
:10027000500C50F1000041EB045141EA050130BD42
:100280005FEA4C0C404141EB0101013C28BFB1F554
:10029000801FE9D291F0000F04BF01460020B1FA9F
:1002A00081F308BF2033A3F10B03B3F120020CDA72
:1002B0000C3208DD02F1140CC2F10C0201FA0CF050
:1002C00021FA02F10CE002F11402D8BFC2F1200CB5
:1002D00001FA02F120FA0CFCDCBF41EA0C0190406B
:1002E000E41AA2BF01EB0451294330BD6FEA0404B4
:1002F0001F3C1CDA0C340EDC04F11404C4F120029F
:1003000020FA04F001FA02F340EA030021FA04F3B0
:1003100045EA030130BDC4F10C04C4F1200220FA07
:1003200002F001FA04F340EA0300294630BD21FA45
:1003300004F0294630BD94F0000F83F4801306BF0B
:1003400081F480110134013D4EE77FEA645C18BFFF
:100350007FEA655C29D094EA050F08BF90EA020F96
:1003600005D054EA000C04BF1946104630BD91EA8E
:10037000030F1EBF0021002030BD5FEA545C05D191
:100380004000494128BF41F0004130BD14F58004D0
:100390003CBF01F5801130BD01F0004545F0FE4144
:1003A00041F470014FF0000030BD7FEA645C1ABF79
:1003B000194610467FEA655C1CBF0B46024650EAB0
:1003C000013406BF52EA033591EA030F41F40021DC
:1003D00030BD00BF90F0000F04BF0021704730B562
:1003E0004FF4806404F132044FF000054FF0000137
:1003F00050E700BF90F0000F04BF0021704730B5F8
:100400004FF4806404F1320410F0004548BF4042CC
:100410004FF000013EE700BF42004FEAE2014FEA21
:1004200031014FEA02701FBF12F07F4393F07F4FFC
:1004300081F06051704732F07F4208BF704793F0FF
:100440007F4F04BF41F40021704730B54FF4607412
:1004500001F0004521F000411CE700BF50EA010215
:1004600008BF704730B54FF000050AE050EA0102BE
:1004700008BF704730B511F0004502D5404261EB2E
:1004800041014FF4806404F132045FEA915C3FF46F
:10049000D8AE4FF003025FEADC0C18BF03325FEA0C
:1004A000DC0C18BF033202EBDC02C2F1200300FABD
:1004B00003FC20FA02F001FA03FE40EA0E0021FAE2
:1004C00002F11444BDE600BF70B54FF0FF0C4CF4D0
:1004D000E06C1CEA11541DBF1CEA135594EA0C0F82
:1004E00095EA0C0F00F0DEF82C4481EA030621EABD
:1004F0004C5123EA4C5350EA013518BF52EA0335F8
:1005000041F4801143F4801338D0A0FB02CE4FF0A9
:100510000005E1FB02E506F00042E0FB03E54FF0D9
:100520000006E1FB03569CF0000F18BF4EF0010ED1
:10053000A4F1FF04B6F5007F64F5407404D25FEACD
:100540004E0E6D4146EB060642EAC62141EA555180
:100550004FEAC52040EA5E504FEACE2EB4F1FD0CC2
:1005600088BFBCF5E06F1ED8BEF1004F08BF5FEA40
:10057000500E50F1000041EB045170BD06F00046F2
:1005800046EA010140EA020081EA0301B4EB5C049F
:10059000C2BFD4EB0C0541EA045170BD41F4801197
:1005A0004FF0000E013C00F3AB8014F1360FDEBFBC
:1005B000002001F0004170BDC4F10004203C35DA98
:1005C0000C341BDC04F11404C4F1200500FA05F31B
:1005D00020FA04F001FA05F240EA020001F00042BC
:1005E00021F0004110EBD37021FA04F642EB060132
:1005F0005EEA430E08BF20EAD37070BDC4F10C045C
:10060000C4F1200500FA04F320FA05F001FA04F21F
:1006100040EA020001F0004110EBD37041F100010B
:100620005EEA430E08BF20EAD37070BDC4F1200516
:1006300000FA05F24EEA020E20FA04F301FA05F27E
:1006400043EA020321FA04F001F0004121FA04F226
:1006500020EA020000EBD3705EEA430E08BF20EAF6
:10066000D37070BD94F0000F0FD101F00046400030
:1006700041EB010111F4801F08BF013CF7D041EAB2
:10068000060195F0000F18BF704703F000465200B6
:1006900043EB030313F4801F08BF013DF7D043EA87
:1006A0000603704794EA0C0F0CEA135518BF95EA3D
:1006B0000C0F0CD050EA410618BF52EA4306D1D1C4
:1006C00081EA030101F000414FF0000070BD50EAE3
:1006D000410606BF1046194652EA430619D094EA6D
:1006E0000C0F02D150EA013613D195EA0C0F05D157
:1006F00052EA03361CBF104619460AD181EA0301AB
:1007000001F0004141F0FE4141F470014FF0000062
:1007100070BD41F0FE4141F4780170BD70B54FF0FD
:10072000FF0C4CF4E06C1CEA11541DBF1CEA13557D
:1007300094EA0C0F95EA0C0F00F0A7F8A4EB05045F
:1007400081EA030E52EA03354FEA013100F0888056
:100750004FEA03334FF0805545EA131343EA12631F
:100760004FEA022245EA111545EA10654FEA0026D4
:100770000EF000419D4208BF964244F1FD0404F58D
:10078000407402D25B084FEA3202B61A65EB0305E9
:100790005B084FEA32024FF480104FF4002CB6EBA6
:1007A000020E75EB030E22BFB61A754640EA0C0026
:1007B0005B084FEA3202B6EB020E75EB030E22BF66
:1007C000B61A754640EA5C005B084FEA3202B6EBA7
:1007D000020E75EB030E22BFB61A754640EA9C0066
:1007E0005B084FEA3202B6EB020E75EB030E22BF36
:1007F000B61A754640EADC0055EA060E18D04FEAF4
:10080000051545EA16754FEA06164FEAC30343EA93
:1008100052734FEAC2025FEA1C1CC0D111F4801F60
:100820000BD141EA00014FF000004FF0004CB6E759
:1008300011F4801F04BF01430020B4F1FD0C88BFF8
:10084000BCF5E06F3FF6AFAEB5EB030C04BFB6EB03
:10085000020C5FEA500C50F1000041EB045170BDF6
:100860000EF0004E4EEA113114EB5C04C2BFD4EB23
:100870000C0541EA045170BD41F480114FF0000EA7
:10088000013C90E645EA060E8DE60CEA135594EA23
:100890000C0F08BF95EA0C0F3FF43BAF94EA0C0F26
:1008A0000AD150EA01347FF434AF95EA0C0F7FF49B
:1008B00025AF104619462CE795EA0C0F06D152EAEF
:1008C00003353FF4FDAE1046194622E750EA4106D3
:1008D00018BF52EA43067FF4C5AE50EA41047FF4E4
:1008E0000DAF52EA43057FF4EBAE12E74FF0FF3C49
:1008F00006E000BF4FF0010C02E000BF4FF0010C1A
:100900004DF804CD4FEA410C7FEA6C5C4FEA430C92
:1009100018BF7FEA6C5C1BD001B050EA410C0CBFE1
:1009200052EA430C91EA030F02BF90EA020F002043
:10093000704710F1000F91EA030F58BF994208BFAA
:1009400090422CBFD8176FEAE37040F00100704767
:100950004FEA410C7FEA6C5C02D150EA013C07D1BE
:100960004FEA430C7FEA6C5CD6D152EA033CD3D009
:100970005DF8040B704700BF8446104662468C4603
:100980001946634600E000BF01B5FFF7B7FF002836
:1009900048BF10F1000F01BD4DF808EDFFF7F4FF5F
:1009A0000CBF012000205DF808FB00BF4DF808EDEA
:1009B000FFF7EAFF34BF012000205DF808FB00BF0D
:1009C0004DF808EDFFF7E0FF94BF012000205DF82F
:1009D00008FB00BF4DF808EDFFF7CEFF94BF0120E4
:1009E00000205DF808FB00BF4DF808EDFFF7C4FFDD
:1009F00034BF012000205DF808FB00BF4A0011D27F
:100A000012F5001211D20DD56FF47873B3EB625268
:100A10000ED44FEAC12343F0004343EA505323FA74
:100A200002F070474FF00000704750EA013002D1E9
:100A30004FF0FF3070474FF0000070474FEA41021F
:100A4000B2F1E04324BFB3F5001CDCF1FE5C0DD92C
:100A500001F0004C4FEAC0024CEA5070B2F1004F76
:100A600040EB830008BF20F00100704711F0804F79
:100A700021D113F13872BCBF01F00040704741F43E
:100A800080114FEA5252C2F11802C2F1200C10FA42
:100A90000CF320FA02F018BF40F001004FEAC12326
:100AA0004FEAD32303FA0CFC40EA0C0023FA02F3CA
:100AB0004FEA4303CCE77FEA625307D150EA0133A0
:100AC0001EBF4FF0FE4040F44000704701F0004070
:100AD00040F0FE4040F40000704700BF80F000404E
:100AE00002E000BF81F0004142001FBF5FEA410306
:100AF00092EA030F7FEA226C7FEA236C6AD04FEA06
:100B00001262D2EB1363C1BFD2184140484041404A
:100B1000B8BF5B42192B88BF704710F0004F40F4FC
:100B2000000020F07F4018BF404211F0004F41F418
:100B3000000121F07F4118BF494292EA030F3FD0E4
:100B4000A2F1010241FA03FC10EB0C00C3F12003F7
:100B500001FA03F100F0004302D5494260EB400086
:100B6000B0F5000F13D3B0F1807F06D340084FEAF1
:100B7000310102F10102FE2A51D2B1F1004F40EBE6
:100B8000C25008BF20F0010040EA0300704749004E
:100B900040EB0000013A28BFB0F5000FEDD2B0FAEB
:100BA00080FCACF1080CB2EB0C0200FA0CF0AABF0E
:100BB00000EBC25052421843BCBFD04018437047AC
:100BC00092F0000F81F4000106BF80F400000132B2
:100BD000013BB5E74FEA41037FEA226C18BF7FEA89
:100BE000236C21D092EA030F04D092F0000F08BFCB
:100BF0000846704790EA010F1CBF0020704712F0B2
:100C00007F4F04D1400028BF40F00040704712F1F0
:100C100000723CBF00F50000704700F0004343F055
:100C2000FE4040F4000070477FEA226216BF08468B
:100C30007FEA23630146420206BF5FEA412390EA4E
:100C4000010F40F4800070474FF0000304E000BF44
:100C500010F0004348BF40425FEA000C08BF7047F5
:100C600043F0964301464FF000001CE050EA0102B9
:100C700008BF70474FF000030AE000BF50EA0102CE
:100C800008BF704711F0004302D5404261EB4101BB
:100C90005FEA010C02BF84460146002043F0B643E0
:100CA00008BFA3F18053A3F50003BCFA8CF2083A05
:100CB000A3EBC25310DB01FA02FC634400FA02FC0E
:100CC000C2F12002BCF1004F20FA02F243EB020015
:100CD00008BF20F00100704702F1200201FA02FC77
:100CE000C2F1200250EA4C0021FA02F243EB02006A
:100CF00008BF20EADC7070474FF0FF0C1CEAD052AE
:100D00001EBF1CEAD15392EA0C0F93EA0C0F6FD06E
:100D10001A4480EA010C400218BF5FEA41211ED04C
:100D20004FF0006343EA501043EA5111A0FB013138
:100D30000CF00040B1F5000F3EBF490041EAD3710D
:100D40005B0040EA010062F17F02FD2A1DD8B3F189
:100D5000004F40EBC25008BF20F00100704790F0F8
:100D6000000F0CF0004C08BF49024CEA502040EA4A
:100D700051207F3AC2BFD2F1FF0340EAC250704710
:100D800040F400004FF00003013A5DDC12F1190F4E
:100D9000DCBF00F000407047C2F10002410021FAC0
:100DA00002F1C2F1200200FA02FC5FEA310040F1D8
:100DB000000053EA4C0308BF20EADC70704792F051
:100DC000000F00F0004C02BF400010F4000F013A89
:100DD000F9D040EA0C0093F0000F01F0004C02BF84
:100DE000490011F4000F013BF9D041EA0C018FE7F3
:100DF0000CEAD15392EA0C0F18BF93EA0C0F0AD0F9
:100E000030F0004C18BF31F0004CD8D180EA01001E
:100E100000F00040704790F0000F17BF90F0004FB7
:100E2000084691F0000F91F0004F14D092EA0C0F99
:100E300001D142020FD193EA0C0F03D14B0218BF2C
:100E4000084608D180EA010000F0004040F0FE4072
:100E500040F40000704740F0FE4040F4400070470E
:100E60004FF0FF0C1CEAD0521EBF1CEAD15392EA8D
:100E70000C0F93EA0C0F69D0A2EB030280EA010C7D
:100E800049024FEA402037D04FF0805343EA111116
:100E900043EA10130CF000408B4238BF5B0042F174
:100EA0007D024FF4000C8B4224BF5B1A40EA0C0019
:100EB000B3EB510F24BFA3EB510340EA5C00B3EB4B
:100EC000910F24BFA3EB910340EA9C00B3EBD10F39
:100ED00024BFA3EBD10340EADC001B0118BF5FEA8B
:100EE0001C1CE0D1FD2A3FF650AF8B4240EBC250B4
:100EF00008BF20F0010070470CF0004C4CEA502075
:100F00007F32C2BFD2F1FF0340EAC250704740F4C3
:100F100000004FF00003013A37E792F0000F00F0B5
:100F2000004C02BF400010F4000F013AF9D040EA33
:100F30000C0093F0000F01F0004C02BF490011F4C7
:100F4000000F013BF9D041EA0C0195E70CEAD153BF
:100F500092EA0C0F08D142027FF47DAF93EA0C0FA6
:100F60007FF470AF084676E793EA0C0F04D14B028A
:100F70003FF44CAF08466EE730F0004C18BF31F03C
:100F8000004CCAD130F000427FF45CAF31F0004336
:100F90007FF43CAF5FE700BF4FF0FF3C06E000BFCF
:100FA0004FF0010C02E000BF4FF0010C4DF804CDF2
:100FB0004FEA40024FEA41037FEA226C18BF7FEA02
:100FC000236C11D001B052EA530C18BF90EA010F04
:100FD00058BFB2EB030088BFC81738BF6FEAE17093
:100FE00018BF40F0010070477FEA226C02D15FEA2F
:100FF000402C05D17FEA236CE4D15FEA412CE1D09B
:101000005DF8040B704700BF844608466146FFE761
:101010000FB5FFF7C9FF002848BF10F1000F0FBD43
:101020004DF808EDFFF7F4FF0CBF012000205DF83C
:1010300008FB00BF4DF808EDFFF7EAFF34BF0120C1
:1010400000205DF808FB00BF4DF808EDFFF7E0FF5A
:1010500094BF012000205DF808FB00BF4DF808EDAB
:10106000FFF7D2FF94BF012000205DF808FB00BF0E
:101070004DF808EDFFF7C8FF34BF012000205DF8F0
:1010800008FB00BF4FEA40024FEA41037FEA226CAF
:1010900002D15FEA402C08D17FEA236C02D15FEADB
:1010A000412C02D14FF0000070474FF00100704713
:1010B00042000ED2B2F1FE4F0BD34FF09E03B3EBC2
:1010C000126209D44FEA002343F0004323FA02F0EE
:1010D00070474FF00000704712F1610F01D14202DA
:1010E00002D14FF0FF3070474FF00000704700BF53
:1010F0004FEA410C7FEA6C5C02D150EA013C0AD114
:101100004FEA430C7FEA6C5C02D152EA033C02D105
:101110004FF0000070474FF0010070474FEA410266
:1011200012F5001215D211D56FF47873B3EB625239
:1011300012D94FEAC12343F0004343EA505311F060
:10114000004F23FA02F018BF404270474FF00000F2
:10115000704750EA013005D111F0004008BF6FF030
:10116000004070474FF00000704700BF00000000D3
:1011700080B584B000AFF860B9607A603B60FB680E
:10118000BA681A60FB687A685A60FB683A689A60C5
:10119000FB68BA69DA60FB68FA691A61386AFFF7B6
:1011A0003BF95FA3D3E90023FFF78EF902460B4614
:1011B000104619464FF000025B4BFFF7AFFA0246AC
:1011C0000B4610461946FFF739FC0246FB685A6188
:1011D000786AFFF721F952A3D3E90023FFF774F9E6
:1011E00002460B46104619464FF000024E4BFFF7E1
:1011F00095FA02460B4610461946FFF71FFC0246B9
:10120000FB689A61B86AFFF707F945A3D3E90023A1
:10121000FFF75AF902460B46104619464FF00002F6
:10122000414BFFF77BFA02460B4610461946FFF783
:1012300005FC0246FB68DA61F86AFFF7EDF838A3AF
:10124000D3E90023FFF740F902460B461046194642
:101250004FF00002344BFFF761FA02460B4610468E
:101260001946FFF7EBFB0246FB681A62386BFFF783
:10127000D3F82BA3D3E90023FFF726F902460B4648
:10128000104619464FF00002274BFFF747FA024677
:101290000B4610461946FFF7D1FB0246FB685A621F
:1012A000786BFFF7B9F81EA3D3E90023FFF70CF919
:1012B00002460B46104619464FF000021A4BFFF744
:1012C0002DFA02460B4610461946FFF7B7FB0246B9
:1012D000FB689A62FB684FF000029A63FB684FF06C
:1012E0000002DA63FB684FF000021A64FB684FF0FB
:1012F00000025A64FB684FF000029A64FB684FF0EA
:101300000002DA64FB68BA6BDA62FB68FA6B1A6394
:10131000FB683A6C5A6300BF1037BD4680BD00BF02
:101320001F85EB51B81E0940008066400000000098
:1013300090B585B000AFF860B9607A603B607868BE
:10134000FFF786FC0246FB68DA633868FFF780FC2B
:101350000246FB681A64386AFFF77AFC0246FB68AB
:101360005A64BB681B684FF080411846FFF778FD50
:1013700003461C467868FFF76BFC03461946204677
:10138000FFF7BAFC03461A46FB685A62BB685B6803
:101390004FF080411846FFF763FD03461C4638684E
:1013A000FFF756FC034619462046FFF7A5FC034607
:1013B0001A46FB689A62FB684FF00002DA62BB686B
:1013C0001B684FF080411846FFF74AFD03461A4656
:1013D000BB689B6819461046FFF786FB03461C4610
:1013E0007868FFF735FC034619462046FFF784FC72
:1013F00003461A46FB681A63BB685B684FF080417E
:101400001846FFF72DFD03461C463868FFF720FC01
:10141000034619462046FFF76FFC03461A46FB6851
:101420005A63BB68DA68BB681B6919461046FFF748
:101430005BFB03461846FEF7EFFF1BA3D3E900232F
:10144000FFF742F802460B4610461946FFF7F6FA38
:101450000246FB689A63FB684FF000029A64FB68DF
:10146000134ADA64FB68134A1A65FB687A6A5A659C
:10147000FB68BA6A9A65FB68FA6ADA65FB683A6BD8
:101480001A66FB687A6B5A66FB68BA6B9A66FB68E9
:10149000FA6BDA66FB683A6C1A67FB687A6C5A6713
:1014A00000BF1437BD4690BDCC3B7F669EA0E6BF13
:1014B000C3F548BFC3F5C83FF0B591B000AF786041
:1014C00039607B681A6B7B685B6A19461046FFF7C8
:1014D00009FB03461A467B68DB6B19461046FFF78B
:1014E0000BFC0346FB637B685A6B7B689B6A19465F
:1014F0001046FFF7F7FA0346BB637B689A6B7B687D
:10150000DB6A19461046FFF7EDFA034683F0004305
:101510007B63F86BFEF780FF4FF000024FF08043D3
:1015200007F03EFB04460D46786BFEF775FF4FF063
:1015300000024FF0804307F033FB02460B46204683
:101540002946FEF70BFE02460B4610461946FFF7EA
:1015500075FA03463B63386BFEF75EFF04460D46A3
:101560003B689B681846FEF757FF4FF000024FF0AC
:10157000804307F015FB02460B4620462946FEF73E
:10158000EBFD02460B4610461946FFF757FA034695
:10159000FB62F86AFEF740FF4FF00002AF4B07F026
:1015A000FFFA02460B4610461946FFF747FA034674
:1015B000BB62F86AFEF730FF04460D46B86BFEF7D3
:1015C0002BFF4FF000024FF0804307F0E9FA02468C
:1015D0000B4620462946FEF7C1FD02460B46104643
:1015E0001946FFF72BFA03467B62786AFEF714FF71
:1015F0004FF00002994B07F0D3FA02460B46104613
:101600001946FFF71BFA03463B623B68DB68184646
:10161000FEF702FF4FF000024FF0804307F0C0FAE0
:1016200002460B4610461946FFF708FA0346FB61CF
:101630003B681B691846FEF7EFFE4FF000024FF0C3
:10164000804307F0ADFA02460B4610461946FFF7F5
:10165000F5F90346BB61796BF86BFFF701FC0346B4
:101660001846FEF7D9FE02460B461046194607F00B
:10167000FFFA04460D463B689B68B96A1846FFF7B7
:10168000EFFB03461846FEF7C7FE02460B46104620
:10169000194607F0EDFA02460B4620462946FEF7AA
:1016A0005BFD02460B4610461946FFF7C7F9034695
:1016B00083F000437B61B96AB86BFFF7D1FB034647
:1016C0001846FEF7A9FE02460B461046194607F0DB
:1016D000CFFA04460D46F969B869FFF703FA0346E5
:1016E000796A1846FFF7FEF903461E463B68DB6839
:1016F0004FF040411846FFF7FFFA0346396A184693
:10170000FFF7FAFA034619463046FFF7A9FB0346EE
:101710001846FEF781FE02460B461046194607F0B2
:1017200017FA02460B4620462946FEF715FD0246EB
:101730000B4610461946FFF781F903463B61F969EC
:10174000786AFFF7CFF90346B9691846FFF7CAF977
:1017500003461C463B68DB684FF040411846FFF7E4
:10176000CBFA03461A463B681B6919461046FFF739
:10177000C3FA034619462046FFF772FB0346184694
:10178000FEF74AFE02460B461046194607F0E0F9FE
:1017900002460B4610461946FFF750F90346FB6018
:1017A00079697869FFF76EFC0346002B52D13969DD
:1017B0003869FFF767FC0346002B4BD1F968F868DE
:1017C000FFF760FC0346002B44D13B685B69194678
:1017D0007869FFF743FC0346002B00D13AE03B68F1
:1017E0001B6A19467869FFF72FFC0346002B00D1CE
:1017F00030E03B689B6919463869FFF72FFC0346C8
:10180000002B00D126E03B685B6A19463869FFF778
:101810001BFC0346002B00D11CE03B68DB6919462A
:10182000F868FFF71BFC0346002B00D112E03B6871
:101830009B6A1946F868FFF707FC0346002B00D1A6
:1018400008E07B687A699A647B683A69DA647B6845
:10185000FA681A6500BF4437BD46F0BD0000E03F9E
:1018600080B586B000AF786039607B689B6C3B497F
:101870001846FFF7F5FA03461A467B68DB6E1946F1
:101880001046FFF731F903461846FEF7C5FD02463C
:101890000B461046194607F093FC02460B461046CD
:1018A0001946FFF7CBF803467B617B68DB6C2B495D
:1018B0001846FFF7D5FA03461A467B681B6F194690
:1018C0001046FFF711F903461846FEF7A5FD02463C
:1018D0000B461046194607F073FC02460B461046AD
:1018E0001946FFF7ABF803463B617B681B6D1B494C
:1018F0001846FFF7B5FA03461A467B685B6F194630
:101900001046FFF7F1F803461846FEF785FD02463C
:101910000B461046194607F053FC02460B4610468C
:101920001946FFF78BF80346FB607B681B68DBB248
:101930007969184602F0ACFF7B681B69DBB2396934
:10194000184602F0A5FF7B681B6ADBB2F9681846EF
:1019500002F09EFF00BF1837BD4680BD35FA8E3CB1
:101960002DE9B04F8EB000AFF86107F1100080E8AC
:101970000E00BB6D7B63FB6D3B633B6EFB623B69A3
:101980001846FEF749FD04460D46F86AFEF744FD89
:1019900002460B461046194607F0F4FA804689467F
:1019A000386BFEF739FD02460B461046194607F024
:1019B000E9FA02460B4640464946FEF785FD0246D7
:1019C0000B4620462946FEF77FFD02460B4692460F
:1019D0009B467B691846FEF71FFD80468946F86ADC
:1019E000FEF71AFD02460B461046194607F0CAFAE2
:1019F00004460D46386BFEF70FFD02460B461046B7
:101A0000194607F009FB02460B4620462946FEF719
:101A10005BFD02460B4614461D46786BFEF7FCFC48
:101A200002460B461046194607F0F6FA02460B46E8
:101A300020462946FEF748FD02460B46C7E900232B
:101A4000F86AFEF7E9FC02460B461046194607F015
:101A5000E3FA04460D46786BFEF7DEFC02460B46C1
:101A60001046194607F08EFA02460B4620462946D4
:101A7000FEF72AFD02460B46D7E90001FEF76CFB94
:101A800002460B4640464946FEF71EFD02460B46FF
:101A900050465946FEF762FB02460B4692469B466D
:101AA000BB69796E1846FFF71FF803461846FEF724
:101AB000B3FC80468946F86AFEF7AEFC02460B4648
:101AC0001046194607F05EFA04460D46386BFEF7DD
:101AD000A3FC02460B461046194607F09DFA024643
:101AE0000B4620462946FEF7EFFC02460B461446FD
:101AF0001D46786BFEF790FC02460B4610461946D1
:101B000007F040FA02460B4620462946FEF7DCFC69
:101B100002460B46C7E90023F86AFEF77DFC024641
:101B20000B461046194607F077FA04460D46786BC7
:101B3000FEF772FC02460B461046194607F06CFA97
:101B400002460B4620462946FEF7BEFC02460B46DF
:101B5000D7E90001FEF702FB02460B464046494624
:101B6000FEF7B2FC02460B4650465946FEF7F6FA1F
:101B700002460B4610461946FEF760FF03463B62DD
:101B80003B691846FEF748FC04460D46F86AFEF726
:101B900043FC02460B461046194607F03DFA8046C4
:101BA0008946386BFEF738FC02460B46104619464C
:101BB00007F0E8F902460B4640464946FEF784FC2A
:101BC00002460B4620462946FEF77EFC02460B469F
:101BD00092469B467B691846FEF71EFC8046894666
:101BE000F86AFEF719FC02460B461046194607F044
:101BF00013FA04460D46386BFEF70EFC02460B4600
:101C00001046194607F008FA02460B4620462946B8
:101C1000FEF75AFC02460B4614461D46786BFEF74B
:101C2000FBFB02460B461046194607F0F5F9024643
:101C30000B4620462946FEF747FC02460B46C7E9FD
:101C40000023F86AFEF7E8FB02460B4610461946E9
:101C500007F098F904460D46786BFEF7DDFB024667
:101C60000B461046194607F08DF902460B462046F2
:101C70002946FEF729FC02460B46D7E90001FEF78C
:101C80006DFA02460B4640464946FEF71DFC0246E9
:101C90000B4650465946FEF761FA02460B469246FD
:101CA0009B46BB69796E1846FEF71EFF0346184631
:101CB000FEF7B2FB80468946F86AFEF7ADFB0246A6
:101CC0000B461046194607F0A7F904460D46386B37
:101CD000FEF7A2FB02460B461046194607F09CF998
:101CE00002460B4620462946FEF7EEFB02460B460F
:101CF00014461D46786BFEF78FFB02460B461046D6
:101D0000194607F03FF902460B4620462946FEF7E2
:101D1000DBFB02460B46C7E90023F86AFEF77CFBB3
:101D200002460B461046194607F02CF904460D46AC
:101D3000786BFEF771FB02460B461046194607F01A
:101D40006BF902460B4620462946FEF7BDFB0246CC
:101D50000B46D7E90001FEF7FFF902460B46404665
:101D60004946FEF7B1FB02460B4650465946FEF780
:101D7000F5F902460B4610461946FEF75FFE03468C
:101D80007B623B691846FEF747FB04460D46386BFD
:101D9000FEF742FB02460B461046194607F03CF997
:101DA00002460B46BA6083F00043FB60D7E902238A
:101DB00020462946FEF788FB02460B4692469B4684
:101DC0007B691846FEF728FB04460D46386BFEF784
:101DD00023FB02460B461046194607F0D3F880460F
:101DE0008946786BFEF718FB02460B4610461946EB
:101DF00007F012F902460B4640464946FEF764FBDF
:101E000002460B4620462946FEF75EFB02460B467D
:101E100050465946FEF7A2F902460B4692469B46AB
:101E2000BB69796E1846FEF75FFE03461846FEF75B
:101E3000F3FA04460D46386BFEF7EEFA02460B46FF
:101E40001046194607F09EF880468946786BFEF7E3
:101E5000E3FA02460B461046194607F093F802468D
:101E60000B4640464946FEF72FFB02460B462046EE
:101E70002946FEF729FB02460B4650465946FEF717
:101E80006DF902460B4614461D46786EFEF7C4FAFD
:101E900002460B4620462946FEF75EF902460B46EF
:101EA00010461946FEF7CAFD0346BB62FB691C4695
:101EB00007F1200393E8070084E80700F869383742
:101EC000BD46BDE8B08F80B485B000AFF86038463D
:101ED00080E80E003A68FB681A637A68FB685A6308
:101EE000BA68FB689A6300BF1437BD4680BC704770
:101EF000F0B58DB00CAF964B08221A60954B0922B5
:101F00001A60954B0A221A60944B0B221A60904B70
:101F100000221A618E4B01221A628E4B02221A6134
:101F20008C4B03221A628C4B04221A618A4B0522C5
:101F30001A628A4B06221A61884B07221A62884B62
:101F40000A93884B0993884B0893884B0793884BD7
:101F50000693884B0593884B0493884B0393884BD7
:101F60000293884B0193874B0093874B874A85499F
:101F70008748FFF7FDF8874B1B68874A1268874937
:101F8000096887480068874C2468874D2D68874E0C
:101F90003668DFF81CC2DCF800C0DFF818E2DEF8B3
:101FA00000E0CDF824E0CDF820C007960695059412
:101FB00004900391029201930123009301230122D3
:101FC00073496348FFF7B4F9724B1B68724A126891
:101FD0007249096872480068724C2468724D2D6815
:101FE000724E3668DFF8C8C1DCF800C0DFF8C4E123
:101FF000DEF800E0CDF824E0CDF820C00796069585
:10200000059404900391029201930123009301230C
:102010004FF0FF325E494F48FFF78AF95D4B1B686E
:102020005D4A12685D4909685D4800685D4C246836
:102030005D4D2D685D4E3668DFF874C1DCF800C078
:10204000DFF870E1DEF800E0CDF824E0CDF820C044
:10205000079606950594049003910292019301233B
:1020600000934FF0FF334FF0FF3249493A48FFF7F2
:102070005FF9484B1B68484A126848490968484854
:102080000068484C2468484D2D68484E3668DFF893
:1020900020C1DCF800C0DFF81CE1DEF800E0CDF87C
:1020A00024E0CDF820C0079606950594049003918E
:1020B00002920193012300934FF0FF330122344930
:1020C0002648FFF735F93C4B1B683C4A13603C4BF4
:1020D0001B683A4A53603B4B1B6883F00043374A06
:1020E0009360354B1B6883F00043374A1360344BD1
:1020F0001B68354A5360334B1B6883F00043324AF8
:1021000093602D4B1B6883F00043304A13602C4BC7
:102110001B6883F000432D4A53602A4B1B6883F0F1
:1021200000432A4A9360244B1B68294A1360244BBE
:102130001B6883F00043264A5360224B1B6883F0E0
:102140000043234A936000BF0437BD46F0BD00BF83
:10215000C007002048120020A40800209011002091
:1021600000000A43000048420000B4420000074358
:10217000000070420000F04100003442000070C2D4
:102180000000DCC10000D0409A99214033334B411C
:102190005007002018000020200000202800002008
:1021A0001C000020240000202C000020140000202F
:1021B000300000203400002000000020380D0020F6
:1021C0000400002008000020B40700203012002086
:1021D0001412002000000000F0B591B004AF9E4B37
:1021E000DB689E4A93639C4B1B699C4AD3639A4B62
:1021F0005B699A4A1364994B5C6C984B9B6B984A49
:10220000126811461846FEF777FD03461946204628
:10221000FEF76AFC03461846FEF7FEF804460D4634
:10222000904B1B6883F000438F491846FEF718FE59
:1022300003461846FEF7F0F885A3D3E90023FEF71E
:1022400043F902460B4620462946FEF7AFFB0346FC
:10225000002B18D0834B1B6883F00043824918463B
:10226000FEF7FEFD03461846FEF7D6F878A3D3E93D
:102270000023FEF729F902460B4610461946FEF7E1
:10228000DDFB034653E0754B5C6C744B9B6B744AEF
:10229000126811461846FEF72FFD034619462046E0
:1022A000FEF722FC03461846FEF7B6F804460D4634
:1022B0006C4B1B686C491846FEF7D2FD0346184666
:1022C000FEF7AAF862A3D3E90023FEF7FDF8024661
:1022D0000B4620462946FEF787FB0346002B16D007
:1022E000604B1B6860491846FEF7BAFD0346184666
:1022F000FEF792F856A3D3E90023FEF7E5F802466D
:102300000B4610461946FEF799FB03460FE0534B68
:102310005C6C524B9B6B524A126811461846FEF792
:10232000EBFC034619462046FEF7DEFB03464B4A0C
:1023300053644A4B9C6C494BDB6B494A126811460B
:102340001846FEF7D9FC034619462046FEF7CCFB9B
:1023500003461846FEF760F804460D46434B1B68DB
:1023600083F0004340491846FEF77AFD03461846BD
:10237000FEF752F836A3D3E90023FEF7A5F802468C
:102380000B4620462946FEF711FB0346002B18D0CA
:10239000364B1B6883F0004333491846FEF760FD57
:1023A00003461846FEF738F829A3D3E90023FEF7C1
:1023B0008BF802460B4610461946FEF73FFB0346D4
:1023C00066E0264B9C6C254BDB6B254A1268114658
:1023D0001846FEF791FC034619462046FEF784FB9B
:1023E00003461846FEF718F804460D461F4B1B68B7
:1023F0001D491846FEF734FD03461846FEF70CF853
:1024000013A3D3E90023FEF75FF802460B462046EC
:102410002946FEF7E9FA0346002B29D0134B1B6827
:1024200011491846FEF71CFD03461846FDF7F4FF58
:1024300007A3D3E90023FEF747F802460B461046F0
:102440001946FEF7FBFA034622E000BFAFF3008017
:102450001F85EB51B81E0940200D002050070020B9
:10246000380000203C0000200000344340000020E1
:102470009B4B9C6C9A4BDB6B9A4A12681146184630
:10248000FEF73AFC034619462046FEF72DFB0346AD
:10249000934A9364924BDC6C914B1B6C914A12688B
:1024A00011461846FEF728FC034619462046FEF75B
:1024B0001BFB03461846FDF7AFFF04460D468A4B4B
:1024C0001B6883F0004389491846FEF7C9FC0346A0
:1024D0001846FDF7A1FF80A3D3E90023FDF7F4FF21
:1024E00002460B4620462946FEF760FA0346002BBB
:1024F00018D07D4B1B6883F000437C491846FEF7DB
:10250000AFFC03461846FDF787FF73A3D3E900230A
:10251000FDF7DAFF02460B4610461946FEF78EFA23
:10252000034653E06E4BDC6C6D4B1B6C6D4A1268BE
:1025300011461846FEF7E0FB034619462046FEF713
:10254000D3FA03461846FDF767FF04460D46664B6F
:102550001B6866491846FEF783FC03461846FDF7DC
:102560005BFF5DA3D3E90023FDF7AEFF02460B46F8
:1025700020462946FEF738FA0346002B16D05A4B60
:102580001B685A491846FEF76BFC03461846FDF7D0
:1025900043FF51A3D3E90023FDF796FF02460B4604
:1025A00010461946FEF74AFA03460FE04C4BDC6C26
:1025B0004B4B1B6C4B4A126811461846FEF79CFBAE
:1025C000034619462046FEF78FFA0346444AD36471
:1025D000474B1B683E46474D0393414B6C46443383
:1025E00093E8070084E8070095E80E003046FFF7FF
:1025F000B7F93B460ECB4048FFF765FC3C4B1B68E8
:1026000007F10C063D4D0393354B6C46443393E87C
:10261000070084E8070095E80E003046FFF7A0F9B0
:1026200007F10C030ECB3648FFF74DFC304B1B680F
:1026300007F11806334D0393294B6C46443393E856
:10264000070084E8070095E80E003046FFF788F998
:1026500007F118030ECB2C48FFF735FC244B1B6801
:1026600007F12406294D03931D4B6C46443393E830
:10267000070084E8070095E80E003046FFF770F980
:1026800007F124030ECB2248FFF71DFC14491A481A
:10269000FEF712FF12491A48FEF70EFF10491A48BA
:1026A000FEF70AFF0E491A48FEF706FF0C491248CA
:1026B000FFF7D6F80A491248FFF7D2F8084912483E
:1026C000FFF7CEF806491248FFF7CAF800BF3437C3
:1026D000BD46F0BDAFF300801F85EB51B81E094029
:1026E0005007002038000020440000200000344340
:1026F00008000020380D0020C0070020B40700208B
:102700004812002030120020A408002014120020DB
:102710009011002080B582B000AF7860391D4FF075
:10272000FF330122034804F0CDFA7B6818460837CE
:10273000BD4680BD440D002080B582B000AFC7E922
:102740000001D7E9000106F003FA0BA3D3E9002347
:10275000FDF7E4FF02460B46104619464FF0000213
:10276000074BFDF7B1FE02460B46104619460837E7
:10277000BD4680BDAFF30080182D4454FB210940B5
:102780000080664080B500AF0A2326221449154810
:1027900004F098FA0A231D221349124804F092FA11
:1027A0000A230C2211490F4804F08CFA0A23222232
:1027B0000F490C4804F086FA0A2322220D490948E1
:1027C00004F080FA0A2322220B49064804F07AFA20
:1027D0000A2328220949034804F074FA00BF80BD87
:1027E0008CB10008440D0020B4B10008D4B1000839
:1027F000E4B1000808B200082CB2000850B200088A
:1028000080B584B000AF786039603968786805F0C9
:10281000A1FAB860164ABB6813600123FB601DE093
:102820003968002005F096FAB860BB68002B19D013
:10283000FB68012B06D1B86805F0F2F803460C4A94
:10284000936008E0FB68022B05D1B86805F0E8F852
:102850000346074AD360FB680133FB60FB68042B27
:10286000DEDD00E000BF00BF1037BD4680BD00BF09
:10287000A0070020B0B588B000AFC7E90201C7E9E2
:1028800000233B6B012B02DD7B6B002B01D100236E
:1028900046E0D7E90223D7E90001FDF75DFC0246D7
:1028A0000B4614461D463B6B013B1846FDF7A2FD47
:1028B00002460B4620462946FDF730FF02460B46EE
:1028C000C7E904230023FB6119E0F869FDF792FDD5
:1028D000D7E90423FDF7F8FD02460B4610461946DA
:1028E000FB69DB007A6BD418D7E90223FDF736FCCD
:1028F00002460B46C4E90023FB690133FB613B6BD5
:10290000013BFA699A42E0DB3B6B03F10053013B68
:10291000DB007A6BD118D7E90023C1E900237B6B78
:1029200018462037BD46B0BDB0B5ADF5507D02AFFD
:102930000446084607F54E71A1F54C710A6007F58B
:102940004E72A2F54D72136007F54E73A3F2293350
:1029500022461A7007F54E73A3F22A3302461A7004
:1029600007F54E73A3F229331B781846FDF732FDA5
:1029700004460D469F4B1B781846FDF72BFD02467B
:102980000B4607F54E71A1F22A31097807F11000C4
:102990000190009120462946FFF76CFF07F54E7322
:1029A000A3F22A331B78013BC7F8343310E1924B72
:1029B0001B681846FDF730FD4FF000024FF08043D2
:1029C00006F0EEF804460D4607F54E73A3F54A727D
:1029D000D7F83433DB001344D3E900014FF0000291
:1029E0004FF0804306F0DCF802460B4620462946AD
:1029F000FDF7B4FB02460B4614461D467F4B1B6891
:102A00001846FDF709FD4FF000024FF0804306F035
:102A1000C7F802460B4620462946FDF79DFB0246B5
:102A20000B4614461D46744B1B6819461846FEF7A4
:102A30005BF803461846FDF7EFFC07F54E73A3F568
:102A40004A72D7F83433DB001344D3E90023FDF78F
:102A50003BFD02460B4620462946FDF75FFE024637
:102A60000B4610461946D7F83433DB0007F54E7293
:102A7000A2F54C721268D418FFF75EFE02460B46B0
:102A8000C4E900235C4B1B681846FDF7C5FC4FF0FA
:102A900000024FF0804306F083F804460D46574B82
:102AA0001B681846FDF7B8FC4FF000024FF080435A
:102AB00006F076F802460B4620462946FDF74EFB07
:102AC00002460B4614461D4607F54E73A3F54A729F
:102AD000D7F83433DB001344D3E900014FF0000290
:102AE0004FF0804306F05CF802460B46204629462C
:102AF000FDF732FB02460B4614461D463E4B1B6853
:102B000019461846FDF7F0FF03461A463B4B1B6873
:102B100019461046FEF7F0F803461846FDF77CFC10
:102B200002460B4620462946FDF7F8FD02460B46B5
:102B300010461946D7F83433DB0007F54E72A2F57C
:102B40004D721268D418FFF7F7FD02460B46C4E930
:102B50000023D7F83433DB0007F54E72A2F54C7230
:102B600012681344D3E90023D7F83413C90007F5DA
:102B70004E70A0F54C70006844184FF000002049DA
:102B8000FDF7EAFA02460B46C4E90023D7F83433CE
:102B9000DB0007F54E72A2F54D7212681344D3E9BB
:102BA0000023D7F83413C90007F54E70A0F54D7017
:102BB000006844184FF000001149FDF7CDFA0246B5
:102BC0000B46C4E90023D7F83433013BC7F834334C
:102BD000D7F83433002BBFF6EAAE064A07F54E733A
:102BE000A3F229331B78137000BF07F54E77BD465B
:102BF000B0BD00BF4C0000200C00002010000020E1
:102C00000080664080B500AF0A2314220A490B48B1
:102C100004F058F84FF40051094802F0FFF940F26F
:102C2000DC51084801F08CFA0A23172206490348B0
:102C300004F048F800BF80BD7CB20008440D0020BD
:102C4000001001405008002094B2000880B586B002
:102C500000AFF860B9607A600A232E2264496548A3
:102C600004F030F800237B61B1E0634A7B69DB004C
:102C70001344D3E900234FF000006049FDF76CFADC
:102C800002460B46104619464FF000025C4BFDF71A
:102C900065FA02460B4610461946FDF7CFFE03467D
:102CA0001946002001F0F4FD564A7B69DB0013440D
:102CB000D3E900234FF000005049FDF74DFA0246DA
:102CC0000B4610461946FDF7B9FE0346194601208A
:102CD00001F0DEFD484A7B69DB001344D3E90001C3
:102CE0004FF00002464BFDF739FA02460B461046FC
:102CF0001946FDF7A3FE03461946022001F0C8FD60
:102D0000404A7B69DB001344D3E900014FF0000225
:102D10003B4BFDF723FA02460B4610461946FDF7DA
:102D20008DFE03461946032001F0B2FD324A7B694D
:102D3000DB001344D3E9002310461946FDF77EFE5D
:102D400003461946042001F0A3FD2E4A7B69DB00EF
:102D50001344D3E9002310461946FDF76FFE0346DE
:102D60001946052001F094FD234A7B69DB001344DA
:102D7000D3E900234FF000002049FDF7EDF90246AA
:102D80000B4610461946FDF759FE03461946062024
:102D900001F07EFD1B4A7B69DB001344D3E900236D
:102DA0004FF000001549FDF7D7F902460B461046D3
:102DB0001946FDF743FE03461946072001F068FD5A
:102DC0007B68184604F008FE7B6901337B610E4B7B
:102DD000DB687A699A42FFF648AF0A232A220B4938
:102DE000044803F06FFF00BF1837BD4680BD00BF29
:102DF000ACB20008440D0020900D00200080664019
:102E00000000144020090020A0070020DCB20008C8
:102E100080B586B000AFF860B9607A600A232422DA
:102E20006449654803F04EFF00237B61B1E0634ACB
:102E30007B69DB001344D3E900234FF000006049B5
:102E4000FDF78AF902460B46104619464FF000027C
:102E50005C4BFDF783F902460B4610461946FDF719
:102E6000EDFD03461946002001F012FD564A7B692C
:102E7000DB001344D3E900234FF000005049FDF775
:102E80006BF902460B4610461946FDF7D7FD03467F
:102E90001946012001F0FCFC484A7B69DB00134421
:102EA000D3E900014FF00002464BFDF757F9024607
:102EB0000B4610461946FDF7C1FD03461946022090
:102EC00001F0E6FC404A7B69DB001344D3E90001D2
:102ED0004FF000023B4BFDF741F902460B4610460E
:102EE0001946FDF7ABFD03461946032001F0D0FC5F
:102EF000324A7B69DB001344D3E9002310461946AC
:102F0000FDF79CFD03461946042001F0C1FC2E4A42
:102F10007B69DB001344D3E9002310461946FDF713
:102F20008DFD03461946052001F0B2FC234A7B695A
:102F3000DB001344D3E900234FF000002049FDF7E4
:102F40000BF902460B4610461946FDF777FD03467E
:102F50001946062001F09CFC1B4A7B69DB001344E8
:102F6000D3E900234FF000001549FDF7F5F80246BC
:102F70000B4610461946FDF761FD0346194607202A
:102F800001F086FC7B68184604F026FD7B6901335E
:102F90007B610E4BDB687A699A42FFF648AF0A23E1
:102FA00022220B49044803F08DFE00BF1837BD46AE
:102FB00080BD00BF44B30008440D0020900D0020E8
:102FC000008066400000144020090020A007002077
:102FD0006CB3000880B584B002AF04F09BFC00F035
:102FE000F7FB00F093FC00F039FC00F065FC0D22CB
:102FF000B149B24803F0E9FEFFF7C4FBB04801F065
:103000009BFCFEF775FF00224FF40051AD4801F024
:10301000EDFF4FF47A7004F0DFFC0A231822AA496E
:10302000A64803F04FFEA94B0193A94B009301233F
:1030300001226821A24800F0B7FE0346012B16D1F9
:1030400001224FF400519F4801F0D0FF0A231122C2
:10305000A0499A4803F036FE0A231F229E4997484A
:1030600003F030FE4FF47A7004F0B6FC0EE00A2351
:1030700021229A49914803F025FE4FF400519148CE
:1030800001F0CCFFFA2004F0A7FCF6E7944B1B7884
:10309000002B7AD0924B00221A70924B1B68194673
:1030A0008548FFF7ADFB0D228349844803F08DFE70
:1030B0008D4B1B681B78623B132B65D801A252F81D
:1030C00023F000BF8931000815310008893100085C
:1030D0008931000881310008893100082331000856
:1030E00089310008893100088931000889310008D8
:1030F000893100084B310008893100088931000806
:1031000089310008893100086B31000889310008D5
:1031100073310008754B00221A70754B01221A702A
:1031200033E0714B9B68D8B26F4BDB68D9B2714BFF
:10313000714AFFF7F9FB6D4B00221A706F4B0022AA
:103140001A706B4B01221A701FE0674B3222DA6053
:10315000684B694A32211420FFF7E6FB674B0022D7
:103160001A70634B01221A700FE0614B01221A7032
:103170000BE0634B0A221A705B4B3222DA6004E0E8
:103180005B4B01221A7000E000BF554B1B7883F0A7
:103190000103DBB2002B3FF479AF534B1B681B7864
:1031A000623B132B00F2E88201A252F823F000BF29
:1031B000D536000801320008793700087937000851
:1031C0005B320008793700081D32000879370008A3
:1031D000793700087937000879370008A3330008E9
:1031E0003932000879370008793700087937000844
:1031F000793700081D330008793700087533000857
:103200003B4B1B78002B00F0B982FFF7FBFC374BE0
:1032100001221A70364B00221A70AFE2344B1B7831
:10322000002B00F0AD82322232493348FFF70EFD09
:103230002F4B00221A70A3E22D4B1B78002B00F0BD
:10324000A18232222B492C48FFF700FD2B4B012293
:103250001A70274B00221A7094E2254B1B78002B22
:1032600000F092822749002001F012FB4FF000018C
:10327000012001F00DFB2449022001F009FB234944
:10328000032001F005FB2249042001F001FB214944
:10329000052001F0FDFA2049062001F0F9FA4FF06F
:1032A0000001072001F0F4FA322004F095FB104BE6
:1032B00000221A7068E200BF20120020440D002096
:1032C000500800200010014090B300086F12833BAB
:1032D00048E17A3FACB30008E4B30008C0B300088B
:1032E000E405002048000020A0070020E60500209B
:1032F000E505002020090020900D0020E7050020B2
:103300004C0000200000BE420000C84200003943CB
:103310000000B442000034430000A042824B1B78FE
:10332000002B00F033828149002001F0B1FA80497E
:10333000012001F0ADFA7D49022001F0A9FA7B4994
:10334000032001F0A5FA7A49042001F0A1FA784996
:10335000052001F09DFA7649062001F099FA754999
:10336000072001F095FA322004F036FB6E4B002264
:103370001A700BE2704B714A32211620FFF7D4FA13
:1033800032226D496D48FFF761FC6B4B6B4A32216D
:103390000A20FFF7C9FA322267496848FFF756FC4E
:1033A000F5E127237B60B8E0654A7B68DB001344C6
:1033B000D3E900234FF000006249FCF7CDFE02463E
:1033C0000B46104619464FF000025F4BFCF7C6FE55
:1033D00002460B4610461946FDF730FB03461946D8
:1033E000002001F055FA594A7B68DB001344D3E909
:1033F00000234FF000005349FCF7AEFE02460B4697
:1034000010461946FDF71AFB03461946012001F044
:103410003FFA7B68C3F127034D4ADB001344D3E92D
:1034200000014FF00002484BFCF798FE02460B46A5
:1034300010461946FDF702FB03461946022001F02B
:1034400027FA7B68C3F12703424ADB001344D3E920
:1034500000014FF000023C4BFCF780FE02460B4699
:1034600010461946FDF7EAFA03461946032001F013
:103470000FFA334A7B68DB001344D3E9002310467C
:103480001946FDF7DBFA03461946042001F000FA5D
:103490002E4A7B68DB001344D3E90023104619460B
:1034A000FDF7CCFA03461946052001F0F1F97B68D7
:1034B000C3F12703264ADB001344D3E900234FF06E
:1034C00000002049FCF748FE02460B46104619460C
:1034D000FDF7B4FA03461946062001F0D9F97B68D6
:1034E000C3F127031B4ADB001344D3E900234FF049
:1034F00000001449FCF730FE02460B461046194600
:10350000FDF79CFA03461946072001F0C1F9322065
:1035100004F062FA7B68013B7B607B68002BBFF69E
:1035200043AF00233B60D0E0E50500200000BE4231
:103530000000B4420000AA4220090020900D0020A3
:10354000D0020020008066400000144010040020DB
:1035500050000020900100208D4A3B68DB0013449E
:10356000D3E900234FF000008A49FCF7F5FD02463D
:103570000B46104619464FF00002874BFCF7EEFD54
:1035800002460B4610461946FDF758FA03461946FF
:10359000002001F07DF9814A3B68DB001344D3E948
:1035A00000234FF000007B49FCF7D6FD02460B4696
:1035B00010461946FDF742FA03461946012001F06C
:1035C00067F93B68C3F12703754ADB001344D3E96D
:1035D00000014FF00002704BFCF7C0FD02460B46A5
:1035E00010461946FDF72AFA03461946022001F053
:1035F0004FF93B68C3F127036A4ADB001344D3E960
:1036000000014FF00002644BFCF7A8FD02460B4698
:1036100010461946FDF712FA03461946032001F039
:1036200037F95B4A3B68DB001344D3E900231046BB
:103630001946FDF703FA03461946042001F028F95C
:10364000564A3B68DB001344D3E900231046194671
:10365000FDF7F4F903461946052001F019F93B6816
:10366000C3F127034E4ADB001344D3E900234FF094
:1036700000004849FCF770FD02460B46104619460B
:10368000FDF7DCF903461946062001F001F93B6815
:10369000C3F12703434ADB001344D3E900234FF06F
:1036A00000003C49FCF758FD02460B4610461946FF
:1036B000FDF7C4F903461946072001F0E9F8322066
:1036C00004F08AF93B6801333B603B68262B7FF7A7
:1036D00043AF5CE0344B1B78002B21D0334B1B787D
:1036E000002B05D0324800F09FFDFEF775FD4EE03F
:1036F0000A2321222F49304803F0E4FA0A231B222F
:103700002E492D4803F0DEFAFFF77CFA0A23212226
:103710002B49294803F0D6FA244B01221A7036E0CF
:103720000A232A222749244803F0CCFA0A231F221D
:103730002049214803F0C6FA0A2319221F491E48CE
:1037400003F0C0FA204B214A28210F20FFF7ECF8A4
:1037500032221D491D48FFF75BFBFFF753FA0A238E
:1037600022221749144803F0ADFA0F4B01221A70B8
:103770000E4B01221A700AE000BF87E400BF85E407
:1037800000BF83E400BF81E400BF7FE400BF7DE4AD
:10379000500000200080664000001440900100208E
:1037A000D002002010040020E7050020E6050020DC
:1037B0005008002004B40008440D002024B4000880
:1037C00040B4000864B4000820090020900D0020D7
:1037D00080B590B000AF07F11803282200211846E9
:1037E00004F0AFFA3B1D00221A605A609A60DA605A
:1037F0001A610123BB614FF48033FB6100233B62FC
:103800000123BB6202237B634FF48033BB634FF41D
:10381000E013FB6307F11803184602F0F3FD0346BB
:10382000002B01D000F0D8F80F237B600223BB608F
:103830000023FB604FF480633B6100237B613B1DF1
:103840000221184603F060F80346002B01D000F077
:10385000C3F800BF4037BD4680BD000080B500AF53
:10386000124B134A1A60114B124A5A600F4B002236
:103870009A600E4B0022DA600C4B4FF480421A61C2
:103880000A4B00225A61094B00229A61074B002221
:10389000DA61064B00221A62044801F0D9FB0346A4
:1038A000002B01D000F098F800BF80BD5008002028
:1038B00000540040A086010080B500AF114B124AB1
:1038C0001A60104B4FF4E1325A600E4B00229A609E
:1038D0000C4B0022DA600B4B00221A61094B0C22C0
:1038E0005A61084B00229A61064B0022DA610548B2
:1038F00003F098F90346002B01D000F06DF800BFEB
:1039000080BD00BF440D00200038014080B588B064
:1039100000AF07F1100300221A605A609A60DA6063
:10392000244B9B69234A43F010039361214B9B690D
:1039300003F01003FB60FB681E4B9B691D4A43F0BC
:10394000200393611B4B9B6903F02003BB60BB68A2
:10395000184B9B69174A43F004039361154B9B690D
:1039600003F004037B607B68124B9B69114A43F0B0
:10397000080393610F4B9B6903F008033B603B68AE
:1039800000224FF400510C4801F030FB4FF400537B
:103990003B6101237B610023BB610223FB6107F1D3
:1039A00010031946044801F09DF900BF2037BD46B9
:1039B00080BD00BF001002400010014080B483B001
:1039C00000AF7860034B01221A7000BF0C37BD4670
:1039D00080BC7047E405002080B400AF72B600BF21
:1039E000FEE7000080B485B000AF154B9B69144A18
:1039F00043F001039361124B9B6903F00103BB6029
:103A0000BB680F4BDB690E4A43F08053D3610C4B0C
:103A1000DB6903F080537B607B680A4B5B68FB606B
:103A2000FB6823F0E063FB60FB6843F00073FB601E
:103A3000044AFB68536000BF1437BD4680BC704722
:103A4000001002400000014080B588B000AF7860EF
:103A500007F1100300221A605A609A60DA607B68EE
:103A60001B68154A934223D1144B9B69134A43F0B8
:103A700008039361114B9B6903F00803FB60FB682B
:103A8000C0233B6112237B610323FB6107F1100319
:103A900019460B4801F026F9084BDB69074A43F445
:103AA0000013D361054BDB6903F40013BB60BB68F3
:103AB00000BF2037BD4680BD0054004000100240CA
:103AC000000C014080B588B000AF786007F11003AA
:103AD00000221A605A609A60DA607B681B68204A8C
:103AE000934239D11F4B9B691E4A43F48043936133
:103AF0001C4B9B6903F48043FB60FB68194B9B697B
:103B0000184A43F004039361164B9B6903F00403C6
:103B1000BB60BB684FF400733B6102237B610323EE
:103B2000FB6107F1100319460F4801F0DBF84FF471
:103B300080633B6100237B610023BB6107F11003BD
:103B40001946094801F0CEF800220021252000F096
:103B5000E0FF252000F0F9FF00BF2037BD4680BD03
:103B600000380140001002400008014080B400AF5E
:103B7000FEE780B400AFFEE780B400AFFEE780B49C
:103B800000AFFEE780B400AFFEE780B400AF00BF37
:103B9000BD4680BC704780B400AF00BFBD4680BC4E
:103BA000704780B400AF00BFBD4680BC704780B591
:103BB00000AF03F0F5FE00BF80BD000080B500AF90
:103BC000024803F027F900BF80BD00BF440D00206C
:103BD00080B400AF01231846BD4680BC704780B555
:103BE00082B000AF7860396004F056F903461622BF
:103BF0001A604FF0FF3318460837BD4680BD80B5C8
:103C000082B000AF78604FF0FF317868FFF7E7FFD0
:103C1000FEE780B586B000AFF860B9607A60002337
:103C20007B610AE0AFF300800146BB685A1CBA60B2
:103C3000CAB21A707B6901337B617A697B689A42E8
:103C4000F0DB7B6818461837BD4680BD80B586B06E
:103C500000AFF860B9607A6000237B6109E0BB685F
:103C60005A1CBA601B781846FEF754FD7B69013375
:103C70007B617A697B689A42F1DB7B68184618376A
:103C8000BD4680BD80B483B000AF78604FF0FF3395
:103C900018460C37BD4680BC704780B483B000AF77
:103CA000786039603B684FF400525A600023184630
:103CB0000C37BD4680BC704780B483B000AF7860DD
:103CC000012318460C37BD4680BC704780B485B0D0
:103CD00000AFF860B9607A60002318461437BD461B
:103CE00080BC704780B586B000AF7860144A154B31
:103CF000D31A7B617B693B61134B1B68002B02D19C
:103D0000114B124A1A60104B1A687B6813443A69C7
:103D10009A4207D204F0C0F803460C221A604FF012
:103D2000FF3309E0084B1B68FB60074B1A687B6890
:103D30001344054A1360FB6818461837BD4680BD1A
:103D40000050002000040000E8050020E8120020D8
:103D500080B400AF00BFBD4680BC7047FFF7F8FFDE
:103D60000B480C490C4A002302E0D458C4500433D9
:103D7000C4188C42F9D3094A094C002301E01360AE
:103D80000432A242FBD304F08DF8FFF723F9704709
:103D900000000020C8050020F0B80008C805002079
:103DA000E8120020FEE7000080B588B004AF78601C
:103DB000084611461A460346FB700B46BB70134675
:103DC0007B70FB785B00DAB2204B1A70204ABB692B
:103DD0001360204AFB6913601C4B1B7899B24FF4A7
:103DE0007A7302930123019307F10F0300930123D8
:103DF0007522786801F068FCFB7B712B02D0FB7B9D
:103E0000682B1DD10023BB73104B1B7899B24FF464
:103E10007A7302930123019307F10E0300930123A8
:103E20006B22786801F056FBBB781946786800F081
:103E300013F87B781946786800F09EF8012300E0BB
:103E4000002318461037BD4680BD00BFC4120020B5
:103E5000CC120020D812002080B588B004AF786062
:103E60000B46FB70FB78032B66D801A252F823F0B7
:103E7000813E0008AF3E0008DD3E00080B3F000811
:103E80003B4B4FF08D421A600023FB73394B1B787C
:103E900099B24FF47A7302930123019307F10F0350
:103EA000009301231C22786801F014FB5BE0304B87
:103EB0004FF08C421A600823FB732E4B1B7899B28B
:103EC0004FF47A7302930123019307F10F030093D8
:103ED00001231C22786801F0FDFA44E0244B4FF0E6
:103EE0008B421A601023FB73224B1B7899B24FF45C
:103EF0007A7302930123019307F10F0300930123C7
:103F00001C22786801F0E6FA2DE0194B4FF08A4246
:103F10001A601823FB73174B1B7899B24FF47A730E
:103F200002930123019307F10F03009301231C2245
:103F3000786801F0CFFA16E00D4B4FF08C421A6012
:103F40000823FB730B4B1B7899B24FF47A730293DF
:103F50000123019307F10F03009301231C227868CA
:103F600001F0B8FA00BF00BF1037BD4680BD00BFEA
:103F7000D4120020C412002080B588B004AF78604D
:103F80000B46FB70FB78032B62D801A252F823F09A
:103F9000A13F0008CD3F0008F93F00082540000878
:103FA000384B394A1A600023FB73384B1B7899B29F
:103FB0004FF47A7302930123019307F10F030093E7
:103FC00001231B22786801F085FA57E02D4B304A17
:103FD0001A600823FB732D4B1B7899B24FF47A7348
:103FE00002930123019307F10F03009301231B2286
:103FF000786801F06FFA41E0224B264A1A601023DC
:10400000FB73224B1B7899B24FF47A73029301230E
:10401000019307F10F03009301231B22786801F03D
:1040200059FA2BE0174B1C4A1A601823FB73174BE5
:104030001B7899B24FF47A7302930123019307F12D
:104040000F03009301231B22786801F043FA15E067
:104050000C4B0F4A1A600823FB730C4B1B7899B268
:104060004FF47A7302930123019307F10F03009336
:1040700001231B22786801F02DFA00BF00BF103722
:10408000BD4680BDC812002000000343C4120020BA
:1040900000008342333303423333834180B58AB017
:1040A00004AF7860244B1B7899B24FF47A73029373
:1040B0000E23019307F10803009301233B22786844
:1040C00001F002FB3B7A1B021AB27B7A1BB213434C
:1040D0001AB21A4B1A80BB7A1B021AB2FB7A1BB2B5
:1040E00013431AB2154B5A803B7B1B021AB27B7BDF
:1040F0001BB213431AB2114B9A803B7C1B021AB2BB
:104100007B7C1BB213431AB20C4BDA80BB7C1B02C4
:104110001AB2FB7C1BB213431AB2084B1A813B7DC7
:104120001B021AB27B7D1BB213431AB2034B5A8196
:1041300000BF1837BD4680BDC41200200812002001
:1041400090B587B000AF78600B467B8000237B6121
:1041500000233B610023FB607B88002B01D10123FE
:104160007B8000237B811DE07868FFF797FF2B4B56
:10417000B3F906301A467B6913447B61274BB3F9C8
:1041800008301A463B6913443B61244BB3F90A30AB
:104190001A46FB681344FB60032003F01DFC7B8977
:1041A00001337B817A897B889A42DDD37869FCF779
:1041B0004FFD04467B881846FCF746FD034619462A
:1041C0002046FCF74DFE03461A46154B1A60386927
:1041D000FCF73EFD04467B881846FCF735FD034698
:1041E00019462046FCF73CFE03461A460C4B5A6023
:1041F000F868FCF72DFD04467B881846FCF724FD83
:10420000034619462046FCF72BFE03461A46044B8C
:104210009A6000BF1C37BD4690BD00BF0812002049
:104220003C12002000000000B0B586B000AF7860FE
:104230007868FFF733FFB04BB3F900301846FCF74E
:1042400007FD0246AD4B1B6819461046FCF708FEF9
:1042500003461A46AA4B1A60A74BB3F90230184618
:10426000FCF7F6FC0246A54B1B6819461046FCF706
:10427000F7FD03461A46A24B5A609F4BB3F9043030
:104280001846FCF7E5FC02469C4B1B681946104695
:10429000FCF7E6FD03461A46994B9A60994B1B685A
:1042A0001846FCF7B9F890A3D3E90023FCF70CF902
:1042B00002460B4614461D468F4BB3F9063018468E
:1042C000FCF798F88AA3D3E90023FCF7FDF802462F
:1042D0000B4620462946FBF741FF02460B46144693
:1042E0001D46894B1B681846FCF796F880A3D3E956
:1042F0000023FCF7E9F802460B4620462946FBF767
:104300002DFF02460B4610461946FCF797FB034665
:104310007B61012003F060FB774BB3F90630184650
:10432000FCF796FC0346784A1360764A7B69136073
:10433000764B1B681846FCF76FF86BA3D3E9002394
:10434000FCF7C2F802460B4614461D466A4BB3F909
:1043500008301846FCF74EF865A3D3E90023FCF7B4
:10436000B3F802460B4620462946FBF7F7FE024605
:104370000B4614461D46664B1B681846FCF74CF866
:104380005BA3D3E90023FCF79FF802460B462046C7
:104390002946FBF7E3FE02460B4610461946FCF79A
:1043A0004DFB03463B61012003F016FB524BB3F972
:1043B00008301846FCF74CFC0346554A1360534A34
:1043C0003B691360534B1B681846FCF725F846A35E
:1043D000D3E90023FCF778F802460B4614461D4645
:1043E000454BB3F90A301846FCF704F840A3D3E96B
:1043F0000023FCF769F802460B4620462946FBF7E6
:10440000ADFE02460B4614461D46434B1B6818463C
:10441000FCF702F836A3D3E90023FCF755F802466F
:104420000B4620462946FBF799FE02460B461046EE
:104430001946FCF703FB0346FB60012003F0CCFAAE
:104440002D4BB3F90A301846FCF702FC0346324AFA
:104450001360304AFB681360304B1B68194678695B
:10446000FCF740FB03461A46254BDA602B4B5B6892
:1044700019463869FCF736FB03461A46204B1A6189
:10448000264B9B681946F868FCF72CFB03461A4636
:104490001B4B5A611A4BDB68214A126811461846B9
:1044A000FCF7DEFC03461A46154BDA60144B1B6919
:1044B0001B4A126811461846FCF7D2FC03461A46FE
:1044C0000F4B1A610E4B5B69154A1268114618466C
:1044D000FCF7C6FC03461A46094B5A6100BF183761
:1044E000BD46B0BDAFF30080355EBA490C02EF3F68
:1044F0005839B4C876BE8F3F08120020D41200206D
:10450000200D0020F0050020EC050020F80500201B
:10451000F405002000060020FC0500203C120020CD
:10452000C812002080B588B004AF0346FB710B466B
:10453000BB7113467B717B79002B01D001237B710A
:10454000244B1868FB799AB20A2302930123019342
:1045500007F10F0300930123802101F0B5F8034612
:10456000002B01D0012331E0BB79012202FA03F3D1
:104570005BB263F07F035BB2DB435AB2FB7B5BB29F
:1045800013405BB2DBB2FB737B7903F00102BB79B2
:1045900002FA03F35AB2FB7B5BB213435BB2DBB2AA
:1045A000FB730C4B1868FB799AB20A230293012320
:1045B000019307F10F0300930123802100F08AFF8C
:1045C0000346002B01D0012300E0002318461037DA
:1045D000BD4680BDE012002080B584B002AF062346
:1045E000FB71094B1868FA1D0A230093012300216F
:1045F00000F072FE0346002B01D1002300E00123EE
:1046000018460837BD4680BDE012002080B582B054
:1046100000AF0346FB71FB791A4604210020FFF727
:1046200081FF034618460837BD4680BD80B582B07D
:1046300000AF0346FB71FB791A4607210020FFF704
:1046400071FF034618460837BD4680BD80B582B06D
:1046500000AF0346FB71FB791A4605210020FFF7E6
:1046600061FF034618460837BD4680BD00000000C4
:1046700080B588B004AF0346FB80FB8840F2F5525A
:10468000934202D90323FB7241E0FB88182B02D826
:10469000FF23FB723BE0FB881846FCF7D5FA034684
:1046A0001846FBF7B9FE4FF00002294BFBF70CFF51
:1046B00002460B4624A1D1E90001FCF72FF802467F
:1046C0000B46104619464FF00002224BFBF744FD03
:1046D00002460B4610461946FCF7B0F90346FB604C
:1046E000F868FBF799FE4FF000021B4BFBF736FD15
:1046F00002460B461046194604F0E2FC02460B4601
:1047000010461946FCF77AF90346DBB2FB7201202A
:10471000FFF77CFF114B18680A23029301230193D2
:1047200007F10B0300930123FE22802100F0D2FE4B
:104730000020FFF76BFF0120FFF778FF00231846EA
:104740001037BD4680BD00BF0000000084D7774110
:104750000000B0400000F03F0000E03FE012002009
:1047600080B588B004AF0346FB710B46BB8013468F
:104770007B80FB799B00DBB20633FB73BB88DBB22B
:104780003B72BB881B0A9BB2DBB27B727B88DBB2BD
:10479000BB727B881B0A9BB2DBB2FB720C4B1868A6
:1047A000FB7B9AB20A2302930423019307F10803C7
:1047B00000930123802100F08DFE0346002B01D0E1
:1047C000012300E0002318461037BD4680BD00BF1E
:1047D000E012002080B582B000AF0346FB710B46AB
:1047E000BB801346BB71BB88B3F5805F02D340F634
:1047F000FF73BB80BB79002B25D0BB88002B08D171
:10480000FB7900224FF480511846FFF7A9FF0346B9
:104810003AE0BB8840F6FF72934208D1FB794FF42F
:10482000805200211846FFF79BFF03462CE0BB880F
:10483000C3F57F630F339AB2FB7900211846FFF767
:104840008FFF034620E0BB8840F6FF72934208D1F9
:10485000FB7900224FF480511846FFF781FF034691
:1048600012E0BB88002B08D1FB794FF48052002165
:104870001846FFF775FF034606E0BA88FB7900216A
:104880001846FFF76DFF034618460837BD4680BD42
:1048900080B584B000AF03463960FB714FF0000172
:1048A0003868FCF7C7FB0346002B02D04FF000032B
:1048B0003B601D493868FCF7DBFB0346002B01D049
:1048C000194B3B603868FBF7A7FD4FF00002174B10
:1048D000FBF7FAFD02460B46104619464FF0000260
:1048E000134BFBF71BFF02460B46104619464FF0D1
:1048F0000002104BFBF732FC02460B4610461946ED
:10490000FCF79CF80346FB60F868FCF7D1FB034614
:1049100099B2FB7900221846FFF75CFF0346184660
:104920001037BD4680BD00BF000034430000794011
:10493000008066400000594080B582B000AF7860CA
:10494000074A7B681360FFF747FE3020FFF790FEB1
:104950000120FFF77BFE002318460837BD4680BDC7
:10496000E012002080B485B000AF78607B6803F06F
:104970000703FB600C4BDB68BB60BA684FF6FF03B4
:104980001340BB60FB681A02BB68134343F0BF636C
:1049900043F40033BB60044ABB68D36000BF1437E4
:1049A000BD4680BC704700BF00ED00E080B400AFA2
:1049B000044BDB681B0A03F007031846BD4680BCA6
:1049C000704700BF00ED00E080B483B000AF034645
:1049D000FB7197F90730002B0BDBFB7903F01F020B
:1049E000064997F907305B09012000FA02F241F805
:1049F000232000BF0C37BD4680BC704700E100E0BB
:104A000080B483B000AF03463960FB7197F907307B
:104A1000002B0ADB3B68DAB20C4997F90730120128
:104A2000D2B20B4483F800230AE03B68DAB20849AB
:104A3000FB7903F00F03043B1201D2B20B441A7648
:104A400000BF0C37BD4680BC704700BF00E100E0EE
:104A500000ED00E080B489B000AFF860B9607A6022
:104A6000FB6803F00703FB61FB69C3F10703042B39
:104A700028BF0423BB61FB690433062B02D9FB6901
:104A8000033B00E000237B614FF0FF32BB6902FA79
:104A900003F3DA43BB681A407B699A404FF0FF3159
:104AA0007B6901FA03F3D9437B680B401343184633
:104AB0002437BD4680BC704780B582B000AF7860B7
:104AC0007B68013BB3F1807F01D301230FE00A4AE9
:104AD0007B68013B53600F214FF0FF30FFF790FFE1
:104AE000054B00229A60044B07221A6000231846E7
:104AF0000837BD4680BD00BF10E000E080B582B041
:104B000000AF78607868FFF72DFF00BF0837BD461B
:104B100080BD80B586B000AF0346B9607A60FB7394
:104B200000237B61FFF742FF78617A68B968786992
:104B3000FFF790FF024697F90F3011461846FFF72E
:104B40005FFF00BF1837BD4680BD80B582B000AFA3
:104B50000346FB7197F907301846FFF735FF00BF92
:104B60000837BD4680BD80B582B000AF78607868F8
:104B7000FFF7A2FF034618460837BD4680BD80B444
:104B800085B000AF78600023FB737B6893F8213019
:104B9000DBB2022B08D07B6804229A637B68002278
:104BA00083F82020012320E07B681B681A687B685B
:104BB0001B6822F00E021A607B681B681A687B680B
:104BC0001B6822F001021A607B681A6C7B68DB6B41
:104BD000012101FA02F25A607B68012283F8212048
:104BE0007B68002283F82020FB7B18461437BD46E3
:104BF00080BC704780B584B000AF78600023FB7341
:104C00007B6893F82130DBB2022B05D07B6804224D
:104C10009A630123FB7351E07B681B681A687B6809
:104C20001B6822F00E021A607B681B681A687B689A
:104C30001B6822F001021A607B681B68224A9342BB
:104C400029D07B681B68214A934222D07B681B686D
:104C50001F4A93421AD07B681B681E4A934212D0A7
:104C60007B681B681C4A93420AD07B681B681B4AFE
:104C7000934202D14FF480130EE04FF080730BE0AB
:104C80004FF4803308E04FF4805305E04FF4807315
:104C900002E0102300E00123114A53607B680122E7
:104CA00083F821207B68002283F820207B685B6BDF
:104CB000002B03D07B685B6B78689847FB7B1846BA
:104CC0001037BD4680BD00BF080002401C000240F6
:104CD0003000024044000240580002406C00024094
:104CE0000000024080B48BB000AF786039600023D0
:104CF0007B6200233B6269E101227B6A02FA03F3D3
:104D0000FB613B681B68FA691340BB61BA69FB69C8
:104D10009A4240F058813B685B689A4A93425ED061
:104D2000984A934275D8984A934258D0964A9342EB
:104D30006FD8964A934252D0944A934269D8944A83
:104D400093424CD0924A934263D8924A934246D0BF
:104D5000904A93425DD8122B2AD8122B59D801A21F
:104D600052F823F0DF4D0008B94D0008CB4D000884
:104D70000D4E0008134E0008134E0008134E000895
:104D8000134E0008134E0008134E0008134E00087F
:104D9000134E0008134E0008134E0008134E00086F
:104DA000134E0008134E0008C14D0008D54D0008F1
:104DB000794A934213D02CE03B68DB683B6229E0E0
:104DC0003B68DB6804333B6224E03B68DB68083304
:104DD0003B621FE03B68DB680C333B621AE03B68D8
:104DE0009B68002B02D104233B6213E03B689B6865
:104DF000012B05D108233B627B68FA691A6109E03F
:104E000008233B627B68FA695A6103E000233B6236
:104E100000E000BFBB69FF2B01D87B6801E07B6825
:104E200004337B61BB69FF2B02D87B6A9B0002E0E5
:104E30007B6A083B9B003B617B691A680F213B69D9
:104E400001FA03F3DB431A40396A3B6901FA03F3C1
:104E50001A437B691A603B685B6803F08053002B40
:104E600000F0B1804D4B9B694C4A43F001039361C4
:104E70004A4B9B6903F00103BB60BB68484A7B6AED
:104E80009B08023352F82330FB607B6A03F0030374
:104E90009B000F2202FA03F3DB43FA681340FB6026
:104EA0007B68404A934213D07B683F4A93420DD0BF
:104EB0007B683E4A934207D07B683D4A934201D1CA
:104EC000032306E0042304E0022302E0012300E0C0
:104ED00000237A6A02F0030292009340FA681343B7
:104EE000FB602F497B6A9B080233FA6841F8232054
:104EF0003B685B6803F48013002B06D02D4B9A6847
:104F00002C49BB6913438B6006E02A4B9A68BB6946
:104F1000DB43284913408B603B685B6803F4001354
:104F2000002B06D0234BDA682249BB691343CB60C0
:104F300006E0204BDA68BB69DB431E491340CB60B7
:104F40003B685B6803F40033002B06D0194B5A68AA
:104F50001849BB6913434B6006E0164B5A68BB699E
:104F6000DB43144913404B603B685B6803F48033B8
:104F7000002B21D00F4B1A680E49BB6913430B60FD
:104F800021E000BF000032100000311000002210AC
:104F9000000021100000121000001110001002404B
:104FA0000000014000080140000C014000100140D9
:104FB00000140140000401400B4B1A68BB69DB433D
:104FC000094913400B607B6A01337B623B681A68B6
:104FD0007B6A22FA03F3002B7FF48EAE00BF00BF82
:104FE0002C37BD4680BC70470004014080B483B0BC
:104FF00000AF78600B467B8013467B707B78002B7C
:1050000003D07A887B681A6103E07B881A047B6886
:105010001A6100BF0C37BD4680BC704780B485B0B4
:1050200000AF78600B467B807B68DB68FB607A882A
:10503000FB6813401A04FB68D9437B880B401A4372
:105040007B681A6100BF1437BD4680BC7047000002
:1050500080B584B000AF78607B68002B01D101235C
:105060002BE17B6893F83D30DBB2002B06D17B68E7
:10507000002283F83C207868FEF7E6FC7B68242257
:1050800083F83D207B681B681A687B681B6822F0E8
:1050900001021A607B681B681A687B681B6842F40F
:1050A00000421A607B681B681A687B681B6822F4E0
:1050B00000421A6001F070FDF8607B685B68814A0D
:1050C000934207D8FB68804A934294BF0123002390
:1050D000DBB206E0FB687D4A934294BF01230023C4
:1050E000DBB2002B01D00123E7E0FB68784AA2FB8A
:1050F00003239B0CBB607B681B685B6823F03F014C
:105100007B681B68BA680A435A607B681B681B6A25
:1051100023F03F017B685B686A4A934202D8BB6810
:10512000013309E0BB684FF4967202FB03F3694A4E
:10513000A2FB03239B0901337A6812680B431362B5
:105140007B681B68DB6923F44F4222F0FF027B6817
:105150005B685C498B4219D8FB68591E7B685B68A9
:105160005B00B1FBF3F3591C40F6FC730B40002BC2
:105170000AD0FB68591E7B685B685B00B1FBF3F3E8
:105180000133C3F30B0351E004234FE07B689B68BA
:10519000002B11D1FB68581E7B6859680B465B00D9
:1051A0000B44B0FBF3F30133C3F30B03002B0CBF31
:1051B00001230023DBB212E0FB68581E7B685968AC
:1051C0000B469B000B4499000B44B0FBF3F30133F7
:1051D000C3F30B03002B0CBF01230023DBB2002B16
:1051E00001D0012322E07B689B68002B0ED1FB6875
:1051F000581E7B6859680B465B000B44B0FBF3F309
:105200000133C3F30B0343F400430FE0FB68581E64
:105210007B6859680B469B000B4499000B44B0FB1C
:10522000F3F30133C3F30B0343F440437968096894
:105230001343CB617B681B681B6823F0C0017B684C
:10524000DA697B681B6A1A437B681B680A431A6029
:105250007B681B689B6823F4034323F0FF037A6891
:1052600011697A68D26811437A6812680B439360B7
:105270007B681B68DB6823F0FF017B685A697B68E9
:105280009B691A437B681B680A43DA607B681B686A
:105290001A687B681B6842F001021A607B68002272
:1052A0001A647B68202283F83D207B6800221A6301
:1052B0007B68002283F83E20002318461037BD4645
:1052C00080BD00BFA08601007F841E00FF083D0056
:1052D00083DE1B43D34D621080B588B002AFF86007
:1052E0007A601A460B467B8113463B8102F06AFBCB
:1052F0007861FB6893F83D30DBB2202B40F0E08012
:105300007B690093192301227049F86800F044FE7C
:105310000346002B01D00223D3E0FB6893F83C3016
:10532000012B01D10223CCE0FB68012283F83C2051
:10533000FB681B681B6803F00103012B07D0FB68A7
:105340001B681A68FB681B6842F001021A60FB6860
:105350001B681A68FB681B6822F400621A60FB680D
:10536000212283F83D20FB68102283F83E20FB6851
:1053700000221A64FB687A685A62FB683A895A8587
:10538000FB685B8D9AB2FB681A85FB68504ADA624B
:1053900079897B693A6AF86800F0FEFB0346002BC6
:1053A00001D001238DE000233B61FB681B685B6932
:1053B0003B61FB681B689B693B613B6966E07A69FE
:1053C000396AF86800F002FF0346002B0DD0FB6835
:1053D0001B6C042B07D1FB681B681A68FB681B68F1
:1053E00042F400721A6001236BE0FB685B6A1A7872
:1053F000FB681B681A61FB685B6A5A1CFB685A628F
:10540000FB685B8D9BB2013B9AB2FB685A85FB68D7
:105410001B8D013B9AB2FB681A85FB681B685B69B0
:1054200003F00403042B1BD1FB681B8D002B17D04A
:10543000FB685B6A1A78FB681B681A61FB685B6A29
:105440005A1CFB685A62FB685B8D9BB2013B9AB2A7
:10545000FB685A85FB681B8D013B9AB2FB681A8575
:105460007A69396AF86800F0F9FE0346002B0DD01E
:10547000FB681B6C042B07D1FB681B681A68FB6870
:105480001B6842F400721A6001231AE0FB681B8D4E
:10549000002B94D1FB681B681A68FB681B6842F4F8
:1054A00000721A60FB68202283F83D20FB6800220E
:1054B00083F83E20FB68002283F83C20002300E0B4
:1054C000022318461837BD4680BD00BF02001000F9
:1054D0000000FFFF80B588B002AFF86008461146B3
:1054E0001A4603467B810B463B811346FB8002F044
:1054F00069FA7861FB6893F83D30DBB2202B40F00D
:10550000D9807B690093192301226D49F86800F066
:1055100043FD0346002B01D00223CCE0FB6893F847
:105520003C30012B01D10223C5E0FB68012283F846
:105530003C20FB681B681B6803F00103012B07D0AC
:10554000FB681B681A68FB681B6842F001021A605E
:10555000FB681B681A68FB681B6822F400621A600B
:10556000FB68212283F83D20FB68402283F83E201F
:10557000FB6800221A64FB683A6A5A62FB68BA8CBC
:105580005A85FB685B8D9AB2FB681A85FB684D4AA9
:10559000DA62F8883A8979897B690193BB6A00935A
:1055A0000346F86800F07AFB0346002B52D0012333
:1055B00081E07A69B96AF86800F008FE0346002BBA
:1055C0000DD0FB681B6C042B07D1FB681B681A68A5
:1055D000FB681B6842F400721A6001236BE0FB68F1
:1055E0005B6A1A78FB681B681A61FB685B6A5A1C65
:1055F000FB685A62FB681B8D013B9AB2FB681A85F7
:10560000FB685B8D9BB2013B9AB2FB685A85FB68D5
:105610001B685B6903F00403042B1BD1FB681B8D23
:10562000002B17D0FB685B6A1A78FB681B681A614D
:10563000FB685B6A5A1CFB685A62FB681B8D013B66
:105640009AB2FB681A85FB685B8D9BB2013B9AB2EC
:10565000FB685A85FB681B8D002BAAD17A69B96A51
:10566000F86800F0FBFD0346002B0DD0FB681B6CB7
:10567000042B07D1FB681B681A68FB681B6842F49F
:1056800000721A60012316E0FB681B681A68FB6849
:105690001B6842F400721A60FB68202283F83D20E8
:1056A000FB68002283F83E20FB68002283F83C2040
:1056B000002300E0022318461837BD4680BD00BF16
:1056C000020010000000FFFF80B58CB002AFF86050
:1056D000084611461A4603467B810B463B8113461A
:1056E000FB8000233B6202F06DF97862FB6893F85F
:1056F0003D30DBB2202B40F044827B6A00931923BB
:1057000001228249F86800F047FC0346002B01D0D3
:10571000022337E2FB6893F83C30012B01D10223CE
:1057200030E2FB68012283F83C20FB681B681B68A1
:1057300003F00103012B07D0FB681B681A68FB68A4
:105740001B6842F001021A60FB681B681A68FB685C
:105750001B6822F400621A60FB68222283F83D2055
:10576000FB68402283F83E20FB6800221A64FB6835
:105770003A6B5A62FB68BA8E5A85FB685B8D9AB2A7
:10578000FB681A85FB68624ADA62F8883A89798987
:105790007B6A0193BB6B00930346F86800F014FB2F
:1057A0000346002B01D00123ECE1FB681B8D002B8D
:1057B00013D10023FB61FB681B685B69FB61FB681D
:1057C0001B689B69FB61FB69FB681B681A68FB68C7
:1057D0001B6842F400721A60C0E1FB681B8D012B4C
:1057E0001ED1FB681B681A68FB681B6822F4806284
:1057F0001A6072B600BF0023BB61FB681B685B695F
:10580000BB61FB681B689B69BB61BB69FB681B686C
:105810001A68FB681B6842F400721A6062B635E0D1
:10582000FB681B8D022B1ED1FB681B681A68FB6886
:105830001B6842F400621A6072B600BF00237B61ED
:10584000FB681B685B697B61FB681B689B697B610C
:105850007B69FB681B681A68FB681B6822F480621E
:105860001A6062B612E0FB681B681A68FB681B6866
:1058700042F480621A6000233B61FB681B685B692D
:105880003B61FB681B689B693B613B6966E1FB68A8
:105890001B8D032B00F21F81FB681B8D012B23D175
:1058A0007A6AB96BF86800F021FD0346002B01D03D
:1058B000012367E1FB681B681A69FB685B6AD2B267
:1058C0001A70FB685B6A5A1CFB685A62FB681B8D86
:1058D000013B9AB2FB681A85FB685B8D9BB2013B6A
:1058E0009AB2FB685A8539E1FB681B8D022B52D1B5
:1058F0007B6A0093BB6B00220649F86800F04CFB02
:105900000346002B08D001233CE100BF0200100039
:105910000000FFFF0400010072B600BFFB681B68B7
:105920001A68FB681B6842F400721A60FB681B6807
:105930001A69FB685B6AD2B21A70FB685B6A5A1C10
:10594000FB685A62FB681B8D013B9AB2FB681A85A3
:10595000FB685B8D9BB2013B9AB2FB685A8562B6CD
:1059600000BFFB681B681A69FB685B6AD2B21A70D9
:10597000FB685B6A5A1CFB685A62FB681B8D013B23
:105980009AB2FB681A85FB685B8D9BB2013B9AB2A9
:10599000FB685A85E2E07B6A0093BB6B00227B497F
:1059A000F86800F0F9FA0346002B01D00123E9E082
:1059B000FB681B681A68FB681B6822F480621A6027
:1059C00072B600BFFB681B681A69FB685B6AD2B2DB
:1059D0001A70FB685B6A5A1CFB685A62FB681B8D75
:1059E000013B9AB2FB681A85FB685B8D9BB2013B59
:1059F0009AB2FB685A85664B1B68DB08654AA2FBB6
:105A000003231A0A13469B001344DA00D31A3B629D
:105A10003B6A013B3B623B6A002B18D1FB680022CA
:105A20001A63FB68202283F83D20FB68002283F87C
:105A30003E20FB681B6C43F02002FB681A6462B6D0
:105A400000BFFB68002283F83C2001239AE0FB683A
:105A50001B685B6903F00403042BD9D1FB681B6846
:105A60001A68FB681B6842F400721A60FB681B68C6
:105A70001A69FB685B6AD2B21A70FB685B6A5A1CCF
:105A8000FB685A62FB681B8D013B9AB2FB681A8562
:105A9000FB685B8D9BB2013B9AB2FB685A8562B68C
:105AA00000BFFB681B681A69FB685B6AD2B21A7098
:105AB000FB685B6A5A1CFB685A62FB681B8D013BE2
:105AC0009AB2FB681A85FB685B8D9BB2013B9AB268
:105AD000FB685A8542E07A6AB96BF86800F006FC08
